:020000040000FA
:060C00008AEF12F0120061
:080C0800D1EF13F0010E0E0103
:100C1000AB6F0E01AC6F12000CEF14F000C0E5FFDB
:100C200001C0E5FF02C0E5FF03C0E5FF04C0E5FF2A
:100C300005C0E5FF06C0E5FF07C0E5FF08C0E5FF0A
:100C400009C0E5FF0AC0E5FF0BC0E5FF0CC0E5FFEA
:100C50000DC0E5FF0EC0E5FF0FC0E5FF10C0E5FFCA
:100C600011C0E5FF12C0E5FF13C0E5FF14C0E5FFAA
:100C7000006A016A026A036A046A056A066A076A08
:100C80000A0E0624086E260E0720096E0A6A07BEA1
:100C90000A68000E0A2208C0F6FF09C0F7FF0AC062
:100CA000F8FF0900F5CF08F00900F5CF09F0010EB3
:100CB000E56E0850E56EB9EC0AF0E652E652000E19
:100CC0000224086E040E0320096E0A6A0B6A0C6A7D
:100CD0000D6A0C5008240E6E0D5009200F6E0EC0C8
:100CE000E9FF0FC0EAFFEECF0EF0EFCF0FF01A0EC4
:100CF0000C24106E260E0D20116E126A0DBE1268A5
:100D0000000E122210C0F6FF11C0F7FF12C0F8FF4C
:100D10000900F5CF13F00900F5CF14F00E50E56E81
:100D20001350E56EB9EC0AF0E652E6520E500F1081
:100D300014E110C0F6FF11C0F7FF12C0F8FF090060
:100D4000F5CF10F00900F5CF11F0010EE56E10504F
:100D5000E56EB9EC0AF0E652E652020E0C26D8B067
:100D60000D2A0A4A0B2A0B50800F800F02E1080E51
:100D70000A5CD8A0AED70A0E0424086E260E052001
:100D8000096E0A6A05BE0A68000E0A2208C0F6FF4C
:100D900009C0F7FF0AC0F8FF0900F5CF08F0090005
:100DA000F5CF09F0E56A0850E56EB9EC0AF0E652B5
:100DB000E652100E0226D8B0032A020E0426D8B03E
:100DC000052A020E0626D8B0072A004A012A015039
:100DD000800F800F02E1080E005CD8A051D7E4CF4D
:100DE00014F0E4CF13F0E4CF12F0E4CF11F0E4CF2D
:100DF00010F0E4CF0FF0E4CF0EF0E4CF0DF0E4CF2D
:100E00000CF0E4CF0BF0E4CF0AF0E4CF09F0E4CF2C
:100E100008F0E4CF07F0E4CF06F0E4CF05F0E4CF2C
:100E200004F0E4CF03F0E4CF02F0E4CF01F0E4CF2C
:100E300000F01200D9CFE5FFE1CFD9FF00C0E5FFF8
:100E400001C0E5FF02C0E5FF03C0E5FF04C0E5FF08
:100E500005C0E5FF06C0E5FF07C0E5FF020EDBCFDA
:100E600000F0030EDBCF01F0040EDBCF02F0050E25
:100E7000DBCF03F0060EDBCF04F0070EDBCF05F06F
:100E8000080EDBCF06F0090EDBCF07F000500E0195
:100E9000916F0150926F0250936F0350946F045002
:100EA0000E01956F0550966F0650976F0750986F1B
:100EB0000E0191510E019703F4CF01F0F3CF00F032
:100EC00000500E019B6F01509C6F0E0191510E015D
:100ED0009503F4CF01F0F3CF00F000500E01996FAD
:100EE00001509A6F0E0194510E019503F3CF00F05B
:100EF0000E019C51002600509C6F0E0193510E0173
:100F00009603F3CF00F00E019C51002600509C6F19
:100F10000E0193510E019503F4CF01F0F3CF00F0D1
:100F20000E019B5100269C51012200509B6F0150E5
:100F30009C6F0E0192510E019603F4CF01F0F3CF96
:100F400000F00E019B5100269C51012200509B6F26
:100F500001509C6F0E0192510E019703F3CF00F0E8
:100F600000500E01A06F0E0192510E019503F4CFB7
:100F700001F0F3CF00F000500E019E6F01509F6F03
:100F80000E0191510E019803F3CF00F000500E01B5
:100F9000A46F0E0191510E019603F4CF01F0F3CF2F
:100FA00000F000500E01A26F0150A36F0E019D6B67
:100FB0000E01A16B0E019D510E019925006E0E01CF
:100FC0009E510E019A21016E0E019F510E019B212F
:100FD000026E0E01A0510E019C21036E0050996F0C
:100FE00001509A6F02509B6F03509C6F0E01A151EC
:100FF0000E019925006E0E01A2510E019A21016E7B
:101000000E01A3510E019B21026E0E01A4510E018F
:101010009C21036E03C0E9FF02C0F4FF01C0F3FF8F
:101020000050E4CF07F0E4CF06F0E4CF05F0E4CFC2
:1010300004F0E4CF03F0E4CF02F0E4CF01F0E4CF1A
:1010400000F0E4CFD9FF1200D9CFE5FFE1CFD9FFFF
:1010500000C0E5FF01C0E5FF02C0E5FF03C0E5FFFA
:1010600004C0E5FF05C0E5FF06C0E5FF07C0E5FFDA
:1010700008C0E5FF09C0E5FF0AC0E5FF0BC0E5FFBA
:101080000CC0E5FF0DC0E5FF0EC0E5FF0FC0E5FF9A
:1010900010C0E5FF11C0E5FF12C0E5FF13C0E5FF7A
:1010A000020EDBCF00F0030EDBCF01F0040EDBCF2E
:1010B00002F0050EDBCF03F0060EDBCF04F0070EC7
:1010C000DBCF05F0080EDBCF06F0090EDBCF07F013
:1010D0000A0EDBCF08F00B0EDBCF09F00C0EDBCFD6
:1010E0000AF00D0EDBCF0BF00E0EDBCF0CF00F0E67
:1010F000DBCF0DF0100EDBCF0EF0110EDBCF0FF0BB
:10110000120EDBCF10F0130EDBCF11F0140EDBCF7D
:1011100012F0150EDBCF13F00450005E0550015A9B
:101120000650025A0750035A0C50105E0D50115AC7
:101130000E50125A0F50135A1350E56E1250E56EAE
:101140001150E56E1050E56E0350E56E0250E56EED
:101150000150E56E0050E56E1AEC07F0006EF3CF1B
:1011600001F0F4CF02F0E9CF03F0080EE1260450BD
:10117000085C046E05500958056E06500A58066E44
:1011800007500B58E56E0650E56E0550E56E0450AD
:10119000E56E0350E56E0250E56E0150E56E0050BD
:1011A000E56E8AEC0BF0006EF3CF01F0F4CF02F0A5
:1011B000E9CF03F0080EE12600500C2601500D2265
:1011C00002500E2203500F220FC0E9FF0EC0F4FFA1
:1011D0000DC0F3FF0C50E4CF13F0E4CF12F0E4CFD6
:1011E00011F0E4CF10F0E4CF0FF0E4CF0EF0E4CF35
:1011F0000DF0E4CF0CF0E4CF0BF0E4CF0AF0E4CF35
:1012000009F0E4CF08F0E4CF07F0E4CF06F0E4CF34
:1012100005F0E4CF04F0E4CF03F0E4CF02F0E4CF34
:1012200001F0E4CF00F0E4CFD9FF120000C0E5FFE9
:1012300001C0E5FF02C0E5FF03C0E5FF04C0E5FF14
:1012400005C0E5FF06C0E5FF07C0E5FF08C0E5FFF4
:1012500009C0E5FF0AC0E5FF0BC0E5FFE56AE56AE6
:10126000250EE56E800EE56E68EC10F0040EE126AA
:10127000006A016A026A036A1A0E0224046E260ECC
:101280000320056E066A03BE0668000E062204C02F
:10129000F6FF05C0F7FF06C0F8FF0900F5CF07F01D
:1012A0000900F5CF08F0E56A0750E56EE8EC09F0B3
:1012B000E652E6520A0E0224076E260E0320086E3E
:1012C000096A03BE0968000E092207C0F6FF08C0BC
:1012D000F7FF09C0F8FF0900F5CF07F00900F5CFC7
:1012E00008F0E56A0750E56EE8EC09F0E652E652D0
:1012F00004C0F6FF05C0F7FF06C0F8FF0900F5CFF0
:1013000004F00900F5CF05F0010EE56E0450E56E1E
:10131000B9EC0AF0E652E652020E0226D8B0032AD1
:10132000004A012A0150800F800F02E1080E005C84
:10133000D8A0A2D7006A016A026A036A000E0224DA
:10134000046E040E0320056E066A076A086A096ABD
:10135000085004240A6E095005200B6E0AC0E9FFEC
:101360000BC0EAFF010EEE6EEF6A020E0826D8B03F
:10137000092A064A072A0750800F800F02E1080E4B
:10138000065CE6E3100E0226D8B0032A004A012AC2
:101390000150800F800F02E1080E005CCFE3E4CF24
:1013A0000BF0E4CF0AF0E4CF09F0E4CF08F0E4CF8B
:1013B00007F0E4CF06F0E4CF05F0E4CF04F0E4CF8B
:1013C00003F0E4CF02F0E4CF01F0E4CF00F012002C
:1013D000D9CFE5FFE1CFD9FF00C0E5FF01C0E5FFB0
:1013E00002C0E5FF03C0E5FF04C0E5FF020EDBCF4E
:1013F00000F0030EDBCF01F0D40E0024026E036A6E
:10140000250E0322046A000E042202C0F6FF03C068
:10141000F7FF04C0F8FF0900F5CF02F0030E025CED
:10142000D8B09AD0FA6AFB6A0234FA36E834FA364F
:10143000FC0B420FE56E140EFA22000EFB22E45064
:10144000F96E27EF0AF054EF0AF081EF0AF001502D
:1014500015E0C20E0024026E036A250E0322046A00
:10146000000E042202C0F6FF03C0F7FF04C0F8FF1D
:101470000900F5CF02F0025092126ED0C20E002485
:10148000026E036A250E0322046A000E042202C0C3
:10149000F6FF03C0F7FF04C0F8FF0900F5CF02F024
:1014A0000250FF08921658D0015015E0C20E0024D9
:1014B000026E036A250E0322046A000E042202C093
:1014C000F6FF03C0F7FF04C0F8FF0900F5CF02F0F4
:1014D0000250931241D0C20E0024026E036A250E00
:1014E0000322046A000E042202C0F6FF03C0F7FFC5
:1014F00004C0F8FF0900F5CF02F00250FF08931670
:101500002BD0015015E0C20E0024016E026A250E98
:101510000222036A000E032201C0F6FF02C0F7FF99
:1015200003C0F8FF0900F5CF01F00150941214D068
:10153000016A026AC20E0026250E0122000E022256
:1015400000C0F6FF01C0F7FF02C0F8FF0900F5CFA9
:1015500000F00050FF089416E4CF04F0E4CF03F04D
:10156000E4CF02F0E4CF01F0E4CF00F0E4CFD9FF04
:101570001200D9CFE5FFE1CFD9FF00C0E5FF01C0E0
:10158000E5FF02C0E5FF03C0E5FF04C0E5FF020E72
:10159000DBCF00F0030EDBCF01F0D40E0024026E8F
:1015A000036A250E0322046A000E042202C0F6FF1D
:1015B00003C0F7FF04C0F8FF0900F5CF02F0030EE7
:1015C000025CD8B09AD0FA6AFB6A0234FA36E83480
:1015D000FA36FC0BE40FE56E150EFA22000EFB2224
:1015E000E450F96EF8EF0AF025EF0BF052EF0BF034
:1015F000015015E0C20E0024026E036A250E03227C
:10160000046A000E042202C0F6FF03C0F7FF04C004
:10161000F8FF0900F5CF02F0025089126ED0C20E19
:101620000024026E036A250E0322046A000E0422BF
:1016300002C0F6FF03C0F7FF04C0F8FF0900F5CFB2
:1016400002F00250FF08891658D0015015E0C20E72
:101650000024026E036A250E0322046A000E04228F
:1016600002C0F6FF03C0F7FF04C0F8FF0900F5CF82
:1016700002F002508A1241D0C20E0024026E036AA8
:10168000250E0322046A000E042202C0F6FF03C0E6
:10169000F7FF04C0F8FF0900F5CF02F00250FF0881
:1016A0008A162BD0015015E0C20E0024016E026A8A
:1016B000250E0222036A000E032201C0F6FF02C0BB
:1016C000F7FF03C0F8FF0900F5CF01F001508B12BE
:1016D00014D0016A026AC20E0026250E0122000EF5
:1016E000022200C0F6FF01C0F7FF02C0F8FF0900A8
:1016F000F5CF00F00050FF088B16E4CF04F0E4CFE4
:1017000003F0E4CF02F0E4CF01F0E4CF00F0E4CF47
:10171000D9FF1200D9CFE5FFE1CFD9FF00C0E5FF27
:1017200001C0E5FF02C0E5FF03C0E5FF04C0E5FF1F
:1017300005C0E5FF06C0E5FF07C0E5FF08C0E5FFFF
:1017400009C0E5FF0AC0E5FF0BC0E5FF0CC0E5FFDF
:101750000DC0E5FF020EDBCF00F0030EDBCF01F082
:10176000040EDBCF02F0050EDBCF03F0060EDBCF5D
:1017700004F0070EDBCF05F0080EDBCF06F0090EF4
:10178000DBCF07F0D88003AED890086A083608503F
:101790000FE0031C0C6E021C0B6E011C0A6E001C79
:1017A000096E092A0DE10A2A0BE10B4A0C2A08D01E
:1017B00000C009F001C00AF002C00BF003C00CF039
:1017C000D88007AED890006A003600500FE0071CA2
:1017D0000D6E061C036E051C026E041C016E012AB0
:1017E0000DE1022A0BE1034A0D2A08D004C001F0E2
:1017F00005C002F006C003F007C00DF00D50E56E05
:101800000350E56E0250E56E0150E56E0C50E56E3A
:101810000B50E56E0A50E56E0950E56EDCEC0FF0FA
:10182000016EF3CF02F0F4CF03F0E9CF04F0080E1D
:10183000E1260050081A085016E0041C076E031C2D
:10184000066E021C056E011C006E002A04E1052ACA
:1018500002E1064A072A07C0E9FF06C0F4FF05C0F7
:10186000F3FF005007D004C0E9FF03C0F4FF02C03B
:10187000F3FF0150E4CF0DF0E4CF0CF0E4CF0BF018
:10188000E4CF0AF0E4CF09F0E4CF08F0E4CF07F0AA
:10189000E4CF06F0E4CF05F0E4CF04F0E4CF03F0AA
:1018A000E4CF02F0E4CF01F0E4CF00F0E4CFD9FFC1
:1018B000120000C0E5FF01C0E5FF02C0E5FF03C064
:1018C000E5FF0E018251E56E8151E56EE56A100E6D
:1018D000E56E34EC13F0006EF3CF01F0040EE12658
:1018E000000E0026040E01220E018451E56E835184
:1018F000E56EE56A020EE56E34EC13F0026EF3CF8E
:1019000003F0040EE126025000260350012200C01D
:10191000E9FF01C0EAFF010EEE6EEF6A0D0EE56E03
:1019200084EC13F0006EF3CF01F0E652E56AE56A4D
:10193000E56A070EE56EE56AE56AE56AE56AE56A65
:10194000E56A030EE56EE568E56AE56AE56AE56A5B
:10195000E56AE56A0150E56E0050E56E24EC08F09A
:10196000006EF3CF01F0140EE12600500708006E60
:10197000000E015600500E01816F0150826F0E0E55
:10198000E56E84EC13F0006EF3CF01F0E652E56AE9
:10199000E56AE56A070EE56EE56AE56AE56AE56A05
:1019A000E56AE56A030EE56EE568E56AE56AE56AFB
:1019B000E56AE56AE56A0150E56E0050E56E24ECE3
:1019C00008F0006EF3CF01F0140EE12600500E0176
:1019D000836F0150846F0E018251E56E8151E56E77
:1019E000E56A100EE56E34EC13F0006EF3CF01F0F3
:1019F000040EE126000E0026040E01220E01845181
:101A0000E56E8351E56EE56A020EE56E34EC13F087
:101A1000026EF3CF03F0040EE126025000260350BD
:101A2000012200C0E9FF01C0EAFF000EEE6AEF6A82
:101A3000E4CF03F0E4CF02F0E4CF01F0E4CF00F014
:101A40001200D9CFE5FFE1CFD9FF00C0E5FF01C00B
:101A5000E5FF02C0E5FF03C0E5FF04C0E5FF05C0E8
:101A6000E5FF06C0E5FF07C0E5FF08C0E5FF09C0C8
:101A7000E5FF0AC0E5FF0BC0E5FF0CC0E5FF020E65
:101A8000DBCF00F0030EDBCF01F0040EDBCF02F062
:101A9000050EDBCF03F0060EDBCF04F0070EDBCF25
:101AA00005F0080EDBCF06F0090EDBCF07F0D8807B
:101AB00003AED890086A083608500FE0031C0C6E7D
:101AC000021C0B6E011C0A6E001C096E092A0DE136
:101AD0000A2A0BE10B4A0C2A08D000C009F001C009
:101AE0000AF002C00BF003C00CF0D88007AED8900B
:101AF0000FE3071C036E061C026E051C016E041C1E
:101B0000006E002A0DE1012A0BE1024A032A08D0E7
:101B100004C000F005C001F006C002F007C003F0E9
:101B20000350E56E0250E56E0150E56E0050E56E23
:101B30000C50E56E0B50E56E0A50E56E0950E56EEF
:101B4000ACEC0EF0006EF3CF01F0F4CF02F0E9CF71
:101B500003F0080EE126085016E0031C076E021C75
:101B6000066E011C056E001C046E042A04E1052AA1
:101B700002E1064A072A07C0E9FF06C0F4FF05C0D4
:101B8000F3FF045007D003C0E9FF02C0F4FF01C017
:101B9000F3FF0050E4CF0CF0E4CF0BF0E4CF0AF0F9
:101BA000E4CF09F0E4CF08F0E4CF07F0E4CF06F08B
:101BB000E4CF05F0E4CF04F0E4CF03F0E4CF02F08B
:101BC000E4CF01F0E4CF00F0E4CFD9FF120000C071
:101BD000E5FF01C0E5FF02C0E5FF03C0E5FF04C06B
:101BE000E5FFD350030B006EFA6AFB6A0034FA3645
:101BF000E834FA36FC0B060FE56E1C0EFA22000ED6
:101C0000FB22E450F96E0BEF0EF06CEF0EF072EF6A
:101C10000EF072EF0EF0E56AE56AE568F90EE56E22
:101C200032EC12F0006E040EE126030E0016E60EF2
:101C30000024016E026A250E0222036A000E0322AE
:101C400001C0F6FF02C0F7FF03C0F8FF0900F5CF9F
:101C500000F09BAC22D000C001F0E56AE56AE56ABD
:101C60000150E56E020EE56EDC0EE56E6C0EE56E63
:101C7000000EE56A8AEC0BF0016EF3CF02F0F4CFB0
:101C800003F0E9CF04F0080EE12604C0E9FF03C029
:101C9000F4FF02C0F3FF015054D0E56AE56AE56A3B
:101CA0000050E56EE56A7A0EE56E120EE56E000EE6
:101CB000E56A8AEC0BF0006EF3CF01F0F4CF02F08E
:101CC000E9CF03F0080EE12603C0E9FF02C0F4FFEC
:101CD00001C0F3FF005035D0E96AF46A800EF36E5C
:101CE000E86A2FD0D350E838070BE56AE56EE56A5D
:101CF000040EE56E34EC13F0006EF3CF01F0040E29
:101D0000E126026AEA0E0026250E0122000E0222BA
:101D100000C0F6FF01C0F7FF02C0F8FF0900F5CFD1
:101D200000F00900F5CF01F00900F5CF02F009003D
:101D3000F5CF03F003C0E9FF02C0F4FF01C0F3FFD9
:101D40000050E4CF04F0E4CF03F0E4CF02F0E4CF9E
:101D500001F0E4CF00F01200D9CFE5FFE1CFD9FFC9
:101D600000C0E5FF01C0E5FF02C0E5FF03C0E5FFDD
:101D700004C0E5FF05C0E5FF06C0E5FF07C0E5FFBD
:101D800008C0E5FF09C0E5FF0AC0E5FF020EDBCF92
:101D900000F0030EDBCF01F0040EDBCF02F0050EE6
:101DA000DBCF03F0060EDBCF04F0070EDBCF05F030
:101DB000080EDBCF06F0090EDBCF07F0086A0450EF
:101DC00005100610071005E1E968F468F368E86893
:101DD00047D0096A0750800BE8440A6E0A501BE19D
:101DE000045004260536063607360750035C08E122
:101DF0000650025C05E10550015C02E10450005C04
:101E000006E2D890073206320532043204D0092A9D
:101E100009C008F0DFD70750035C08E10650025CF8
:101E200005E10550015C02E10450005C08E3045048
:101E3000005E0550015A0650025A0750035AD890C6
:101E4000073206320532043208C009F0080609508C
:101E5000E2E103C0E9FF02C0F4FF01C0F3FF00505C
:101E6000E4CF0AF0E4CF09F0E4CF08F0E4CF07F0C4
:101E7000E4CF06F0E4CF05F0E4CF04F0E4CF03F0C4
:101E8000E4CF02F0E4CF01F0E4CF00F0E4CFD9FFDB
:101E90001200D9CFE5FFE1CFD9FF00C0E5FF01C0B7
:101EA000E5FF02C0E5FF03C0E5FF020EDBCF00F057
:101EB000D40E0024016E026A250E0222036A000E6F
:101EC000032201C0F6FF02C0F7FF03C0F8FF0900BC
:101ED000F5CF01F0030E015CD8B062D0FA6AFB6A5C
:101EE0000134FA36E834FA36FC0BFA0FE56E1E0EB2
:101EF000FA22000EFB22E450F96E83EF0FF09DEF03
:101F00000FF0B7EF0FF0C20E0024016E026A250E2B
:101F10000222036A000E032201C0F6FF02C0F7FF8F
:101F200003C0F8FF0900F5CF01F080500116015001
:101F300002E0010E36D0E86A34D0C20E0024016EF1
:101F4000026A250E0222036A000E032201C0F6FF78
:101F500002C0F7FF03C0F8FF0900F5CF01F0815080
:101F60000116015002E0010E1CD0E86A1AD0016A85
:101F7000026AC20E0026250E0122000E022200C0B7
:101F8000F6FF01C0F7FF02C0F8FF0900F5CF00F02F
:101F900082500016005002E0010E03D0E86A01D022
:101FA000E86AE4CF03F0E4CF02F0E4CF01F0E4CF3D
:101FB00000F0E4CFD9FF1200D9CFE5FFE1CFD9FF80
:101FC00000C0E5FF01C0E5FF02C0E5FF03C0E5FF7B
:101FD00004C0E5FF05C0E5FF06C0E5FF07C0E5FF5B
:101FE00008C0E5FF09C0E5FF0AC0E5FF0BC0E5FF3B
:101FF0000CC0E5FF0DC0E5FF020EDBCF00F0030EC5
:10200000DBCF01F0040EDBCF02F0050EDBCF03F0D7
:10201000060EDBCF04F0070EDBCF05F0080EDBCF9A
:1020200006F0090EDBCF07F0086A096A0A6A0B6A34
:10203000200E0C6E0350800BE8440D6E00500026FD
:102040000136023603360850082609360A360B36A2
:102050000D50D8A4088007500B5C08E106500A5CBC
:1020600005E10550095C02E10450085C09E30450F5
:10207000085E0550095A06500A5A07500B5A00804C
:102080000C2ED8D703C0E9FF02C0F4FF01C0F3FF54
:102090000050E4CF0DF0E4CF0CF0E4CF0BF0E4CF30
:1020A0000AF0E4CF09F0E4CF08F0E4CF07F0E4CF82
:1020B00006F0E4CF05F0E4CF04F0E4CF03F0E4CF82
:1020C00002F0E4CF01F0E4CF00F0E4CFD9FF12003A
:1020D000D9CFE5FFE1CFD9FF00C0E5FF01C0E5FFA3
:1020E00002C0E5FF03C0E5FF04C0E5FF05C0E5FF52
:1020F00006C0E5FF07C0E5FF020EDBCF00F0030ED0
:10210000DBCF01F0040EDBCF02F0050EDBCF03F0D6
:10211000E7EC0DF0046EF3CF05F0F4CF06F0E9CF55
:1021200007F00350E56E0250E56E0150E56E005079
:10213000E56EE56AE56AE56A040EE56E1AEC07F0FD
:10214000006EF3CF01F0F4CF02F0E9CF03F0080EF8
:10215000E1260350E56E0250E56E0150E56E005039
:10216000E56E0750E56E0650E56E0550E56E0450CD
:10217000E56EDCEC0FF0006EF3CF01F0080EE12607
:10218000FF0E002601220150046E948EAD847E86DF
:1021900004C07FFF00C0B0FF900EAC6E7E8CAD8A95
:1021A0009E9A9D8A9F8A9E989D98010E0E01AB6F04
:1021B0000E01AC6FF28EF28CF28CE4CF07F0E4CF1C
:1021C00006F0E4CF05F0E4CF04F0E4CF03F0E4CF71
:1021D00002F0E4CF01F0E4CF00F0E4CFD9FF120029
:1021E000D9CFE5FFE1CFD9FF00C0E5FF01C0E5FF92
:1021F00002C0E5FF03C0E5FF04C0E5FF05C0E5FF41
:1022000006C0E5FF020EDBCF00F0030EDBCF01F0CE
:10221000040EDBCF02F000C0E9FF01C0F3FF025063
:10222000E4EC15F0036EF3CF04F0F4CF05F0E9CF42
:1022300006F00650E56E0550E56E0450E56E03505D
:10224000E56E410EE56EC60EE56E4E0EE56E6D0E48
:10225000E56E1AEC07F0036EF3CF04F0F4CF05F04F
:10226000E9CF06F0080EE126390E0326300E0422CF
:10227000000E0522062203C0E5FF04C0F4FF05C0DE
:10228000F6FF06C0F7FF00C0E9FF01C0F3FF0250F0
:102290003CEC16F0069E06C0E9FF05C0F4FF04C042
:1022A000F3FF0350E4CF06F0E4CF05F0E4CF04F0F1
:1022B000E4CF03F0E4CF02F0E4CF01F0E4CF00F08C
:1022C000E4CFD9FF1200D9CFE5FFE1CFD9FF00C09D
:1022D000E5FF01C0E5FF02C0E5FF03C0E5FF04C064
:1022E000E5FF05C0E5FF06C0E5FF020EDBCF00F00D
:1022F000030EDBCF01F0040EDBCF02F000C0E9FFDC
:1023000001C0F3FF0250E4EC15F00E018D6FF3CF26
:102310008EFEF4CF8FFEE9CF90FE800EE56E0E0E9E
:10232000E56E8D0EE56EF0EC10F0036EF3CF04F069
:10233000F4CF05F0E9CF06F0030EE12603C0E5FF78
:1023400004C0F4FF05C0F6FF06C0F7FF00C0E9FFB8
:1023500001C0F3FF02503CEC16F000C0E9FF01C0E1
:10236000F3FF0250E4EC15F0F3CF01F0F4CF02F0EC
:10237000E9CF03F003C0E9FF02C0F4FF01C0F3FF9F
:10238000E4CF06F0E4CF05F0E4CF04F0E4CF03F0AF
:10239000E4CF02F0E4CF01F0E4CF00F0E4CFD9FFC6
:1023A0001200D9CFE5FFE1CFD9FF00C0E5FF01C0A2
:1023B000E5FF02C0E5FF03C0E5FF04C0E5FF05C07F
:1023C000E5FF06C0E5FF07C0E5FF08C0E5FF020E18
:1023D000DBCF00F0030EDBCF01F0040EDBCF02F009
:1023E000050EDBCF03F02DEC15F0046EF3CF05F0F6
:1023F000F4CF06F0E9CF07F0E86A03BEFF0E086EDF
:10240000E56E0850E56E0350E56E0250E56E07502C
:10241000E56E0650E56E0550E56E0450E56E21EC64
:102420000DF0026EF3CF03F0080EE12600500226F5
:102430000150032203C0F3FF0250E4CF08F0E4CFC1
:1024400007F0E4CF06F0E4CF05F0E4CF04F0E4CFEA
:1024500003F0E4CF02F0E4CF01F0E4CF00F0E4CFEA
:10246000D9FF1200D9CFE5FFE1CFD9FF00C0E5FFCA
:1024700001C0E5FF02C0E5FF03C0E5FF04C0E5FFC2
:1024800005C0E5FF06C0E5FF07C0E5FF020EDBCF94
:1024900000F0030EDBCF01F0040EDBCF02F0050EDF
:1024A000DBCF03F00250046E0350056E066A076A24
:1024B0000450F86E0150046E0250056E0350066E13
:1024C000076A0450F76E0050F66E0900F5CF00F071
:1024D0000900F5CF01F0026A0150046E036A056A33
:1024E000005003260550042204C0F3FF0350E4CF3C
:1024F00007F0E4CF06F0E4CF05F0E4CF04F0E4CF3A
:1025000003F0E4CF02F0E4CF01F0E4CF00F0E4CF39
:10251000D9FF120018EEFFF028EEFFF0F86AA68E41
:10252000A69CBF0EE96E0E0EEA6E0068ED6A0050C2
:10253000FDE1DE0EF66E2C0EF76E000EF86E090051
:10254000F5CF05F00900F5CF06F034D00900F5CF3E
:1025500000F00900F5CF01F00900F5CF02F0090005
:102560000900F5CFE9FF0900F5CFEAFF09000900EE
:102570000900F5CF03F00900F5CF04F009000900C8
:10258000F6CF07F0F7CF08F0F8CF09F000C0F6FF5C
:1025900001C0F7FF02C0F8FF03D00900F5CFEEFF3E
:1025A0000306FBE20406F9E207C0F6FF08C0F7FFE6
:1025B00009C0F8FF0506CAE20606C8E27EEC15F07F
:1025C000FFD701020408102040804080010204016E
:1025D00002040820010101010101010102020202BD
:1025E00002000000000006030201127A000048E821
:1025F000010090D0030020A1070040420F0080841A
:102600001E0000093D0000127A00020007001300BE
:1026100005000D0012000C00100006000B000A005F
:1026200003001100040008000900E806E56E630ECF
:1026300028EC13F0E4500BE000D0E56E630E28ECBC
:1026400013F000D000D00000E450E82EF6D71200BE
:10265000E8060000E85007E000D000D000D000D02D
:102660000000E82EFAD71200D9CFE5FFE1CFD9FF5D
:1026700000C0E5FF01C0E5FF02C0E5FF03C0E5FFC4
:10268000020EDBCF00F0030EDBCF01F0040EDBCF38
:1026900002F0050EDBCF03F000500E01A56F0150D4
:1026A000A66F02500E01A76F0350A86F0E01A5512F
:1026B0000E01A703F4CF01F0F3CF00F000500E019C
:1026C000A96F0150AA6F0E01A5510E01A803F3CF07
:1026D00000F00E01A6510E01A703F3CF01F0015047
:1026E00000260E01AA5100260050AA6FAACEF3FFC1
:1026F000A951E4CF03F0E4CF02F0E4CF01F0E4CF3E
:1027000000F0E4CFD9FF1200D9CFE5FFE1CFD9FF28
:1027100000C0E5FF01C0E5FF02C0E5FF03C0E5FF23
:10272000020EDBCF00F00D0E005C0AE3120E005C1F
:1027300007E2F30E0024016E040DF3CFC2FF07D0B1
:10274000060E005C04E20050040DF3CFC2FFC2800D
:10275000090E006E016A0000FF0E002601220050E3
:102760000110F9E1C282C2B2FED7C4CF00F0016A03
:102770000050036E026AC3CF00F0016A00500226C7
:1027800001500322C29003C0F3FF0250E4CF03F0D4
:10279000E4CF02F0E4CF01F0E4CF00F0E4CFD9FFC2
:1027A0001200D8CFE5FFE0CFE5FFE56EF3CFE5FF00
:1027B000F4CFE5FFE9CFE5FFEACFE5FFFACFE5FF8C
:1027C000FBCFE5FFD9CFE5FFE1CFD9FFF6CFE5FF9E
:1027D000F7CFE5FFF8CFE5FFF5CFE5FF45EC14F0C7
:1027E000E4CFF5FFE4CFF8FFE4CFF7FFE4CFF6FF47
:1027F000E4CFD9FFE4CFFBFFE4CFFAFFE4CFEAFF59
:10280000E4CFE9FFE4CFF4FFE4CFF3FFE450E4CFFB
:10281000E0FFE4CFD8FF1000D8CFE5FFE0CFE5FF21
:10282000E56EF3CFE5FFF4CFE5FFE9CFE5FFEACFB3
:10283000E5FFFACFE5FFFBCFE5FFD9CFE5FFE1CF1D
:10284000D9FFF6CFE5FFF7CFE5FFF8CFE5FFF5CFEE
:10285000E5FFE4CFF5FFE4CFF8FFE4CFF7FFE4CFE7
:10286000F6FFE4CFD9FFE4CFFBFFE4CFFAFFE4CFDC
:10287000EAFFE4CFE9FFE4CFF4FFE4CFF3FFE45055
:10288000E4CFE0FFE4CFD8FF100000C0E5FF01C0B7
:10289000E5FF02C0E5FF9EAA27D09E9AAFCF00F0C9
:1028A0000E01AB517F0A04E00E01AB29016E02D08C
:1028B000010E016E0E01AC5101180FE0ABCE01F01C
:1028C0000E01AB2B026A000E01260E0E022201C081
:1028D000E9FF02C0EAFF00C0EFFF0E01AB51800A22
:1028E00003E1010E0E01AB6FE4CF02F0E4CF01F083
:1028F000E4CF00F01200D9CFE5FFE1CFD9FF00C04F
:10290000E5FF01C0E5FF02C0E5FF03C0E5FF020EE1
:10291000DBCF00F0030EDBCF01F0D88001AED89002
:1029200009E30050026E0150036E031E026CD8B41E
:10293000032A04D000C002F001C003F003C0F3FF7B
:102940000250E4CF03F0E4CF02F0E4CF01F0E4CF93
:1029500000F0E4CFD9FF120000C0E5FF01C0E5FFA1
:1029600002C0E5FF006A04EC16F0016E015017E0AA
:102970009D9AACCE01F00E01AC2B026A000E01262E
:102980000E0E022201C0E9FF02C0EAFFEFCF00F005
:10299000AC51800A03E1010E0E01AC6F9D8A00501C
:1029A000E4CF02F0E4CF01F0E4CF00F0120000C069
:1029B000E5FF01C0E5FF02C0E5FF03C0E5FFE7EC6E
:1029C0000DF0006EF3CF01F0F4CF02F0E9CF03F089
:1029D000D8900332023201320032D89003320232F0
:1029E0000132003203C0E9FF02C0F4FF01C0F3FF6F
:1029F0000050E4CF03F0E4CF02F0E4CF01F0E4CFE5
:102A000000F01200D9CFE5FFE1CFD9FF00C0E5FF0C
:102A100001C0E5FF02C0E5FF03C0E5FF020EDBCF0A
:102A200000F0030EDBCF01F0026A036A0150035C81
:102A300002E10050025C06E20C0E15EC13F0024AB3
:102A4000032AF4D7E4CF03F0E4CF02F0E4CF01F09F
:102A5000E4CF00F0E4CFD9FF120000C0E5FF01C0D1
:102A6000E5FF02C0E5FF03C0E5FF800EE56E0E0E38
:102A7000E56E850EE56EF0EC10F0006EF3CF01F020
:102A8000F4CF02F0E9CF03F0030EE12603C0E9FF23
:102A900002C0F4FF01C0F3FF0050E4CF03F0E4CF25
:102AA00002F0E4CF01F0E4CF00F01200D9CFE5FF4F
:102AB000E1CFD9FF00C0E5FF01C0E5FF02C0E5FF9F
:102AC00003C0E5FF020EDBCF00F0030EDBCF01F009
:102AD000026A036A0150035C02E10050025C03E2F7
:102AE000024A032AF7D7E4CF03F0E4CF02F0E4CFA1
:102AF00001F0E4CF00F0E4CFD9FF1200D0B202D051
:102B0000930ED0129B8C580E006E020E016E00C008
:102B100002F001C003F0FF0E002601220250031054
:102B2000F6E1F29EF29C4DEC16F065EC16F0A1EC8D
:102B300015F059EC16F016EC09F07BEC16F0FDD709
:102B40001200550EA76EAA0EA76E0E01FF91040E7D
:102B50000E01F66F050E0E01C96F060E0E01FB6F1A
:102B60000A0E0E01CB6F090E0E01CA6F0E0E0E017A
:102B7000D16F120E0E01D26F550EA76EAA0EA76E60
:102B80000E01FF811200D9CFE5FFE1CFD9FF00C0D0
:102B9000E5FF01C0E5FF020EDBCF00F00050E56E5F
:102BA00049EC0FF0016EE65201700150E56E0050E5
:102BB000E56EB9EC0AF0E652E652E4CF01F0E4CF5C
:102BC00000F0E4CFD9FF1200E8AE0AD0F3CFEAFF5D
:102BD000EE50EECFF3FFEECFF4FFEECFE9FF1200A1
:102BE000E8BC02EF06F0E9CFF6FFF3CFF7FFF86E8F
:102BF0000900F5500900F5CFF3FF0900F5CFF4FF08
:102C00000900F5CFE9FF120000C0E5FF006A0E01E0
:102C1000AB510E01AC1901E1002A0050D880E866E2
:102C2000D890006A00360050E4CF00F01200D9CFEF
:102C3000E5FFE1CFD9FF020EDBCF85FE030EDBCF30
:102C400086FE040EDBCF87FE050EDBCF88FEE4CFC9
:102C5000D9FF1200D9CFE5FFE1CFD9FF00C0E5FFD2
:102C6000020EDBCF00F0ADA2FED700C0AEFFE4CF76
:102C700000F0E4CFD9FF1200E8AE0BD0F3CFEAFFAB
:102C8000E4CFEEFFF4CFEEFFF6CFEEFFF7CFEEFF8F
:102C90001200E8BC02EF06F01200896A8A6A440E4C
:102CA0008B6E926A936A949094929494949C949E5E
:102CB00012002F0E9212E00E0F01486F1F0E0F012F
:102CC0004913C26ABD0EC16E12000F0148691F0E82
:102CD0000F01496FD26AD16A0F01536B12000100D4
:102CE000EC2C0000800E000009000000000500052B
:102CF00000010000000059EC0CF00EEC06F0120090
:00000001FF
