:020000040000FA
:100C00003AEF0EF00000000000000000183C3C1815
:100C100018001800363600000000000036367F3617
:100C20007F3636000C3E031E301F0C000063331865
:100C30000C6663001C361C6E3B336E000606030018
:100C400000000000180C0606060C1800060C181808
:100C5000180C060000663CFF3C660000000C0C3FD0
:100C60000C0C000000000000000C0C060000003F0F
:100C70000000000000000000000C0C006030180CA8
:100C8000060301003E63737B6F673E000C0E0C0C85
:100C90000C0C3F001E33301C06333F001E33301C4B
:100CA00030331E00383C36337F3078003F031F302E
:100CB00030331E001C06031F33331E003F33301831
:100CC0000C0C0C001E33331E33331E001E33333E18
:100CD00030180E00000C0C00000C0C00000C0C0076
:100CE000000C0C06180C0603060C180000003F0050
:100CF000003F0000060C1830180C06001E33301898
:100D00000C000C003E637B7B7B031E000C1E333308
:100D10003F3333003F66663E66663F003C66030332
:100D200003663C001F36666666361F007F46161E49
:100D300016467F007F46161E16060F003C6603030C
:100D400073667C003333333F333333001E0C0C0C9B
:100D50000C0C1E007830303033331E006766361EB0
:100D6000366667000F06060646667F0063777F7F5C
:100D70006B63630063676F7B736363001C3663633D
:100D800063361C003F66663E06060F001E33333393
:100D90003B1E38003F66663E366667001E33070E10
:100DA00038331E003F2D0C0C0C0C1E003333333334
:100DB00033333F0033333333331E0C006363636BD1
:100DC0007F7763006363361C1C3663003333331E46
:100DD0000C0C1E007F6331184C667F001E06060651
:100DE00006061E0003060C18306040001E18181876
:100DF00018181E00081C36630000000000000000E8
:100E0000000000FF0C0C18000000000000001E3065
:100E10003E336E000706063E66663B0000001E334A
:100E200003331E003830303E33336E0000001E3373
:100E30003F031E001C36060F06060F0000006E332F
:100E4000333E301F0706366E666667000C000E0CD8
:100E50000C0C1E00300030303033331E070666366F
:100E60001E3667000E0C0C0C0C0C1E000000337FAD
:100E70007F6B630000001F333333330000001E33E9
:100E800033331E0000003B66663E060F00006E33E3
:100E9000333E307800003B6E66060F0000003E03D4
:100EA0001E301F00080C3E0C0C2C180000003333C1
:100EB00033336E0000003333331E0C000000636BCD
:100EC0007F7F3600000063361C366300000033333A
:100ED000333E301F00003F190C263F00380C0C0732
:100EE0000C0C38001818180018181800070C0C38CB
:100EF0000C0C07006E3B000000000000000000002A
:100F0000000000007E306D79335B5F707F7B771F60
:100F10000D3D4F47000000000000000000000000F1
:100F200000000000000000000000000000000000C1
:100F3000800180007E306D79335B5F707F7B0000C5
:100F40000000000000771F0D3D4F470037000000F4
:100F50000E0000006700000000000000000000001C
:100F60000000000800771F0D3D4F470037000000CC
:100F70000E000000670000000000000000000000FC
:100F8000000000000102040810204080408001029F
:100F90000401020408200101010101010101020212
:100FA00002020200000000003C7EF8E0E0F87E3C17
:100FB0003C7EFFFFFFFF7E3CE806E56E630EEFEC34
:100FC00007F0E4500BE000D0E56E630EEFEC07F0A5
:100FD00000D000D00000E450E82EF6D71200E8065A
:100FE0000000E85007E000D000D000D000D00000A2
:100FF000E82EFAD71200D9CFE5FFE1CFD9FF00C024
:10100000E5FF01C0E5FF02C0E5FF03C0E5FF04C046
:10101000E5FF020EDBCF00F0030EDBCF01F0960EF2
:101020000024026E036A0F0E0322046A000E0422DB
:1010300002C0F6FF03C0F7FF04C0F8FF0900F5CFB8
:1010400002F0030E025CD8B09AD0FA6AFB6A02344E
:10105000FA36E834FA36FC0B680FE56E100EFA2209
:10106000000EFB22E450F96E3AEF08F067EF08F04B
:1010700094EF08F0015015E0840E0024026E036A1C
:101080000F0E0322046A000E042202C0F6FF03C002
:10109000F7FF04C0F8FF0900F5CF02F002509212EA
:1010A0006ED0840E0024026E036A0F0E0322046ABF
:1010B000000E042202C0F6FF03C0F7FF04C0F8FFD1
:1010C0000900F5CF02F00250FF08921658D00150E7
:1010D00015E0840E0024026E036A0F0E0322046AD8
:1010E000000E042202C0F6FF03C0F7FF04C0F8FFA1
:1010F0000900F5CF02F00250931241D0840E002473
:10110000026E036A0F0E0322046A000E042202C05C
:10111000F6FF03C0F7FF04C0F8FF0900F5CF02F0A7
:101120000250FF0893162BD0015015E0840E0024C6
:10113000016E026A0F0E0222036A000E032201C032
:10114000F6FF02C0F7FF03C0F8FF0900F5CF01F07A
:101150000150941214D0016A026A840E00260F0E08
:101160000122000E022200C0F6FF01C0F7FF02C0FC
:10117000F8FF0900F5CF00F00050FF089416E4CF07
:1011800004F0E4CF03F0E4CF02F0E4CF01F0E4CFC9
:1011900000F0E4CFD9FF1200D9CFE5FFE1CFD9FFAE
:1011A00000C0E5FF01C0E5FF02C0E5FF03C0E5FFA9
:1011B00004C0E5FF020EDBCF00F0030EDBCF01F031
:1011C000960E0024026E036A0F0E0322046A000EBC
:1011D000042202C0F6FF03C0F7FF04C0F8FF0900B5
:1011E000F5CF02F0030E025CD8B09AD0FA6AFB6A1F
:1011F0000234FA36E834FA36FC0B0A0FE56E120EAA
:10120000FA22000EFB22E450F96E0BEF09F038EFE2
:1012100009F065EF09F0015015E0840E0024026E1C
:10122000036A0F0E0322046A000E042202C0F6FFB6
:1012300003C0F7FF04C0F8FF0900F5CF02F0025029
:1012400089126ED0840E0024026E036A0F0E0322F0
:10125000046A000E042202C0F6FF03C0F7FF04C0B8
:10126000F8FF0900F5CF02F00250FF08891658D0A8
:10127000015015E0840E0024026E036A0F0E032253
:10128000046A000E042202C0F6FF03C0F7FF04C088
:10129000F8FF0900F5CF02F002508A1241D0840E07
:1012A0000024026E036A0F0E0322046A000E042259
:1012B00002C0F6FF03C0F7FF04C0F8FF0900F5CF36
:1012C00002F00250FF088A162BD0015015E0840E60
:1012D0000024016E026A0F0E0222036A000E03222E
:1012E00001C0F6FF02C0F7FF03C0F8FF0900F5CF09
:1012F00001F001508B1214D0016A026A840E00269C
:101300000F0E0122000E022200C0F6FF01C0F7FFFF
:1013100002C0F8FF0900F5CF00F00050FF088B165F
:10132000E4CF04F0E4CF03F0E4CF02F0E4CF01F027
:10133000E4CF00F0E4CFD9FF1200D9CFE5FFE1CF31
:10134000D9FF00C0E5FF01C0E5FF02C0E5FF03C013
:10135000E5FF04C0E5FF05C0E5FF06C0E5FF020E9E
:10136000DBCF00F0030EDBCF01F0040EDBCF02F089
:10137000050EDBCF03F001015751005CD8B05FD000
:10138000080E015C03E2080E025CD8B058D0005091
:10139000080DF3CF04F00250E96E800E026EE950A2
:1013A00005E0E86CD8900232010FFDE3035017E02E
:1013B00001500424036E056A000E0326010E052267
:1013C00003C0E9FF05C0EAFFEFCF06F002500612A6
:1013D00003C0E9FF05C0EAFF06C0EFFF17D0021EF9
:1013E00001500424036E056A000E0326010E052237
:1013F00003C0E9FF05C0EAFFEFCF06F00650021672
:1014000003C0E9FF05C0EAFF02C0EFFF0128026E3A
:1014100004500126036A000E0126010E032201C0BA
:10142000E9FF03C0EAFFEFCF01F00150E56E025083
:10143000E56E0050E56E4EEC0BF0030EE126E4CFB6
:1014400006F0E4CF05F0E4CF04F0E4CF03F0E4CFFE
:1014500002F0E4CF01F0E4CF00F0E4CFD9FF1200B6
:10146000D9CFE5FFE1CFD9FF00C0E5FF01C0E5FF1F
:1014700002C0E5FF03C0E5FF020EDBCF00F0960ED1
:101480000024016E026A0F0E0222036A000E03227C
:1014900001C0F6FF02C0F7FF03C0F8FF0900F5CF57
:1014A00001F0030E015CD8B062D0FA6AFB6A013425
:1014B000FA36E834FA36FC0BC80FE56E140EFA2241
:1014C000000EFB22E450F96E6AEF0AF084EF0AF096
:1014D0009EEF0AF0840E0024016E026A0F0E0222B3
:1014E000036A000E032201C0F6FF02C0F7FF03C02B
:1014F000F8FF0900F5CF01F080500116015002E01D
:10150000010E36D0E86A34D0840E0024016E026ADF
:101510000F0E0222036A000E032201C0F6FF02C072
:10152000F7FF03C0F8FF0900F5CF01F08150011665
:10153000015002E0010E1CD0E86A1AD0016A026A6A
:10154000840E00260F0E0122000E022200C0F6FFBC
:1015500001C0F7FF02C0F8FF0900F5CF00F082508C
:101560000016005002E0010E03D0E86A01D0E86ADC
:10157000E4CF03F0E4CF02F0E4CF01F0E4CF00F0D9
:10158000E4CFD9FF1200D9CFE5FFE1CFD9FF00C0EA
:10159000E5FF01C0E5FF02C0E5FF020EDBCF00F072
:1015A000030EDBCF55F1040EDBCF56F1050EDBCF7A
:1015B00001F000C054F1015003E0090E015C02E3A8
:1015C000080E016E01C057F1E56A01015451E56E44
:1015D000FBEC07F0E652E652E56A01015551E56E73
:1015E000FBEC07F0E652E652E56A01015651E56E62
:1015F000FBEC07F0E652E652010EE56E0101565192
:10160000E56ECCEC08F0E652E65200C054F1006AF8
:10161000000E0024016E026A010E022201C0E9FFE1
:1016200002C0EAFFEF6A002A400E005CF1E3006AA4
:1016300001015751005C29E2E56A0F0EE56E00508A
:10164000E56E4EEC0BF0030EE126070EE56E005042
:10165000E56E16EC10F0E652E652E56A090EE56E0C
:101660000050E56E4EEC0BF0030EE1260050E56EE7
:1016700091EC0EF0E652010EE56E0050E56E71EC55
:101680000FF0E652E652002AD3D7E4CF02F0E4CFBF
:1016900001F0E4CF00F0E4CFD9FF1200D9CFE5FF8D
:1016A000E1CFD9FF00C0E5FF01C0E5FF02C0E5FFC3
:1016B00003C0E5FF04C0E5FF020EDBCF00F0030E20
:1016C000DBCF58F1040EDBCF59F10050020DF3CF00
:1016D00000F001015751020DF3CF01F0026A0150F1
:1016E000025C0DE2400E0224036E046A010E042225
:1016F00003C0E9FF04C0EAFFEF6A022AF0D700281E
:10170000026E036A400E0226010E032202C0E9FFA8
:1017100003C0EAFF58C1EFFF026A400E0026010E27
:10172000022200C0E9FF02C0EAFF59C1EFFFE56AEB
:1017300001015651E56ECCEC08F0E652E65201C0CC
:1017400000F000501FE00004016E400E0124026E04
:10175000036A010E032202C0E9FF03C0EAFFEFCFD4
:1017600002F00250E56E650EE56E01015551E56E21
:1017700001015451E56ED8EC0BF0040EE12601C0D6
:1017800000F0DFD7010EE56E01015651E56ECCEC9D
:1017900008F0E652E652E4CF04F0E4CF03F0E4CFE1
:1017A00002F0E4CF01F0E4CF00F0E4CFD9FF120063
:1017B000D9CFE5FFE1CFD9FF00C0E5FF01C0E5FFCC
:1017C00002C0E5FF03C0E5FF04C0E5FF05C0E5FF7B
:1017D00006C0E5FF020EDBCF00F0030EDBCF01F009
:1017E000040EDBCF02F0050EDBCF03F00250640ADB
:1017F00003E1026A022A01D0026A046A02500AE086
:10180000010E056E045012E0E86CD8900536010F09
:10181000FDE30CD004500708066E010E056E06505D
:1018200005E0E86CD8900536010FFDE3035005167E
:10183000055003E0010E056E01D0056A0550E56E06
:101840000050E56ECCEC08F0E652E652010EE56E73
:101850000150E56ECCEC08F0E652E652E56A015024
:10186000E56ECCEC08F0E652E652042A080E045C61
:10187000D8A0C4D7E4CF06F0E4CF05F0E4CF04F05D
:10188000E4CF03F0E4CF02F0E4CF01F0E4CF00F0C6
:10189000E4CFD9FF1200D9CFE5FFE1CFD9FF00C0D7
:1018A000E5FF01C0E5FF02C0E5FF03C0E5FF04C09E
:1018B000E5FF05C0E5FF06C0E5FF020EDBCF00F047
:1018C000030EDBCF01F0040EDBCF02F0050EDBCF01
:1018D00003F001015751005C37E2080E015C34E26D
:1018E000100E025CD8B030D00050080DF3CF04F0D9
:1018F000056A066A040E02260F0E0522000E062255
:1019000002C0F6FF05C0F7FF06C0F8FF0900F5CFDB
:1019100002F00350D8A4028E01500426036A000E80
:101920000426010E032204C0E9FF03C0EAFF02C03F
:10193000EFFF012A0250E56E0150E56E0050E56EA2
:101940004EEC0BF0030EE126E4CF06F0E4CF05F0F9
:10195000E4CF04F0E4CF03F0E4CF02F0E4CF01F0F1
:10196000E4CF00F0E4CFD9FF1200D9CFE5FFE1CFFB
:10197000D9FF00C0E5FF01C0E5FF02C0E5FF03C0DD
:10198000E5FF04C0E5FF05C0E5FF06C0E5FF020E68
:10199000DBCF00F00050080DF450016EF3CF00F0E3
:1019A000026AA80E00260F0E0122000E0222036A10
:1019B00003500024046EE86A0120056EE86A0220E4
:1019C000066E04C0F6FF05C0F7FF06C0F8FF090069
:1019D000F5CF04F00450E56E0350E56E000EE56AA5
:1019E000DFEC0DF0030EE126032A080E035CE0E3B2
:1019F000E56AC80EE56EA0EC0FF0E652E652006A0A
:101A0000E56A0050E56E000EE56ADFEC0DF0030EAE
:101A1000E126002A080E005CF3E3E4CF06F0E4CFF1
:101A200005F0E4CF04F0E4CF03F0E4CF02F0E4CF1C
:101A300001F0E4CF00F0E4CFD9FF1200D9CFE5FFE9
:101A4000E1CFD9FF00C0E5FF01C0E5FF02C0E5FF1F
:101A500003C0E5FF04C0E5FF05C0E5FF06C0E5FFE4
:101A6000020EDBCF00F0030EDBCF01F0040EDBCF64
:101A700002F0050EDBCF03F001015751005C33E2A9
:101A8000080E015C30E20050080DF3CF04F0056A47
:101A9000066A040E02260F0E0522000E062202C060
:101AA000F6FF05C0F7FF06C0F8FF0900F5CF02F00A
:101AB0000350D8A4028E01500426036A000E0426A7
:101AC000010E032204C0E9FF03C0EAFF02C0EFFFDA
:101AD000012A0250E56E0150E56E0050E56E4EECB5
:101AE0000BF0030EE126E4CF06F0E4CF05F0E4CFDF
:101AF00004F0E4CF03F0E4CF02F0E4CF01F0E4CF50
:101B000000F0E4CFD9FF1200D9CFE5FFE1CFD9FF34
:101B100000C0E5FF01C0E5FF02C0E5FF03C0E5FF2F
:101B200004C0E5FF05C0E5FF06C0E5FF07C0E5FF0F
:101B3000020EDBCF00F0030EDBCF01F00150080DE9
:101B4000F450026EF3CF01F0036A03500708046EED
:101B5000015001015125056E02505221066EE86ABE
:101B60005321076E03500526E86A0622E86A072219
:101B700005C0E9FF06C0F3FF0750CFEC10F0E56E9B
:101B80000450E56E0050E56EDFEC0DF0030EE1262B
:101B9000032A080E035CD9E3E4CF07F0E4CF06F094
:101BA000E4CF05F0E4CF04F0E4CF03F0E4CF02F09B
:101BB000E4CF01F0E4CF00F0E4CFD9FF1200D9CF99
:101BC000E5FFE1CFD9FF00C0E5FF01C0E5FF02C09E
:101BD000E5FF03C0E5FF04C0E5FF05C0E5FF020E19
:101BE000DBCF00F0030EDBCF01F0040EDBCF02F001
:101BF00001015751005C2FE2080E015C2CE2036AE0
:101C000003C004F0056A04500708046E000E055670
:101C10000450E96E02C004F0E9500BE006E6E86CFF
:101C2000D8900432010FFDE304D0D8900436010FA0
:101C3000FDE3010E04160450E56E0150E56E0350FD
:101C4000E56E0050E56E9DEC09F0040EE126032AD6
:101C5000080E035CD5E3E4CF05F0E4CF04F0E4CF55
:101C600003F0E4CF02F0E4CF01F0E4CF00F0E4CFE2
:101C7000D9FF120014EEFFF024EEFFF0F86AA68EF2
:101C8000A69CBF0EE96E0E0EEA6E0068ED6A00506B
:101C9000FDE1060EF66E220EF76E000EF86E0900DC
:101CA000F5CF05F00900F5CF06F034D00900F5CFE7
:101CB00000F00900F5CF01F00900F5CF02F00900AE
:101CC0000900F5CFE9FF0900F5CFEAFF0900090097
:101CD0000900F5CF03F00900F5CF04F00900090071
:101CE000F6CF07F0F7CF08F0F8CF09F000C0F6FF05
:101CF00001C0F7FF02C0F8FF03D00900F5CFEEFFE7
:101D00000306FBE20406F9E207C0F6FF08C0F7FF8E
:101D100009C0F8FF0506CAE20606C8E25BEC10F04F
:101D2000FFD7D9CFE5FFE1CFD9FF00C0E5FF01C064
:101D3000E5FF02C0E5FF03C0E5FF04C0E5FF05C005
:101D4000E5FF020EDBCF00F001015751005C29E2F4
:101D50000050080DF3CF01F0026A02500124036E17
:101D6000046A000E0326010E042203C0E9FF04C02A
:101D7000EAFFEF6A0228056E03C0E9FF04C0EAFF2C
:101D8000EFCF03F00350E56E0550E56E0050E56EB1
:101D90004EEC0BF0030EE12605C002F0080E025CCB
:101DA000DCE3E4CF05F0E4CF04F0E4CF03F0E4CFCC
:101DB00002F0E4CF01F0E4CF00F0E4CFD9FF12004D
:101DC000D9CFE5FFE1CFD9FF00C0E5FF01C0E5FFB6
:101DD00002C0E5FF03C0E5FF04C0E5FF020EDBCF54
:101DE00000F0030EDBCF01F0040EDBCF02F0050E96
:101DF000DBCF03F001C0E9FF02C0F3FF0350CFECDB
:101E000010F0046E045019E0E00E04260450E56E54
:101E10000050E56E84EC0DF0E652E652010EE56EE0
:101E20002C0EE56EA0EC0FF0E652E652BEEC10F080
:101E3000012AE0E3024A032ADDD7E4CF04F0E4CF2D
:101E400003F0E4CF02F0E4CF01F0E4CF00F0E4CF00
:101E5000D9FF1200D9CFE5FFE1CFD9FF00C0E5FFE0
:101E600001C0E5FF02C0E5FF03C0E5FF04C0E5FFD8
:101E7000020EDBCF00F0030EDBCF01F0040EDBCF50
:101E800002F001015751005C1FE2080E015C1CE2E8
:101E90000050080DF3CF03F001500326046A000E32
:101EA0000326010E042203C0E9FF04C0EAFF02C0BA
:101EB000EFFF012A0250E56E0150E56E0050E56E1D
:101EC0004EEC0BF0030EE126E4CF04F0E4CF03F078
:101ED000E4CF02F0E4CF01F0E4CF00F0E4CFD9FF8B
:101EE0001200D9CFE5FFE1CFD9FF00C0E5FF01C067
:101EF000E5FF020EDBCF00F0030EDBCF01F00101A6
:101F00005751005C16E201500AE0E56A0C0EE56EDE
:101F10000050E56E4EEC0BF0030EE1260AD0010EE8
:101F2000E56E0C0EE56E0050E56E4EEC0BF0030E08
:101F3000E126E4CF01F0E4CF00F0E4CFD9FF1200B6
:101F4000D9CFE5FFE1CFD9FF00C0E5FF01C0E5FF34
:101F500002C0E5FF03C0E5FF020EDBCF00F0030E79
:101F6000DBCF01F0026A036A0150035C02E100501A
:101F7000025C06E20C0EDCEC07F0024A032AF4D7FE
:101F8000E4CF03F0E4CF02F0E4CF01F0E4CF00F0BF
:101F9000E4CFD9FF1200D9CFE5FFE1CFD9FF00C0D0
:101FA000E5FF01C0E5FF02C0E5FF03C0E5FF020E4B
:101FB000DBCF00F0030EDBCF01F0026A036A0150B1
:101FC000035C02E10050025C03E2024A032AF7D7F5
:101FD000E4CF03F0E4CF02F0E4CF01F0E4CF00F06F
:101FE000E4CFD9FF1200D9CFE5FFE1CFD9FF00C080
:101FF000E5FF01C0E5FF020EDBCF00F0030EDBCFF3
:1020000001F001015751005C0AE20150E56E0A0E31
:10201000E56E0050E56E4EEC0BF0030EE126E4CFCA
:1020200001F0E4CF00F0E4CFD9FF1200D9CFE5FFF3
:10203000E1CFD9FF00C0E5FF01C0E5FF020EDBCF15
:1020400000F0030EDBCF01F001015751005C0AE202
:102050000150E56E0B0EE56E0050E56E4EEC0BF098
:10206000030EE126E4CF01F0E4CF00F0E4CFD9FF86
:102070001200550EA76EAA0EA76E0E01FF91040E58
:102080000E01F66F050E0E01C96F060E0E01FB6FF5
:102090000A0E0E01CB6F090E0E01CA6F0E0E0E0155
:1020A000D16F120E0E01D26F550EA76EAA0EA76E3B
:1020B0000E01FF811200D0B202D0930ED0129B8C81
:1020C000580E006E020E016E00C002F001C003F057
:1020D000FF0E0026012202500310F6E1F29EF29C50
:1020E000E0EC10F0F9EC10F039EC10F07CEC10F0B2
:1020F000EEEC10F0FDD71200010EE56E020EE56E5B
:10210000010EE56E000EE56AC3EC0AF0040EE1264E
:10211000000EE56AE56A71EC0FF0E652E652080E31
:10212000E56E000EE56AF3EC0FF0E652E652000EA3
:10213000E56A91EC0EF0E6521200D9CFE5FFE1CF4F
:10214000D9FF00C0E5FF01C0E5FF020EDBCF00F0C4
:102150000050E56E30EC0AF0016EE652017001505D
:10216000E56E0050E56ECCEC08F0E652E652E4CFA6
:1021700001F0E4CF00F0E4CFD9FF120000C0E5FF8A
:10218000006A01015751005C07E20050E56E91ECD6
:102190000EF0E652002AF5D7E4CF00F01200E8AEC8
:1021A00004D0F3CFEAFFEE501200E8BC0FEF11F0BD
:1021B000E9CFF6FFF3CFF7FFF86E0900F5501200F4
:1021C000896A8A6A8B6A926A936A949094929494C8
:1021D000949C949E806A816A826A1200000EE56A6D
:1021E000B5EC0CF0E652010EE56EB5EC0CF0E652E3
:1021F00012000F0148691F0E0F01496FD26AD16AA0
:102200000F01536B120001001A2200005001000060
:102210000400000001015751120000040C001200DC
:00000001FF
