:020000040000FA
:100C000006EF0FF0D9CFE5FFE1CFD9FF00C0E5FF38
:100C100001C0E5FF02C0E5FF03C0E5FF04C0E5FF3A
:100C200005C0E5FF06C0E5FF07C0E5FF020EDBCF0C
:100C300000F0030EDBCF01F0040EDBCF02F0050E57
:100C4000DBCF03F0060EDBCF04F0070EDBCF05F0A1
:100C5000080EDBCF06F0090EDBCF07F000500E01C7
:100C60001D6F01501E6F02501F6F0350206F045004
:100C70000E01216F0550226F0650236F0750246F1D
:100C80000E011D510E012303F4CF01F0F3CF00F04C
:100C900000500E01276F0150286F0E011D510E01EB
:100CA0002103F4CF01F0F3CF00F000500E01256FC7
:100CB0000150266F0E0120510E012103F3CF00F0E9
:100CC0000E01285100260050286F0E011F510E0101
:100CD0002203F3CF00F00E01285100260050286FA8
:100CE0000E011F510E012103F4CF01F0F3CF00F0EC
:100CF0000E0127510026285101220050276F015074
:100D0000286F0E011E510E012203F4CF01F0F3CF24
:100D100000F00E0127510026285101220050276FB4
:100D20000150286F0E011E510E012303F3CF00F076
:100D300000500E012C6F0E011E510E012103F4CF45
:100D400001F0F3CF00F000500E012A6F01502B6F1D
:100D50000E011D510E012403F3CF00F000500E01CF
:100D6000306F0E011D510E012203F4CF01F0F3CFBD
:100D700000F000500E012E6F01502F6F0E01296BF5
:100D80000E012D6B0E0129510E012525006E0E015D
:100D90002A510E012621016E0E012B510E01272131
:100DA000026E0E012C510E012821036E0050256F9A
:100DB0000150266F0250276F0350286F0E012D51EE
:100DC0000E012525006E0E012E510E012621016E09
:100DD0000E012F510E012721026E0E0130510E011E
:100DE0002821036E03C0E9FF02C0F4FF01C0F3FF36
:100DF0000050E4CF07F0E4CF06F0E4CF05F0E4CFF5
:100E000004F0E4CF03F0E4CF02F0E4CF01F0E4CF4C
:100E100000F0E4CFD9FF1200D9CFE5FFE1CFD9FF31
:100E200000C0E5FF01C0E5FF02C0E5FF03C0E5FF2C
:100E300004C0E5FF05C0E5FF06C0E5FF07C0E5FF0C
:100E400008C0E5FF09C0E5FF0AC0E5FF0BC0E5FFEC
:100E50000CC0E5FF0DC0E5FF0EC0E5FF0FC0E5FFCC
:100E600010C0E5FF11C0E5FF12C0E5FF13C0E5FFAC
:100E7000020EDBCF00F0030EDBCF01F0040EDBCF60
:100E800002F0050EDBCF03F0060EDBCF04F0070EF9
:100E9000DBCF05F0080EDBCF06F0090EDBCF07F045
:100EA0000A0EDBCF08F00B0EDBCF09F00C0EDBCF08
:100EB0000AF00D0EDBCF0BF00E0EDBCF0CF00F0E99
:100EC000DBCF0DF0100EDBCF0EF0110EDBCF0FF0ED
:100ED000120EDBCF10F0130EDBCF11F0140EDBCFB0
:100EE00012F0150EDBCF13F00450005E0550015ACE
:100EF0000650025A0750035A0C50105E0D50115AFA
:100F00000E50125A0F50135A1350E56E1250E56EE0
:100F10001150E56E1050E56E0350E56E0250E56E1F
:100F20000150E56E0050E56E02EC06F0006EF3CF66
:100F300001F0F4CF02F0E9CF03F0080EE1260450EF
:100F4000085C046E05500958056E06500A58066E76
:100F500007500B58E56E0650E56E0550E56E0450DF
:100F6000E56E0350E56E0250E56E0150E56E0050EF
:100F7000E56E73EC0AF0006EF3CF01F0F4CF02F0EF
:100F8000E9CF03F0080EE12600500C2601500D2297
:100F900002500E2203500F220FC0E9FF0EC0F4FFD3
:100FA0000DC0F3FF0C50E4CF13F0E4CF12F0E4CF08
:100FB00011F0E4CF10F0E4CF0FF0E4CF0EF0E4CF67
:100FC0000DF0E4CF0CF0E4CF0BF0E4CF0AF0E4CF67
:100FD00009F0E4CF08F0E4CF07F0E4CF06F0E4CF67
:100FE00005F0E4CF04F0E4CF03F0E4CF02F0E4CF67
:100FF00001F0E4CF00F0E4CFD9FF120000C0E5FF1C
:1010000001C0E5FF02C0E5FF03C0E5FF04C0E5FF46
:1010100005C0E5FF06C0E5FF07C0E5FF08C0E5FF26
:1010200009C0E5FFD60EF66E210EF76E000EF86EC3
:101030000900F5CF00F00900F5CF01F00050E56E92
:10104000ACEC0FF0006EF3CF01F0E652E86A01BE9F
:10105000FF0E026E036ED80EF66E210EF76E000EB6
:10106000F86E0900F5CF04F00900F5CF05F0E86A45
:1010700005BEFF0E066EE56E0650E56E0550E56E88
:101080000450E56EE56AE56AE56AE56AE56AE56ADF
:10109000030EE56EE568E56AE56AE56AE56A035010
:1010A000E56E0250E56E0150E56E0050E56E0CEC09
:1010B00007F0006EF3CF01F0140EE126026A036A16
:1010C000046A056A066A076AD80EF66E210EF76E84
:1010D000000EF86E0900F5CF08F00900F5CF09F011
:1010E0000350800FF36E0950800FF35C02E108504B
:1010F000025CD8B041D00350800FF36E0150800FD6
:10110000F35C02E10050025C17E2010E0624086E57
:101110000E0E0720096E08C0E9FF09C0EAFFEECFF6
:1011200008F0EFCF09F0010EE56E0850E56EA2EC75
:1011300009F0E652E65215D0010E0424086E0E0E98
:101140000520096E08C0E9FF09C0EAFFEECF08F0EC
:10115000EFCF09F0E56A0850E56EA2EC09F0E6521F
:10116000E652020E0426D8B0052A020E0626D8B092
:10117000072A024A032AA8D7E4CF09F0E4CF08F0EF
:10118000E4CF07F0E4CF06F0E4CF05F0E4CF04F0BD
:10119000E4CF03F0E4CF02F0E4CF01F0E4CF00F0BD
:1011A0001200D9CFE5FFE1CFD9FF00C0E5FF01C0B4
:1011B000E5FF02C0E5FF03C0E5FF04C0E5FF020E46
:1011C000DBCF00F0030EDBCF01F0C40E0024026E73
:1011D000036A210E0322046A000E042202C0F6FFF5
:1011E00003C0F7FF04C0F8FF0900F5CF02F0030EBB
:1011F000025CD8B09AD0FA6AFB6A0234FA36E83454
:10120000FA36FC0B140FE56E120EFA22000EFB22CA
:10121000E450F96E10EF09F03DEF09F06AEF09F0C4
:10122000015015E0B20E0024026E036A210E032263
:10123000046A000E042202C0F6FF03C0F7FF04C0D8
:10124000F8FF0900F5CF02F0025092126ED0B20EF4
:101250000024026E036A210E0322046A000E042297
:1012600002C0F6FF03C0F7FF04C0F8FF0900F5CF86
:1012700002F00250FF08921658D0015015E0B20E4D
:101280000024026E036A210E0322046A000E042267
:1012900002C0F6FF03C0F7FF04C0F8FF0900F5CF56
:1012A00002F00250931241D0B20E0024026E036A83
:1012B000210E0322046A000E042202C0F6FF03C0BE
:1012C000F7FF04C0F8FF0900F5CF02F00250FF0855
:1012D00093162BD0015015E0B20E0024016E026A65
:1012E000210E0222036A000E032201C0F6FF02C093
:1012F000F7FF03C0F8FF0900F5CF01F00150941289
:1013000014D0016A026AB20E0026210E0122000EDC
:10131000022200C0F6FF01C0F7FF02C0F8FF09007B
:10132000F5CF00F00050FF089416E4CF04F0E4CFAE
:1013300003F0E4CF02F0E4CF01F0E4CF00F0E4CF1B
:10134000D9FF1200D9CFE5FFE1CFD9FF00C0E5FFFB
:1013500001C0E5FF02C0E5FF03C0E5FF04C0E5FFF3
:10136000020EDBCF00F0030EDBCF01F0C40E002431
:10137000026E036A210E0322046A000E042202C0D8
:10138000F6FF03C0F7FF04C0F8FF0900F5CF02F035
:10139000030E025CD8B09AD0FA6AFB6A0234FA36BD
:1013A000E834FA36FC0BB60FE56E130EFA22000E87
:1013B000FB22E450F96EE1EF09F00EEF0AF03BEF8B
:1013C0000AF0015015E0B20E0024026E036A210EED
:1013D0000322046A000E042202C0F6FF03C0F7FFD6
:1013E00004C0F8FF0900F5CF02F0025089126ED058
:1013F000B20E0024026E036A210E0322046A000E5C
:10140000042202C0F6FF03C0F7FF04C0F8FF090082
:10141000F5CF02F00250FF08891658D0015015E0B0
:10142000B20E0024026E036A210E0322046A000E2B
:10143000042202C0F6FF03C0F7FF04C0F8FF090052
:10144000F5CF02F002508A1241D0B20E0024026E93
:10145000036A210E0322046A000E042202C0F6FF72
:1014600003C0F7FF04C0F8FF0900F5CF02F00250F7
:10147000FF088A162BD0015015E0B20E0024016E31
:10148000026A210E0222036A000E032201C0F6FF47
:1014900002C0F7FF03C0F8FF0900F5CF01F00150CB
:1014A0008B1214D0016A026AB20E0026210E0122AC
:1014B000000E022200C0F6FF01C0F7FF02C0F8FFD5
:1014C0000900F5CF00F00050FF088B16E4CF04F0C0
:1014D000E4CF03F0E4CF02F0E4CF01F0E4CF00F07A
:1014E000E4CFD9FF1200D9CFE5FFE1CFD9FF00C08B
:1014F000E5FF01C0E5FF02C0E5FF03C0E5FF04C052
:10150000E5FF05C0E5FF06C0E5FF07C0E5FF08C031
:10151000E5FF09C0E5FF0AC0E5FF0BC0E5FF0CC011
:10152000E5FF0DC0E5FF020EDBCF00F0030EDBCFC1
:1015300001F0040EDBCF02F0050EDBCF03F0060E48
:10154000DBCF04F0070EDBCF05F0080EDBCF06F093
:10155000090EDBCF07F0D88003AED890086A0836B2
:1015600008500FE0031C0C6E021C0B6E011C0A6E6F
:10157000001C096E092A0DE10A2A0BE10B4A0C2A0C
:1015800008D000C009F001C00AF002C00BF003C08F
:101590000CF0D88007AED890006A003600500FE0FB
:1015A000071C0D6E061C036E051C026E041C016EEA
:1015B000012A0DE1022A0BE1034A0D2A08D004C0DA
:1015C00001F005C002F006C003F007C00DF00D5099
:1015D000E56E0350E56E0250E56E0150E56E0C506D
:1015E000E56E0B50E56E0A50E56E0950E56E38EC7D
:1015F0000DF0016EF3CF02F0F4CF03F0E9CF04F069
:10160000080EE1260050081A085016E0041C076E68
:10161000031C066E021C056E011C006E002A04E10C
:10162000052A02E1064A072A07C0E9FF06C0F4FFBF
:1016300005C0F3FF005007D004C0E9FF03C0F4FF6A
:1016400002C0F3FF0150E4CF0DF0E4CF0CF0E4CF83
:101650000BF0E4CF0AF0E4CF09F0E4CF08F0E4CFD8
:1016600007F0E4CF06F0E4CF05F0E4CF04F0E4CFD8
:1016700003F0E4CF02F0E4CF01F0E4CF00F0E4CFD8
:10168000D9FF1200D9CFE5FFE1CFD9FF00C0E5FFB8
:1016900001C0E5FF02C0E5FF03C0E5FF04C0E5FFB0
:1016A00005C0E5FF06C0E5FF07C0E5FF08C0E5FF90
:1016B00009C0E5FF0AC0E5FF0BC0E5FF0CC0E5FF70
:1016C000020EDBCF00F0030EDBCF01F0040EDBCF08
:1016D00002F0050EDBCF03F0060EDBCF04F0070EA1
:1016E000DBCF05F0080EDBCF06F0090EDBCF07F0ED
:1016F000D88003AED890086A083608500FE0031C63
:101700000C6E021C0B6E011C0A6E001C096E092A6D
:101710000DE10A2A0BE10B4A0C2A08D000C009F09F
:1017200001C00AF002C00BF003C00CF0D88007AE75
:10173000D8900FE3071C036E061C026E051C016E99
:10174000041C006E002A0DE1012A0BE1024A032A63
:1017500008D004C000F005C001F006C002F007C0C8
:1017600003F00350E56E0250E56E0150E56E005047
:10177000E56E0C50E56E0B50E56E0A50E56E0950B3
:10178000E56E08EC0CF0006EF3CF01F0F4CF02F040
:10179000E9CF03F0080EE126085016E0031C076E9F
:1017A000021C066E011C056E001C046E042A04E176
:1017B000052A02E1064A072A07C0E9FF06C0F4FF2E
:1017C00005C0F3FF045007D003C0E9FF02C0F4FFD7
:1017D00001C0F3FF0050E4CF0CF0E4CF0BF0E4CFF6
:1017E0000AF0E4CF09F0E4CF08F0E4CF07F0E4CF4B
:1017F00006F0E4CF05F0E4CF04F0E4CF03F0E4CF4B
:1018000002F0E4CF01F0E4CF00F0E4CFD9FF120002
:10181000D9CFE5FFE1CFD9FF00C0E5FF01C0E5FF6B
:1018200002C0E5FF03C0E5FF04C0E5FF05C0E5FF1A
:1018300006C0E5FF07C0E5FF08C0E5FF09C0E5FFFA
:101840000AC0E5FF020EDBCF00F0030EDBCF01F094
:10185000040EDBCF02F0050EDBCF03F0060EDBCF6C
:1018600004F0070EDBCF05F0080EDBCF06F0090E03
:10187000DBCF07F0086A045005100610071005E1D9
:10188000E968F468F368E86847D0096A0750800B94
:10189000E8440A6E0A501BE1045004260536063659
:1018A00007360750035C08E10650025C05E105506D
:1018B000015C02E10450005C06E2D8900732063277
:1018C0000532043204D0092A09C008F0DFD70750D6
:1018D000035C08E10650025C05E10550015C02E191
:1018E0000450005C08E30450005E0550015A0650A5
:1018F000025A0750035AD890073206320532043292
:1019000008C009F008060950E2E103C0E9FF02C07F
:10191000F4FF01C0F3FF0050E4CF0AF0E4CF09F078
:10192000E4CF08F0E4CF07F0E4CF06F0E4CF05F011
:10193000E4CF04F0E4CF03F0E4CF02F0E4CF01F011
:10194000E4CF00F0E4CFD9FF1200D9CFE5FFE1CF1B
:10195000D9FF00C0E5FF01C0E5FF02C0E5FF03C0FD
:10196000E5FF020EDBCF00F0C40E0024016E026A18
:10197000210E0222036A000E032201C0F6FF02C0FC
:10198000F7FF03C0F8FF0900F5CF01F0030E015C7B
:10199000D8B062D0FA6AFB6A0134FA36E834FA3613
:1019A000FC0BB20FE56E190EFA22000EFB22E4507A
:1019B000F96EDFEF0CF0F9EF0CF013EF0DF0B20E53
:1019C0000024016E026A210E0222036A000E032225
:1019D00001C0F6FF02C0F7FF03C0F8FF0900F5CF12
:1019E00001F080500116015002E0010E36D0E86A85
:1019F00034D0B20E0024016E026A210E0222036A64
:101A0000000E032201C0F6FF02C0F7FF03C0F8FF7B
:101A10000900F5CF01F081500116015002E0010EDE
:101A20001CD0E86A1AD0016A026AB20E0026210EA2
:101A30000122000E022200C0F6FF01C0F7FF02C023
:101A4000F8FF0900F5CF00F082500016005002E0C8
:101A5000010E03D0E86A01D0E86AE4CF03F0E4CFD6
:101A600002F0E4CF01F0E4CF00F0E4CFD9FF1200A0
:101A7000D9CFE5FFE1CFD9FF00C0E5FF01C0E5FF09
:101A800002C0E5FF03C0E5FF04C0E5FF05C0E5FFB8
:101A900006C0E5FF07C0E5FF08C0E5FF09C0E5FF98
:101AA0000AC0E5FF0BC0E5FF0CC0E5FF0DC0E5FF78
:101AB000020EDBCF00F0030EDBCF01F0040EDBCF14
:101AC00002F0050EDBCF03F0060EDBCF04F0070EAD
:101AD000DBCF05F0080EDBCF06F0090EDBCF07F0F9
:101AE000086A096A0A6A0B6A200E0C6E0350800BA2
:101AF000E8440D6E005000260136023603360850C9
:101B0000082609360A360B360D50D8A4088007502F
:101B10000B5C08E106500A5C05E10550095C02E136
:101B20000450085C09E30450085E0550095A065049
:101B30000A5A07500B5A00800C2ED8D703C0E9FF71
:101B400002C0F4FF01C0F3FF0050E4CF0DF0E4CF7A
:101B50000CF0E4CF0BF0E4CF0AF0E4CF09F0E4CFCF
:101B600008F0E4CF07F0E4CF06F0E4CF05F0E4CFCF
:101B700004F0E4CF03F0E4CF02F0E4CF01F0E4CFCF
:101B800000F0E4CFD9FF1200D9CFE5FFE1CFD9FFB4
:101B900000C0E5FF01C0E5FF02C0E5FF03C0E5FFAF
:101BA00004C0E5FF05C0E5FF06C0E5FF020EDBCF80
:101BB00000F0030EDBCF01F0040EDBCF02F000C01B
:101BC000E9FF01C0F3FF0250B9EC10F0036EF3CF50
:101BD00004F0F4CF05F0E9CF06F00650E56E0550AD
:101BE000E56E0450E56E0350E56E410EE56EC60EDF
:101BF000E56E4E0EE56E6D0EE56E02EC06F0036EC0
:101C0000F3CF04F0F4CF05F0E9CF06F0080EE1269B
:101C1000390E0326300E0422000E0522062203C0D0
:101C2000E5FF04C0F4FF05C0F6FF06C0F7FF00C0E3
:101C3000E9FF01C0F3FF025000EC11F0069E06C060
:101C4000E9FF05C0F4FF04C0F3FF0350E4CF06F042
:101C5000E4CF05F0E4CF04F0E4CF03F0E4CF02F0EA
:101C6000E4CF01F0E4CF00F0E4CFD9FF1200D9CFE8
:101C7000E5FFE1CFD9FF00C0E5FF01C0E5FF02C0ED
:101C8000E5FF03C0E5FF04C0E5FF05C0E5FF06C0B2
:101C9000E5FF020EDBCF00F0030EDBCF01F0040EF8
:101CA000DBCF02F000C0E9FF01C0F3FF0250B9EC46
:101CB00010F00E01196FF3CF1AFEF4CF1BFEE9CF1F
:101CC0001CFE800EE56E0E0EE56E190EE56EC4EC80
:101CD0000DF0036EF3CF04F0F4CF05F0E9CF06F07A
:101CE000030EE12603C0E5FF04C0F4FF05C0F6FFC4
:101CF00006C0F7FF00C0E9FF01C0F3FF025000EC8F
:101D000011F000C0E9FF01C0F3FF0250B9EC10F080
:101D1000F3CF01F0F4CF02F0E9CF03F003C0E9FF05
:101D200002C0F4FF01C0F3FFE4CF06F0E4CF05F0FA
:101D3000E4CF04F0E4CF03F0E4CF02F0E4CF01F00D
:101D4000E4CF00F0E4CFD9FF1200D9CFE5FFE1CF17
:101D5000D9FF00C0E5FF01C0E5FF02C0E5FF03C0F9
:101D6000E5FF04C0E5FF05C0E5FF06C0E5FF07C0CD
:101D7000E5FF08C0E5FF020EDBCF00F0030EDBCF6E
:101D800001F0040EDBCF02F0050EDBCF03F02AECEE
:101D900010F0046EF3CF05F0F4CF06F0E9CF07F0B2
:101DA000E86A03BEFF0E086EE56E0850E56E03504C
:101DB000E56E0250E56E0750E56E0650E56E055083
:101DC000E56E0450E56E42EC0BF0026EF3CF03F0CB
:101DD000080EE126005002260150032203C0F3FF43
:101DE0000250E4CF08F0E4CF07F0E4CF06F0E4CFF0
:101DF00005F0E4CF04F0E4CF03F0E4CF02F0E4CF49
:101E000001F0E4CF00F0E4CFD9FF120018EEFFF0AC
:101E100028EEFFF0F86AA68EA69CBF0EE96E0E0EA5
:101E2000EA6E0068ED6A0050FDE17E0EF66E220E4D
:101E3000F76E000EF86E0900F5CF05F00900F5CF3A
:101E400006F034D00900F5CF00F00900F5CF01F01D
:101E50000900F5CF02F009000900F5CFE9FF0900FC
:101E6000F5CFEAFF090009000900F5CF03F00900EA
:101E7000F5CF04F009000900F6CF07F0F7CF08F01E
:101E8000F8CF09F000C0F6FF01C0F7FF02C0F8FF6D
:101E900003D00900F5CFEEFF0306FBE20406F9E2EA
:101EA00007C0F6FF08C0F7FF09C0F8FF0506CAE241
:101EB0000606C8E253EC10F0FFD700C0E5FF01C0F2
:101EC000E5FF02C0E5FF03C0E5FF04C0E5FF05C074
:101ED000E5FF006A016A026A036AD80EF66E210EF7
:101EE000F76E000EF86E0900F5CF04F00900F5CF8B
:101EF00005F00150800FF36E0550800FF35C02E196
:101F00000450005C1CE2010E0224046E0E0E03203D
:101F1000056E04C0E9FF05C0EAFFEECF04F0EFCF85
:101F200005F0E56A0450E56ED1EC08F0E652E652A1
:101F3000020E0226D8B0032A004A012ACED7E4CFE7
:101F400005F0E4CF04F0E4CF03F0E4CF02F0E4CFF7
:101F500001F0E4CF00F01200D9CFE5FFE1CFD9FFC7
:101F600000C0E5FF01C0E5FF02C0E5FF03C0E5FFDB
:101F7000020EDBCF00F00D0E005C0AE3120E005CD7
:101F800007E2F30E0024016E040DF3CFC2FF07D069
:101F9000060E005C04E20050040DF3CFC2FFC280C5
:101FA000090E006E016A0000FF0E0026012200509B
:101FB0000110F9E1C282C2B2FED7C4CF00F0016ABB
:101FC0000050036E026AC3CF00F0016A005002267F
:101FD00001500322C29003C0F3FF0250E4CF03F08C
:101FE000E4CF02F0E4CF01F0E4CF00F0E4CFD9FF7A
:101FF0001200D9CFE5FFE1CFD9FF00C0E5FF01C056
:10200000E5FF02C0E5FF03C0E5FF020EDBCF00F0F5
:10201000030EDBCF01F0D88001AED89009E3005069
:10202000026E0150036E031E026CD8B4032A04D062
:1020300000C002F001C003F003C0F3FF0250E4CF80
:1020400003F0E4CF02F0E4CF01F0E4CF00F0E4CFFE
:10205000D9FF120000C0E5FF01C0E5FF02C0E5FFA7
:1020600003C0E5FF800EE56E0E0EE56E150EE56E03
:10207000C4EC0DF0006EF3CF01F0F4CF02F0E9CF25
:1020800003F0030EE12603C0E9FF02C0F4FF01C024
:10209000F3FF0050E4CF03F0E4CF02F0E4CF01F00F
:1020A000E4CF00F01200D0B202D0930ED0129B8C7D
:1020B000580E006E020E016E00C002F001C003F067
:1020C000FF0E0026012202500310F6E1F29EF29C60
:1020D0002AEC11F035EC11F076EC10F01EEC11F05A
:1020E0005DEC0FF0FEEC07F0FDD71200550EA76E69
:1020F000AA0EA76E0E01FF91040E0E01F66F050EDB
:102100000E01C96F060E0E01FB6F0A0E0E01CB6F9A
:10211000090E0E01CA6F0E0E0E01D16F120E0E01C6
:10212000D26F550EA76EAA0EA76E0E01FF81120088
:10213000D9CFE5FFE1CFD9FF00C0E5FF01C0E5FF42
:10214000020EDBCF00F00050E56EA5EC0CF0016E46
:10215000E65201700150E56E0050E56EA2EC09F008
:10216000E652E652E4CF01F0E4CF00F0E4CFD9FF2D
:102170001200E8AE0AD0F3CFEAFFEE50EECFF3FF45
:10218000EECFF4FFEECFE9FF1200E8BC46EF11F00E
:10219000E9CFF6FFF3CFF7FFF86E0900F55009001D
:1021A000F5CFF3FF0900F5CFF4FF0900F5CFE9FF04
:1021B0001200010204081020408040800102040146
:1021C00002040820010101010101010102020202D1
:1021D0000200000000000D000A00D9CFE5FFE1CFAA
:1021E000D9FF020EDBCF15FE030EDBCF16FE040E69
:1021F000DBCF17FE050EDBCF18FEE4CFD9FF1200B0
:10220000E8AE0BD0F3CFEAFFE4CFEEFFF4CFEEFF62
:10221000F6CFEEFFF7CFEEFF1200E8BC46EF11F06D
:102220001200000200030004000500060007000879
:102230000009000A000B0001000000002F0E92129E
:10224000E00E0F01486F1F0E0F014913C26ABD0E49
:10225000C16E1200896A8A6A8B6A926A936A949044
:1022600094929494949C949E12000F0148691F0EBE
:102270000F01496FD26AD16A0F01536B120001003E
:0E22800022220000000E0000190000001200D3
:00000001FF
