:020000040000FA
:100C0000E5EF0BF0D9CFE5FFE1CFD9FF00C0E5FF5D
:100C100001C0E5FF02C0E5FF03C0E5FF04C0E5FF3A
:100C2000020EDBCF00F0030EDBCF01F0320E00240A
:100C3000026E036A1B0E0322046A000E042202C025
:100C4000F6FF03C0F7FF04C0F8FF0900F5CF02F07C
:100C5000030E025CD8B09AD0FA6AFB6A0234FA3604
:100C6000E834FA36FC0B760FE56E0C0EFA22000E15
:100C7000FB22E450F96E41EF06F06EEF06F09BEFB9
:100C800006F0015015E0200E0024026E036A1B0ED0
:100C90000322046A000E042202C0F6FF03C0F7FF1D
:100CA00004C0F8FF0900F5CF02F0025092126ED096
:100CB000200E0024026E036A1B0E0322046A000E3B
:100CC000042202C0F6FF03C0F7FF04C0F8FF0900CA
:100CD000F5CF02F00250FF08921658D0015015E0EF
:100CE000200E0024026E036A1B0E0322046A000E0B
:100CF000042202C0F6FF03C0F7FF04C0F8FF09009A
:100D0000F5CF02F00250931241D0200E0024026E63
:100D1000036A1B0E0322046A000E042202C0F6FFBF
:100D200003C0F7FF04C0F8FF0900F5CF02F002503E
:100D3000FF0893162BD0015015E0200E0024016E01
:100D4000026A1B0E0222036A000E032201C0F6FF94
:100D500002C0F7FF03C0F8FF0900F5CF01F0015012
:100D6000941214D0016A026A200E00261B0E012282
:100D7000000E022200C0F6FF01C0F7FF02C0F8FF1C
:100D80000900F5CF00F00050FF089416E4CF04F0FE
:100D9000E4CF03F0E4CF02F0E4CF01F0E4CF00F0C1
:100DA000E4CFD9FF1200D9CFE5FFE1CFD9FF00C0D2
:100DB000E5FF01C0E5FF02C0E5FF03C0E5FF04C099
:100DC000E5FF020EDBCF00F0030EDBCF01F0320EA9
:100DD0000024026E036A1B0E0322046A000E042222
:100DE00002C0F6FF03C0F7FF04C0F8FF0900F5CF0B
:100DF00002F0030E025CD8B09AD0FA6AFB6A0234A1
:100E0000FA36E834FA36FC0B180FE56E0E0EFA22AD
:100E1000000EFB22E450F96E12EF07F03FEF07F0EF
:100E20006CEF07F0015015E0200E0024026E036AFB
:100E30001B0E0322046A000E042202C0F6FF03C048
:100E4000F7FF04C0F8FF0900F5CF02F00250891245
:100E50006ED0200E0024026E036A1B0E0322046A69
:100E6000000E042202C0F6FF03C0F7FF04C0F8FF23
:100E70000900F5CF02F00250FF08891658D0015042
:100E800015E0200E0024026E036A1B0E0322046A82
:100E9000000E042202C0F6FF03C0F7FF04C0F8FFF3
:100EA0000900F5CF02F002508A1241D0200E002432
:100EB000026E036A1B0E0322046A000E042202C0A3
:100EC000F6FF03C0F7FF04C0F8FF0900F5CF02F0FA
:100ED0000250FF088A162BD0015015E0200E002486
:100EE000016E026A1B0E0222036A000E032201C079
:100EF000F6FF02C0F7FF03C0F8FF0900F5CF01F0CD
:100F000001508B1214D0016A026A200E00261B0EBB
:100F10000122000E022200C0F6FF01C0F7FF02C04E
:100F2000F8FF0900F5CF00F00050FF088B16E4CF62
:100F300004F0E4CF03F0E4CF02F0E4CF01F0E4CF1B
:100F400000F0E4CFD9FF120000C0E5FF37EC0FF04E
:100F5000000EE56E1B0EE56E440EE56E90EC0CF097
:100F6000030EE1260A0E0E01245D03E3246B0E013D
:100F7000252B3C0E0E01255D03E3256B0E01262B70
:100F80003C0E0E01265D03E3266B0E01272B180E87
:100F90000E01275D01E3276B010EE56E000EE56A89
:100FA00051EC0DF0E652E6520A0E0E01275D0AE200
:100FB000000EE56E1B0EE56E540EE56E90EC0CF027
:100FC000030EE12627CE00F00A0EE56EE56A00501A
:100FD000E56EC2EC09F0030EE1260A0E0E01265D55
:100FE0000BE2000EE56E1B0EE56E560EE56E90EC04
:100FF0000CF0030EE1260AD0000EE56E1B0EE56E26
:101000005A0EE56E90EC0CF0030EE12626CE00F0B1
:101010000A0EE56EE56A0050E56EC2EC09F0030EBB
:10102000E1260A0E0E01255D0BE2000EE56E1B0E99
:10103000E56E560EE56E90EC0CF0030EE1260AD03C
:10104000000EE56E1B0EE56E5A0EE56E90EC0CF090
:10105000030EE12625CE00F00A0EE56EE56A00508B
:10106000E56EC2EC09F0030EE1260E0EE56EF5EC1E
:101070000AF0006EE652005002E00E01272B0F0E20
:10108000E56EF5EC0AF0006EE652005002E00E014B
:10109000262B0E01242BE56A330EE56E32EC0EF0A2
:1010A000E652E652E56A0D0EE56ED3EC06F0E65226
:1010B000E652E56A330EE56E32EC0EF0E652E65289
:1010C000010EE56E0D0EE56ED3EC06F0E652E6522B
:1010D000E4CF00F01200D9CFE5FFE1CFD9FF00C087
:1010E000E5FF01C0E5FF020EDBCF00F0030EDBCF12
:1010F00001F0020E005C02E30E013C8700C03DFEE1
:101100000E013B6B015005E00050010A02E10E01A7
:101110003C85E56A0F0EE56E32EC0EF0E652E652C3
:10112000E56A0E012151E56ED3EC06F0E652E65277
:10113000E56A0E012351E56ED3EC06F0E652E65265
:101140000E013CB92AD0030EE56E11EC0DF0E6520B
:10115000E56A050EE56E32EC0EF0E652E652030E3D
:10116000E56E11EC0DF0E652E56A960EE56E5DEC6B
:101170000EF0E652E652030EE56E11EC0DF0E6526B
:10118000E56A960EE56E5DEC0EF0E652E652020E52
:10119000E56E11EC0DF0E65223D0200E0E013C114D
:1011A000E56EFFEC0EF0E652E56A050EE56E32ECF8
:1011B0000EF0E652E652200E0E013C11E56EFFECF9
:1011C0000EF0E652E56A050EE56E32EC0EF0E652E0
:1011D000E652200E0E013C11E56EFFEC0EF0E652D9
:1011E000200E0E013C11E56EFFEC0EF0E652040EEF
:1011F0000E01386F0C0EE56EFFEC0EF0E652010E9C
:10120000E56EFFEC0EF0E652E56A020EE56E32EC9A
:101210000EF0E652E652020E0E01396F060EE56E32
:10122000FFEC0EF0E652E4CF01F0E4CF00F0E4CFA3
:10123000D9FF1200D9CFE5FFE1CFD9FF00C0E5FF0C
:1012400001C0E5FF02C0E5FF03C0E5FF04C0E5FF04
:1012500005C0E5FF06C0E5FF07C0E5FF08C0E5FFE4
:10126000020EDBCF00F0030EDBCF21FE040EDBCF3E
:1012700022FE050EDBCF23FE060EDBCF01F0070EAC
:10128000DBCF02F0080EDBCF03F0090EDBCF04F05A
:101290000A0EDBCF05F00B0EDBCF06F00C0EDBCF1A
:1012A00007F00D0EDBCF08F001500E01286F025041
:1012B000296F03502A6F04502B6F05502C6F065076
:1012C0002D6F07502E6F08502F6FE56A0E012151C8
:1012D000E56E02EC06F0E652E652E56A0E01235195
:1012E000E56E02EC06F0E652E65200501BE00E01FD
:1012F0003C6B006A280E0024016E026A0E0E022268
:1013000001C0E9FF02C0EAFFEFCF01F0E56A01503A
:10131000E56E02EC06F0E652E652002A040E005C8E
:10132000E9E31BD0100E0E013C6F006A280E00246A
:10133000016E026A0E0E022201C0E9FF02C0EAFF3E
:10134000EFCF01F0E56A0150E56E02EC06F0E652DF
:10135000E652002A080E005CE9E3E4CF08F0E4CF8F
:1013600007F0E4CF06F0E4CF05F0E4CF04F0E4CFDB
:1013700003F0E4CF02F0E4CF01F0E4CF00F0E4CFDB
:10138000D9FF1200D9CFE5FFE1CFD9FF00C0E5FFBB
:1013900001C0E5FF02C0E5FF03C0E5FF04C0E5FFB3
:1013A00005C0E5FF06C0E5FF07C0E5FF08C0E5FF93
:1013B00009C0E5FF020EDBCF00F0030EDBCF01F02A
:1013C000040EDBCF02F00050011006E1300EE56E96
:1013D000E9EC0EF0E6525CD0036A046A005001109A
:1013E0002FE003C005F004C006F0034A042A000EF3
:1013F00005260E0E062202C007F0086AE56A0750AD
:10140000E56E0150E56E0050E56E88EC0BF0096E5C
:10141000040EE12605C0E9FF06C0EAFF09C0EFFFA0
:101420000850E56E0750E56E0150E56E0050E56E20
:101430003CEC0CF0006EF3CF01F0040EE126CED7A9
:1014400003C000F004C001F00050011021E00004CE
:10145000026E036A000E02260E0E032202C0E9FF8E
:1014600003C0EAFFEFCF02F00A0E025C05E2025071
:10147000036E300E032603D0370E0224036E035092
:10148000E56EE9EC0EF0E652FF0E00260122DCD7F5
:10149000E4CF09F0E4CF08F0E4CF07F0E4CF06F0A2
:1014A000E4CF05F0E4CF04F0E4CF03F0E4CF02F0A2
:1014B000E4CF01F0E4CF00F0E4CFD9FF1200D9CFA0
:1014C000E5FFE1CFD9FF00C0E5FF01C0E5FF02C0A5
:1014D000E5FF03C0E5FF04C0E5FF05C0E5FF06C06A
:1014E000E5FF07C0E5FF08C0E5FF09C0E5FF0AC04A
:1014F000E5FF0BC0E5FF0CC0E5FF0DC0E5FF020EE8
:10150000DBCF00F0030EDBCF01F0040EDBCF02F0E7
:10151000050EDBCF03F0060EDBCF04F0070EDBCFAA
:1015200005F0080EDBCF06F0090EDBCF07F00A0E40
:10153000DBCF08F00B0EDBCF09F006C00AF00B6A18
:1015400007C00CF00D6A0C500A260D500B2208C083
:101550000CF00C500A260D500B2209C00CF00C5058
:101560000A260D500B220A5005E10B5003E10A6ACE
:101570000A2A01D00A6A0950E56E0850E56E075044
:10158000E56E0650E56E0550E56E0450E56E0350BD
:10159000E56E0250E56E0150E56EE5680050E56EBF
:1015A0000A50E56E1AEC09F00C0EE126E4CF0DF0BE
:1015B000E4CF0CF0E4CF0BF0E4CF0AF0E4CF09F075
:1015C000E4CF08F0E4CF07F0E4CF06F0E4CF05F075
:1015D000E4CF04F0E4CF03F0E4CF02F0E4CF01F075
:1015E000E4CF00F0E4CFD9FF1200D9CFE5FFE1CF7F
:1015F000D9FF00C0E5FF01C0E5FF02C0E5FF03C061
:10160000E5FF020EDBCF00F0320E0024016E026A0D
:101610001B0E0222036A000E032201C0F6FF02C065
:10162000F7FF03C0F8FF0900F5CF01F0030E015CDE
:10163000D8B062D0FA6AFB6A0134FA36E834FA3676
:10164000FC0B520FE56E160EFA22000EFB22E45040
:10165000F96E2FEF0BF049EF0BF063EF0BF0200E5C
:101660000024016E026A1B0E0222036A000E03228E
:1016700001C0F6FF02C0F7FF03C0F8FF0900F5CF75
:1016800001F080500116015002E0010E36D0E86AE8
:1016900034D0200E0024016E026A1B0E0222036A5F
:1016A000000E032201C0F6FF02C0F7FF03C0F8FFDF
:1016B0000900F5CF01F081500116015002E0010E42
:1016C0001CD0E86A1AD0016A026A200E00261B0E9E
:1016D0000122000E022200C0F6FF01C0F7FF02C087
:1016E000F8FF0900F5CF00F082500016005002E02C
:1016F000010E03D0E86A01D0E86AE4CF03F0E4CF3A
:1017000002F0E4CF01F0E4CF00F0E4CFD9FF120003
:10171000D9CFE5FFE1CFD9FF00C0E5FF01C0E5FF6C
:1017200002C0E5FF03C0E5FF04C0E5FF05C0E5FF1B
:1017300006C0E5FF020EDBCF00F0030EDBCF01F0A9
:10174000040EDBCF02F0050EDBCF03F0046A056A5E
:101750000350800BE844066E065011E10250022649
:1017600003360350015C02E10250005C04E2D890B1
:101770000332023204D0052A05C004F0E9D7035031
:10178000015C02E10250005C04E30250005E035081
:10179000015AD8900332023204C005F00406055005
:1017A000EEE101C0F3FF0050E4CF06F0E4CF05F016
:1017B000E4CF04F0E4CF03F0E4CF02F0E4CF01F093
:1017C000E4CF00F0E4CFD9FF120018EEFFF028EECE
:1017D000FFF0F86AA68EA69CBF0EE96E0E0EEA6EAA
:1017E0000068ED6A0050FDE1B20EF66E1E0EF76E57
:1017F000000EF86E0900F5CF05F00900F5CF06F0F0
:1018000034D00900F5CF00F00900F5CF01F0090050
:10181000F5CF02F009000900F5CFE9FF0900F5CF87
:10182000EAFF090009000900F5CF03F00900F5CF30
:1018300004F009000900F6CF07F0F7CF08F0F8CF61
:1018400009F000C0F6FF01C0F7FF02C0F8FF03D0A7
:101850000900F5CFEEFF0306FBE20406F9E207C03C
:10186000F6FF08C0F7FF09C0F8FF0506CAE2060642
:10187000C8E2A7EC0EF0FFD7D9CFE5FFE1CFD9FF43
:1018800000C0E5FF01C0E5FF02C0E5FF03C0E5FFC2
:1018900004C0E5FF05C0E5FF06C0E5FF07C0E5FFA2
:1018A000020EDBCF00F0030EDBCF01F0040EDBCF26
:1018B00002F0050EDBCF03F0046A056A100E066E17
:1018C0000150800BE844076E00500026013604509A
:1018D000042605360750D8A404800350055C02E1B5
:1018E0000250045C05E30250045E0350055A008078
:1018F000062EE6D701C0F3FF0050E4CF07F0E4CF97
:1019000006F0E4CF05F0E4CF04F0E4CF03F0E4CF39
:1019100002F0E4CF01F0E4CF00F0E4CFD9FF1200F1
:10192000D9CFE5FFE1CFD9FF00C0E5FF01C0E5FF5A
:1019300002C0E5FF03C0E5FF04C0E5FF05C0E5FF09
:10194000020EDBCF00F0030EDBCF01F0040EDBCF85
:1019500002F0036A03500024046EE86A0120056E59
:10196000E86A022004C0E9FF05C0F3FF26EC0FF08F
:10197000046E045007E00450E56EE9EC0EF0E65208
:10198000032AE8D7E4CF05F0E4CF04F0E4CF03F076
:10199000E4CF02F0E4CF01F0E4CF00F0E4CFD9FFD0
:1019A0001200D9CFE5FFE1CFD9FF00C0E5FF01C0AC
:1019B000E5FF02C0E5FF03C0E5FF020EDBCF00F04C
:1019C000016A280E0124026E036A0E0E032202C071
:1019D000E9FF03C0EAFFEFCF02F000C003F00150BF
:1019E00005E0E86CD8900332010FFDE3010E031609
:1019F0000350E56E0250E56ED3EC06F0E652E65277
:101A0000012A080E015CDDE314EC0FF0E4CF03F0D3
:101A1000E4CF02F0E4CF01F0E4CF00F0E4CFD9FF4F
:101A20001200D9CFE5FFE1CFD9FF00C0E5FF01C02B
:101A3000E5FF02C0E5FF03C0E5FF020EDBCF00F0CB
:101A4000016A280E0124026E036A0E0E032202C0F0
:101A5000E9FF03C0EAFFEFCF02F000C003F001503E
:101A600005E0E86CD8900332010FFDE3010E031688
:101A70000350E56E0250E56ED3EC06F0E652E652F6
:101A8000012A040E015CDDE314EC0FF0E4CF03F057
:101A9000E4CF02F0E4CF01F0E4CF00F0E4CFD9FFCF
:101AA0001200D9CFE5FFE1CFD9FF00C0E5FF01C0AB
:101AB000E5FF02C0E5FF020EDBCF00F0030EDBCF37
:101AC00001F00E01346B400E356F140E366F540E5C
:101AD000376F0E013D51010A07E1140E0E01356FFB
:101AE000280E366F3C0E376F026A340E01260E0E3A
:101AF000022201C0E9FF02C0EAFFEFCF01F001506E
:101B00000026008E0050E56EFFEC0EF0E652E4CFAA
:101B100002F0E4CF01F0E4CF00F0E4CFD9FF1200EF
:101B200001020408102040804080010204010204E8
:101B3000082001010101010101010202020202006B
:101B40000000000050696E6775696E6F2D4C43444C
:101B50006C69620030003A3000003A00E806E56E39
:101B6000630EC1EC0DF0E4500BE000D0E56E630EA7
:101B7000C1EC0DF000D000D00000E450E82EF6D704
:101B80001200E8060000E85007E000D000D000D0C6
:101B900000D00000E82EFAD71200E56AE56AE56A8F
:101BA000E56A050EE56E040EE56E030EE56E020EA7
:101BB000E56E010EE56E000EE56A5FEC0AF00A0EB6
:101BC000E126E56A020EE56E6BEC08F0E652E6529D
:101BD000E56A0D0EE56E02EC06F0E652E652010EE5
:101BE000E56E0E0EE56E02EC06F0E652E652010ED0
:101BF000E56E0F0EE56E02EC06F0E652E6521200BC
:101C0000D9CFE5FFE1CFD9FF00C0E5FF01C0E5FF77
:101C1000020EDBCF00F0030EDBCF01F00150E56ECA
:101C20000E012151E56ED3EC06F0E652E6520E01AC
:101C30003CA906D00050E56ED1EC0CF0E6520BD07A
:101C400000380F0BE56E11EC0DF0E6520050E56E1A
:101C500011EC0DF0E652E4CF01F0E4CF00F0E4CF58
:101C6000D9FF1200D9CFE5FFE1CFD9FF00C0E5FFD2
:101C700001C0E5FF02C0E5FF03C0E5FF020EDBCFB8
:101C800000F0030EDBCF01F0026A036A0150035C2F
:101C900002E10050025C06E20C0EAEEC0DF0024ACE
:101CA000032AF4D7E4CF03F0E4CF02F0E4CF01F04D
:101CB000E4CF00F0E4CFD9FF1200D9CFE5FFE1CFA8
:101CC000D9FF00C0E5FF01C0E5FF02C0E5FF03C08A
:101CD000E5FF020EDBCF00F0030EDBCF01F0026A5E
:101CE000036A0150035C02E10050025C03E2024A15
:101CF000032AF7D7E4CF03F0E4CF02F0E4CF01F0FA
:101D0000E4CF00F0E4CFD9FF1200550EA76EAA0E63
:101D1000A76E0E01FF91040E0E01F66F050E0E0167
:101D2000C96F060E0E01FB6F0A0E0E01CB6F090E76
:101D30000E01CA6F0E0E0E01D16F120E0E01D26F80
:101D4000550EA76EAA0EA76E0E01FF811200D0B22B
:101D500002D0930ED0129B8C580E006E020E016EB4
:101D600000C002F001C003F0FF0E00260122025065
:101D70000310F6E1F29EF29C44EC0FF04FEC0FF0F2
:101D800085EC0EF0CDEC0DF0A4EC07F0FDD71200C1
:101D9000D9CFE5FFE1CFD9FF00C0E5FF01C0E5FFE6
:101DA000020EDBCF00F00050E56EF5EC0AF0016E9C
:101DB000E65201700150E56E0050E56ED3EC06F07E
:101DC000E652E652E4CF01F0E4CF00F0E4CFD9FFD1
:101DD0001200D9CFE5FFE1CFD9FF00C0E5FF020E29
:101DE000DBCF00F0010EE56E0050E56E00EC0EF06A
:101DF000E652E652E4CF00F0E4CFD9FF1200D9CF8B
:101E0000E5FFE1CFD9FF00C0E5FF020EDBCF00F018
:101E1000E56A0050E56E00EC0EF0E652E652E4CFC3
:101E200000F0E4CFD9FF1200010EE56E0E01235140
:101E3000E56ED3EC06F0E652E652E56A0E01235158
:101E4000E56ED3EC06F0E652E6521200E8AE04D09E
:101E5000F3CFEAFFEE501200E8BC64EF0FF0E9CFD9
:101E6000F6FFF3CFF7FFF86E0900F5501200020EEF
:101E7000E56EFFEC0EF0E652E56A020EE56E32EC1E
:101E80000EF0E652E6521200896A8A6A8B6A926AFA
:101E9000936A949094929494949C949E12000F014F
:101EA00048691F0E0F01496FD26AD16A0F01536B47
:101EB00012000100C01E0000200E000008000000FB
:0A1EC0000008FF09000000001200F6
:00000001FF
