:020000040000FA
:0400080010EF10F0F5
:0800180000EF20F0FFFFFFFFE5
:10002000FFFFFFFFFFFFFFFFFFFFFFFFFFFFFFFFE0
:10003000FFFFFFFFFFFFFFFFFFFFFFFFFFFFFFFFD0
:10004000FFFFFFFFFFFFFFFFFFFFFFFFFFFFFFFFC0
:10005000FFFFFFFFFFFFFFFFFFFFFFFFFFFFFFFFB0
:10006000FFFFFFFFFFFFFFFFFFFFFFFFFFFFFFFFA0
:0A007000FFFFFFFFFFFFFFFFFFFF90
:1020000000683700CC37005E3800043900A0390082
:102010003C3A00783A001A20000091EF36F01200A6
:10202000D8CFE5FFE0CFE5FFE56EF3CFE5FFF4CFD6
:10203000E5FFE9CFE5FFEACFE5FFFACFE5FFFBCF0C
:10204000E5FFE4CFFBFFE4CFFAFFE4CFEAFFE4CF04
:10205000E9FFE4CFF4FFE4CFF3FFE450E4CFE0FF87
:10206000E4CFD8FF1000D9CFE5FFE1CFD9FF00C002
:10207000E5FF01C0E5FF02C0E5FF03C0E5FF04C0C6
:10208000E5FF05C0E5FF06C0E5FF07C0E5FF08C0A6
:10209000E5FF09C0E5FF0AC0E5FF0BC0E5FF0CC086
:1020A000E5FF0DC0E5FF0EC0E5FF0FC0E5FF10C066
:1020B000E5FF11C0E5FF12C0E5FF13C0E5FF14C046
:1020C000E5FF15C0E5FF16C0E5FF17C0E5FF18C026
:1020D000E5FF19C0E5FF020EDBCF00F0030EDBCFFA
:1020E00001F0040EDBCF02F0050EDBCF03F0060E8D
:1020F000DBCF04F0070EDBCF05F0080EDBCF06F0D8
:10210000090EDBCF07F00A0EDBCF08F0096A020EDA
:102110000A6E03C0E9FF04C0F3FF055029EC00F08C
:102120000B6E0B5002E1F9EF14F00C6A0B50250A0C
:1021300002E0E0EF14F00B6A0D6A032A02E3044A9E
:10214000052A03C0E9FF04C0F3FF055029EC00F0A5
:102150000E6E0E50D8B4F9EF14F00E50250A02E1BD
:10216000E0EF14F00E502D0A06E1032A02E3044AC0
:10217000052A010E0B6E03C00EF004C00FF005C05F
:1021800010F00EC0E9FF0FC0F3FF105029EC00F073
:10219000300A06E10E2A02E30F4A102A0B82F1D719
:1021A0000EC0E9FF0FC0F3FF105029EC00F0116ED4
:1021B000300E115C13E33A0E115C10E20D500A0D63
:1021C000F3CF0DF0D00E11260D50126E11501224C7
:1021D0000D6E0E2A02E30F4A102AE2D70EC003F05A
:1021E0000FC004F010C005F00EC0E9FF0FC0F3FFF0
:1021F000105029EC00F02E0A34E10E50010F036E4E
:10220000000E0F20046E000E1020056E0A6A03C037
:102210000EF004C00FF005C010F00EC0E9FF0FC0B3
:10222000F3FF105029EC00F0116E300E115C13E337
:102230003A0E115C10E20A500A0DF3CF0AF0D00EEC
:1022400011260A50126E115012240A6E0E2A02E351
:102250000F4A102AE2D70EC003F00FC004F010C0DE
:1022600005F003C0E9FF04C0F3FF055029EC00F0BE
:102270000E6E660A01E040D00650040F0F6E000E8D
:102280000720106E000E0820116E0FC006F010C05F
:1022900007F011C008F0FC0E0F26FF0E10221122CD
:1022A0000FC0E9FF10C0F3FF11502FEC00F00F6ECC
:1022B000F3CF10F0F4CF11F0E9CF12F00A50E56E31
:1022C000E56A0B50E56E0D50E56E1250E56E11504B
:1022D000E56E1050E56E0F50E56E0250E56E015050
:1022E000E56E0050E56E49EC15F00F6E0B0EE12621
:1022F0000F500926F3EF14F00E50730A01E045D099
:102300000650030F0F6E000E0720106E000E0820FF
:10231000116E0FC006F010C007F011C008F0FD0EDE
:102320000F26FF0E102211220FC0E9FF10C0F3FF8D
:1023300011502DEC00F00F6EF3CF10F0F4CF11F030
:102340001010111006E1000E116E3A0E106ED00E34
:102350000F6E0B50E56E0D50E56E1150E56E10508E
:10236000E56E0F50E56E0250E56E0150E56E0050CF
:10237000E56E6FEC25F00F6E080EE1260950106E29
:102380000F501024096EF3EF14F00E506C0A06E1A2
:10239000032A02E3044A052A010E0C6E03C0E9FF7A
:1023A00004C0F3FF055029EC00F00E6E750A01E041
:1023B0006CD00C5023E00650040F0F6E000E072067
:1023C000106E000E0820116E0FC006F010C007F04E
:1023D00011C008F0FC0E0F26FF0E102211220FC0B4
:1023E000E9FF10C0F3FF11502FEC00F00F6EF3CF98
:1023F00010F0F4CF11F0E9CF12F024D00650020F04
:10240000136E000E0720146E000E0820156E13C008
:1024100006F014C007F015C008F0FE0E1326FF0EDC
:102420001422152213C0E9FF14C0F3FF15502BEC42
:1024300000F0136EF3CF14F013C00FF014C010F0BF
:10244000116A126A610EE56EE56A0B50E56E0D5079
:10245000E56EE56A0A0EE56E0C50E56E1250E56E0B
:102460001150E56E1050E56E0F50E56E0250E56EAE
:102470000150E56E0050E56E25EC20F0136E0E0E57
:10248000E12613500926F3EF14F00E50640A04E01D
:102490000E50690A01E075D00C5023E00650040F7D
:1024A000136E000E0720146E000E0820156E13C068
:1024B00006F014C007F015C008F0FC0E1326FF0E3E
:1024C0001422152213C0E9FF14C0F3FF15502FEC9E
:1024D00000F0136EF3CF14F0F4CF15F0E9CF16F03F
:1024E00024D00650020F176E000E0720186E000E43
:1024F0000820196E17C006F018C007F019C008F0C0
:10250000FE0E1726FF0E1822192217C0E9FF18C069
:10251000F3FF19502BEC00F0176EF3CF18F017C033
:1025200013F018C014F0156A166A13C00FF014C027
:1025300010F015C011F016C012F0610EE56EE56ADC
:102540000B50E56E0D50E56E010EE56E0A0EE56E60
:102550000C50E56E1250E56E1150E56E1050E56EB0
:102560000F50E56E0250E56E0150E56E0050E56ECD
:1025700025EC20F0136E0E0EE12613500926F3EF22
:1025800014F00E50780A04E00E50700A01E073D087
:102590000C5023E00650040F136E000E0720146E3B
:1025A000000E0820156E13C006F014C007F015C009
:1025B00008F0FC0E1326FF0E1422152213C0E9FFAB
:1025C00014C0F3FF15502FEC00F0136EF3CF14F08E
:1025D000F4CF15F0E9CF16F024D00650020F176E95
:1025E000000E0720186E000E0820196E17C006F0A6
:1025F00018C007F019C008F0FE0E1726FF0E1822AB
:10260000192217C0E9FF18C0F3FF19502BEC00F096
:10261000176EF3CF18F017C013F018C014F0156A36
:10262000166A13C00FF014C010F015C011F016C0D8
:1026300012F0610EE56EE56A0B50E56E0D50E56E29
:10264000E56A100EE56E0C50E56E1250E56E115005
:10265000E56E1050E56E0F50E56E0250E56E0150CC
:10266000E56E0050E56E25EC20F0136E0E0EE126AF
:1026700013500926B8D10E50580A04E00E50500AE3
:1026800001E073D00C5023E00650040F136E000ECF
:102690000720146E000E0820156E13C006F014C03B
:1026A00007F015C008F0FC0E1326FF0E14221522A9
:1026B00013C0E9FF14C0F3FF15502FEC00F0136EA8
:1026C000F3CF14F0F4CF15F0E9CF16F024D0065074
:1026D000020F176E000E0720186E000E0820196EEC
:1026E00017C006F018C007F019C008F0FE0E172634
:1026F000FF0E1822192217C0E9FF18C0F3FF195066
:102700002BEC00F0176EF3CF18F017C013F018C0C1
:1027100014F0156A166A13C00FF014C010F015C03B
:1027200011F016C012F0410EE56EE56A0B50E56E31
:102730000D50E56EE56A100EE56E0C50E56E125018
:10274000E56E1150E56E1050E56E0F50E56E0250CB
:10275000E56E0150E56E0050E56E25EC20F0136E3D
:102760000E0EE126135009263ED10E50620A01E0FA
:1027700073D00C5023E00650040F136E000E072098
:10278000146E000E0820156E13C006F014C007F07A
:1027900015C008F0FC0E1326FF0E1422152213C0DC
:1027A000E9FF14C0F3FF15502FEC00F0136EF3CFC8
:1027B00014F0F4CF15F0E9CF16F024D00650020F34
:1027C000176E000E0720186E000E0820196E17C035
:1027D00006F018C007F019C008F0FE0E1726FF0E0D
:1027E0001822192217C0E9FF18C0F3FF19502BEC6B
:1027F00000F0176EF3CF18F017C013F018C014F0E4
:10280000156A166A13C00FF014C010F015C011F04D
:1028100016C012F0610EE56EE56A0B50E56E0D50C4
:10282000E56EE56A020EE56E0C50E56E1250E56E3F
:102830001150E56E1050E56E0F50E56E0250E56EDA
:102840000150E56E0050E56E25EC20F0136E0E0E83
:10285000E12613500926C7D00E506F0A01E073D04D
:102860000C5023E00650040F136E000E0720146E68
:10287000000E0820156E13C006F014C007F015C036
:1028800008F0FC0E1326FF0E1422152213C0E9FFD8
:1028900014C0F3FF15502FEC00F0136EF3CF14F0BB
:1028A000F4CF15F0E9CF16F024D00650020F176EC2
:1028B000000E0720186E000E0820196E17C006F0D3
:1028C00018C007F019C008F0FE0E1726FF0E1822D8
:1028D000192217C0E9FF18C0F3FF19502BEC00F0C4
:1028E000176EF3CF18F017C013F018C014F0156A64
:1028F000166A13C00FF014C010F015C011F016C006
:1029000012F0610EE56EE56A0B50E56E0D50E56E56
:10291000E56A080EE56E0C50E56E1250E56E11503A
:10292000E56E1050E56E0F50E56E0250E56E0150F9
:10293000E56E0050E56E25EC20F00C6E0E0EE126E3
:102940000C50092650D00E50630A01E04CD00650BE
:10295000020F0C6E000E07200E6E000E08200F6E88
:102960000CC006F00EC007F00FC008F0FE0E0C26DB
:10297000FF0E0E220F220CC0E9FF0EC0F3FF0F5016
:102980002BEC00F00301356F366B0B50E56E0D50EC
:10299000E56E800EE56E030EE56E350EE56E0250B7
:1029A000E56E0150E56E0050E56E6FEC25F00B6EA4
:1029B000080EE12609500C6E0B500C24096E13D042
:1029C00003C0E9FF04C0F3FF055029EC00F0E56EF9
:1029D0000250E56E0150E56E0050E56E92EC2CF071
:1029E000040EE126092A032A02E3044A052A89EF94
:1029F00010F000500110021014E000C0E9FF01C007
:102A0000F3FF02502DEC00F0006EF3CF01F0F4CF95
:102A100002F0E56A00C0E9FF01C0F3FF025031ECAB
:102A200000F00950E4CF19F0E4CF18F0E4CF17F02C
:102A3000E4CF16F0E4CF15F0E4CF14F0E4CF13F0B8
:102A4000E4CF12F0E4CF11F0E4CF10F0E4CF0FF0B8
:102A5000E4CF0EF0E4CF0DF0E4CF0CF0E4CF0BF0B8
:102A6000E4CF0AF0E4CF09F0E4CF08F0E4CF07F0B8
:102A7000E4CF06F0E4CF05F0E4CF04F0E4CF03F0B8
:102A8000E4CF02F0E4CF01F0E4CF00F0E4CFD9FFCF
:102A90001200D9CFE5FFE1CFD9FF00C0E5FF01C0AB
:102AA000E5FF02C0E5FF03C0E5FF04C0E5FF05C088
:102AB000E5FF06C0E5FF07C0E5FF08C0E5FF09C068
:102AC000E5FF0AC0E5FF0BC0E5FF0CC0E5FF0DC048
:102AD000E5FF0EC0E5FF0FC0E5FF10C0E5FF11C028
:102AE000E5FF12C0E5FF13C0E5FF14C0E5FF15C008
:102AF000E5FF16C0E5FF17C0E5FF18C0E5FF19C0E8
:102B0000E5FF1AC0E5FF1BC0E5FF1CC0E5FF1DC0C7
:102B1000E5FF1EC0E5FF1FC0E5FF20C0E5FF020E78
:102B2000DBCF00F0030EDBCF01F0040EDBCF02F0B1
:102B3000050EDBCF03F0060EDBCF04F0070EDBCF74
:102B400005F0080EDBCF06F0090EDBCF07F00A0E0A
:102B5000DBCF08F00C0EDBCF09F00A6A0B6A0C6AB7
:102B60000D6A0E6A0F6A106A116A020E136EB00EB9
:102B7000126E800E146E020E166EBC0E156E800E56
:102B8000176E186A0B0E196E03500201F36F045092
:102B9000F46F0550F56F0650F66FD880F6AFD890F9
:102BA00023E3075012E008A210D02D0EE56E02506C
:102BB000E56E0150E56E0050E56E92EC2CF0040ECF
:102BC000E126010E186E07060FD02D0EE56E12C01D
:102BD000E9FF13C0F3FF145031EC00F0122A02E3B6
:102BE000134A142A0A0E196E0201F535F635036EE2
:102BF000046A810E0326F351046EF451056E7F0EB4
:102C0000F515066E1A6A068E0350800F610F04E2F6
:102C10000350800F970F1FE2690E0201B06F6E0E16
:102C2000B16F660EB26FB36B0850E56E0750E56E7C
:102C3000800EE56E020EE56EB00EE56E0250E56E9A
:102C40000150E56E0050E56E6FEC25F01B6E080E2E
:102C5000E1261B50AED10350800F690F25E303C05E
:102C60001BF01C6A03BE1C68E90E1B26D8A01C06BC
:102C700004C00AF005C00BF006C00CF01AC00DF03D
:102C80001B5011E009E6E86CD8900A360B360C367A
:102C90000D36010FFAE37CD0D8900D320C320B3296
:102CA0000A32010FFAE374D0D88003AED890D8B0BE
:102CB0004AD003C01BF01C6A03BE1C681B501708D7
:102CC0001D6E000E1C5404C00AF005C00BF006C0B7
:102CD0000CF01AC00DF01D5011E009E6E86CD89018
:102CE0000D320C320B320A32010FFAE307D0D890C2
:102CF0000A360B360C360D36010FFAE31B4A1C2A36
:102D000004C01DF005C01EF006C01FF01AC020F060
:102D10001B5011E009E6E86CD8901D361E361F36B0
:102D20002036010FFAE307D0D89020321F321E322E
:102D30001D32010FFAE31D500E6E1E500F6E1F5014
:102D4000106E116A25D01A6A1B6A03BE1B68034AFB
:102D50001B2A1B1E036CD8B41B2A04C00EF005C02E
:102D60000FF006C010F01AC011F0035011E009E690
:102D7000E86CD890113210320F320E32010FFAE3A4
:102D800007D0D8900E360F3610361136010FFAE301
:102D90000A500B100C100D100FE1300EE56E12C032
:102DA000E9FF13C0F3FF145031EC00F0122A02E3E4
:102DB000134A142A190678D015C003F016C004F07F
:102DC00017C005F0066A19C015F00A500B100C1058
:102DD0000D10D8B43CD0E56AE56AE56A0A0EE56EE6
:102DE0000D50E56E0C50E56E0B50E56E0A50E56E29
:102DF00044EC2AF0166E080EE126300E162616C098
:102E0000E5FF03C0E9FF04C0F3FF055031EC00F01B
:102E1000032A02E3044A052AE56AE56AE56A0A0E1E
:102E2000E56E0D50E56E0C50E56E0B50E56E0A50E8
:102E3000E56E06EC2CF00A6EF3CF0BF0F4CF0CF03D
:102E4000E9CF0DF0080EE126062A1506BED715C0FB
:102E500019F012C00AF013C00BF014C00CF006C039
:102E60000DF006060D501AE0FF0E0326042205227F
:102E700003C0E9FF04C0F3FF055029EC00F00D6E1C
:102E80000DC0E5FF0AC0E9FF0BC0F3FF0C5031ECA9
:102E900000F00A2AE4E30B4A0C2AE1D70AC012F038
:102EA0000BC013F00CC014F0070E095C02E3060E11
:102EB000096E0950195CD8A019C009F0010E095C0F
:102EC000D8A057D02E0EE56E12C0E9FF13C0F3FF55
:102ED000145031EC00F0122A02E3134A142A12C0F3
:102EE00003F013C004F014C005F0066A0950065C34
:102EF0003AE20E500E240A6E0F340B6E10340C6E34
:102F000011340D6E0A500A260B360C360D360A5057
:102F10000A260B360C360D360E500E24156E0F3465
:102F2000166E1034176E1134196E15500A240E6E79
:102F300016500B200F6E17500C20106E19500D20DC
:102F40000A6E300E0A260AC0E5FF03C0E9FF04C07E
:102F5000F3FF055031EC00F0032A02E3044A052A8E
:102F6000116A062AC3D703C012F004C013F005C0CB
:102F700014F0E56A12C0E9FF13C0F3FF145031ECFE
:102F800000F00850E56E0750E56E800EE56E020E0B
:102F9000E56EB00EE56E0250E56E0150E56E005034
:102FA000E56E6FEC25F0006E080EE1261850002645
:102FB0000050E4CF20F0E4CF1FF0E4CF1EF0E4CFC8
:102FC0001DF0E4CF1CF0E4CF1BF0E4CF1AF0E4CF07
:102FD00019F0E4CF18F0E4CF17F0E4CF16F0E4CF07
:102FE00015F0E4CF14F0E4CF13F0E4CF12F0E4CF07
:102FF00011F0E4CF10F0E4CF0FF0E4CF0EF0E4CF07
:103000000DF0E4CF0CF0E4CF0BF0E4CF0AF0E4CF06
:1030100009F0E4CF08F0E4CF07F0E4CF06F0E4CF06
:1030200005F0E4CF04F0E4CF03F0E4CF02F0E4CF06
:1030300001F0E4CF00F0E4CFD9FF1200D9CFE5FFD3
:10304000E1CFD9FF00C0E5FF01C0E5FF02C0E5FF09
:1030500003C0E5FF04C0E5FF05C0E5FF06C0E5FFCE
:1030600007C0E5FF08C0E5FF09C0E5FF0AC0E5FFAE
:103070000BC0E5FF0CC0E5FF0DC0E5FF0EC0E5FF8E
:103080000FC0E5FF10C0E5FF020EDBCF00F0030E1E
:10309000DBCF01F0040EDBCF02F0050EDBCF03F037
:1030A000060EDBCF04F0070EDBCF05F0080EDBCFFA
:1030B00006F0090EDBCF07F0086A096A0A6A0B6A94
:1030C00000500301246F0150256F0250266F0350FA
:1030D000276F04500301286F0550296F06502A6F8F
:1030E00007502B6F0301245125112611271109E1E7
:1030F0002BC3E9FF2AC3F4FF29C3F3FF03012851BF
:1031000044D10301285129112A112B1109E127C3A8
:10311000E9FF26C3F4FF25C3F3FF0301245135D192
:10312000030126352735006E016A0136026A036AFB
:10313000016A026A036A03012A352B35026E190FF0
:10314000046E000E0320800FF36E0150800FF35CBD
:1031500002E10050045C09E227C3E9FF26C3F4FF43
:1031600025C3F3FF0301245110D10050190F046E41
:10317000000E0120800FF36E0350800FF35C02E11C
:103180000250045C09E22BC3E9FF2AC3F4FF29C300
:10319000F3FF03012851F9D003012451046E255196
:1031A000056E7F0E2615066E076A068E03012851EE
:1031B0000C6E29510D6E7F0E2A150E6E0F6A0E8E43
:1031C00003012751800BE844106E10500AE0071EDF
:1031D000061E051E046C05E1052A03E1062AD8B483
:1031E000072A03012B51800BE844106E10500AE0AF
:1031F0000F1E0E1E0D1E0C6C05E10D2A03E10E2A9A
:10320000D8B40F2A0350800FF36E0150800FF35C87
:1032100002E10050025C1BE20250005C106E0350A1
:103220000158105032E00BE6E86CD8900FBED88001
:103230000F320E320D320C32010FF8E326D0D89047
:103240000C360D360E360F36010FFAE31ED0005045
:10325000025C106E01500358105013E00BE6E86C4E
:10326000D89007BED8800732063205320432010FEB
:10327000F8E307D0D8900436053606360736010F36
:10328000FAE302C000F003C001F00C5004260D5018
:1032900005220E5006220F500722D88007AED89084
:1032A00010E3071E061E051E046C05E1052A03E156
:1032B000062AD8B4072A086A096A0A6A800E0B6EC1
:1032C0000AD0045005100610071005E1E96AF46AF7
:1032D000F36AE86A5AD0045006500C6E07500D6E1F
:1032E0000CBE0BD00D5009E10450042605360636FD
:1032F0000736FF0E00260122EED70450026E05505D
:10330000036E06500C6E07500D6E10E004A006D040
:10331000020E0426000E0522062207220734073279
:10332000063205320432004A012AE7D70250046E01
:103330000350056E7F0E0C14066E0D50076EE86A82
:10334000013000300F6E0E6A0E320C6A0C500812FB
:1033500009120E500A120F500B1204500812055099
:10336000091206500A1207500B1208500301246F6D
:103370000950256F0A50266F0B50276F27C3E9FFAE
:1033800026C3F4FF25C3F3FF2451E4CF10F0E4CFAC
:103390000FF0E4CF0EF0E4CF0DF0E4CF0CF0E4CF6B
:1033A0000BF0E4CF0AF0E4CF09F0E4CF08F0E4CF6B
:1033B00007F0E4CF06F0E4CF05F0E4CF04F0E4CF6B
:1033C00003F0E4CF02F0E4CF01F0E4CF00F0E4CF6B
:1033D000D9FF1200D9CFE5FFE1CFD9FF00C0E5FF4B
:1033E00001C0E5FF02C0E5FF03C0E5FF04C0E5FF43
:1033F00005C0E5FF06C0E5FF07C0E5FF08C0E5FF23
:1034000009C0E5FF0AC0E5FF0BC0E5FF0CC0E5FF02
:103410000EC0E5FF0FC0E5FF020EDBCF00F0030E8C
:10342000DBCF01F0040EDBCF02F0050EDBCF03F0A3
:10343000060EDBCF04F0070EDBCF05F0080EDBCF66
:1034400006F0090EDBCF07F000500301046F0150B6
:10345000056F0250066F0350076F04500301086F99
:103460000550096F06500A6F07500B6F0301045196
:1034700005110611071106E00301085109110A118F
:103480000B1105E1E96AF46AF36AE86A4CD10301B9
:103490000751800BE844006E03010B51800BE84498
:1034A000001A030106350735016E036A046A026AD1
:1034B000820E0126FF0E02220322042203010A3596
:1034C0000B35036E046A01C007F002C008F0075014
:1034D0000326085004220350016E0450026E0301BB
:1034E0000451036E0551046E7F0E0615056E058EA0
:1034F0000350046F0450056F0550066F076B0301FE
:103500000851036E0951046E7F0E0A15056E058E73
:103510000350086F0450096F05500A6F0B6B0301CD
:103520000551036E0651046E0751056E03010951E2
:10353000076E0A51086E0B51E56AE56E0850E56E9C
:103540000750E56EE56A0550E56E0450E56E0350E0
:10355000E56E25EC00F0036EF3CF04F0F4CF05F038
:10356000E9CF06F0080EE12603010451076E0301BE
:1035700009510B6E0A510C6E0B51E56AE56E0C5049
:10358000E56E0B50E56EE56AE56AE56A0750E56EA3
:1035900025EC00F0F3CF08F0F4CF09F0E9CF0AF002
:1035A000080EE1260850076E0950086E0A50096E91
:1035B0000A6A0750032608500422095005220A50BF
:1035C000062203010851076E030105510B6E0651D7
:1035D0000C6E0751E56AE56E0C50E56E0B50E56E1A
:1035E000E56AE56AE56A0750E56E25EC00F0F3CF81
:1035F00008F0F4CF09F0E9CF0AF0080EE1260850F0
:10360000076E0950086E0A50096E0A6A07500326B1
:1036100008500422095005220A500622400E0326B3
:10362000000E04220522062206AE0ED0400E03260E
:10363000000E0422052206220450036E0550046E7B
:103640000650056E066A11D003340434036E046A12
:1036500004360550E844FE0B041205340634056EAA
:10366000066A0636FF0E01260222059E0250800FD2
:103670007F0F02E1000E015C19E3005006E0076ACB
:10368000086A096A800E0A6E04D0076A086A096A25
:103690000A6A098E7F0E0A1207500301046F085050
:1036A000056F0950066F0A50076F35D0D88002AEFB
:1036B000D89006E30301046B056B066B076B2BD0F8
:1036C000005006E0006A076A086A800E096E04D09E
:1036D000006A076A086A096AE86A023001300F6EF8
:1036E0000E6A0E320C6A0C50001207120E500812AD
:1036F0000F5009120050031207500412085005120F
:103700000950061203500301046F0450056F055061
:10371000066F0650076F07C3E9FF06C3F4FF05C332
:10372000F3FF03010451E4CF0FF0E4CF0EF0E4CF38
:103730000CF0E4CF0BF0E4CF0AF0E4CF09F0E4CFD3
:1037400008F0E4CF07F0E4CF06F0E4CF05F0E4CFD3
:1037500004F0E4CF03F0E4CF02F0E4CF01F0E4CFD3
:1037600000F0E4CFD9FF120012010002FF00FF08B1
:10377000D804AAFE0001010203030902120001019C
:1037800004C0000904000000FFFFFF04090220003C
:10379000010205C0000904000002FFFFFF05070544
:1037A00001024000000705820240000009022000DB
:1037B000010304C0000904000002FFFFFF06070523
:1037C0000102400000070582024000007A37008CA9
:1037D0003700AC3700000403090426034A006500E3
:1037E00061006E002D0050006900650072007200DB
:1037F000650020004D0041004E0044004F004E0087
:103800002203500069006E006700750069006E00B9
:103810006F002000500072006F006A0065006300B6
:103820007400040331001003440065006600610069
:1038300075006C0074000C0346006C00610073009E
:1038400068001C03500069006E0067007500690085
:103850006E006F0020006100700070006C00D637B1
:1038600000DA3700003800223800263800363800E9
:10387000423800002E00001E20001E20001E2000E6
:103880001E20001E20001E20001E20001E20001EE4
:1038900020001E20001E20001E20001E20001E20D2
:1038A000001E20002E00003A00004200001E2000F2
:1038B0001E20001E20001E20001E20001E20001EB4
:1038C00020001E20001E20001E20001E20001E20A2
:1038D000001E20002E0000E26D00E46D001E20009E
:1038E0001E20001E20001E20001E20001E20001E84
:1038F00020001E20001E20001E20001E20001E2072
:10390000001E2000743800743800A43800D4380039
:103910003200001E20001E20001E20001E20001E5F
:1039200020001E20001E20001E20001E20001E2041
:10393000001E20001E20001E20001E20001E200051
:103940003200001E20004600001E20001E20001E27
:1039500020001E20001E20001E20001E20001E2011
:10396000001E20001E20001E20001E20001E200021
:103970003200001E2000E86D001E20001E20001EE8
:1039800020001E20001E20001E20001E20001E20E1
:10399000001E20001E20001E20001E20001E2000F1
:1039A0001039001039004039007039002E00001E17
:1039B00020001E20001E20001E20001E20001E20B1
:1039C000001E20001E20001E20001E20001E2000C1
:1039D0001E20001E20001E20001E20002E00003E83
:1039E00000001E20001E20001E20001E20001E20A1
:1039F000001E20001E20001E20001E20001E200091
:103A00001E20001E20001E20001E20002E0000E6AA
:103A10006D001E20001E20001E20001E20001E2003
:103A2000001E20001E20001E20001E20001E200060
:103A30001E20001E20001E20001E2000AC3900ACFD
:103A40003900DC39000C3A003600001E20001E2030
:103A5000001E20001E20001E20001E20001E200030
:103A60001E20001E20001E20001E20001E20001E02
:103A700020001E20001E2000483A00483A00483A24
:103A800000483A0001020306127A000048E80100EB
:103A900090D0030020A1070040420F0080841E0048
:103AA00000093D0000127A00010204081020408045
:103AB00040800102040102040820100001010101FC
:103AC00001010101020202020200000000000000E8
:103AD000286E756C6C290000253032753A2530321D
:103AE000753A25303275000053696D706C6520435E
:103AF0006C6F636B2044656D6F00D9CFE5FFE1CF3C
:103B0000D9FF00C0E5FF01C0E5FF02C0E5FF03C02B
:103B1000E5FF04C0E5FF05C0E5FF06C0E5FF07C0FF
:103B2000E5FF08C0E5FF09C0E5FF0AC0E5FF0BC0DF
:103B3000E5FF0CC0E5FF0DC0E5FF0EC0E5FF0FC0BF
:103B4000E5FF10C0E5FF11C0E5FF12C0E5FF13C09F
:103B5000E5FF14C0E5FF15C0E5FF16C0E5FF020E46
:103B6000DBCF00F0030EDBCF01F0040EDBCF02F061
:103B7000050EDBCF03F0060EDBCF04F0070EDBCF24
:103B800005F0080EDBCF06F0090EDBCF07F0005082
:103B900003010C6F01500D6F02500E6F03500F6F39
:103BA00004500301106F0550116F0650126F07503B
:103BB000136F03010E51026E0F51036E0234033472
:103BC000006E016A0136026A036A016A026A036AC8
:103BD00003011251046E1351056E0434053400C004
:103BE00006F0076A065C026E03500758036E025027
:103BF000006E0350016E7E0E0026D8B0012A03012C
:103C00000F51800BE844026E03011351800BE8440E
:103C1000021A10511111121113110EE1106B116BD8
:103C2000C00E126F7F0E136F13C3E9FF12C3F4FFB0
:103C300011C3F3FF1051EDD003010C510D110E1102
:103C40000F1105E1E96AF46AF36AE86AE2D0030158
:103C50000C51036E0D51046E0E51056E0F51059EF1
:103C6000066A058E03011051076E1151086E12513C
:103C7000096E1351099E0A6A098E0650800FF36E71
:103C80000A50800FF35C08E10950055C05E108501B
:103C9000045C02E10750035C08E20350032604368B
:103CA00005360636FF0E002601220B6A0C6A0D6AE5
:103CB000010E0E6E0F6A106A116A126A0B500C1018
:103CC0000D100E1037E00650800FF36E0A50800F73
:103CD000F35C08E10950055C05E10850045C02E171
:103CE0000750035C1CE30F50136E1050146E1150FC
:103CF000156E1250166E0B5013100F6E0C501410E0
:103D0000106E0D501510116E0E501610126E0750D9
:103D1000035E0850045A0950055A0A50065A0350C7
:103D20000326043605360636D8900E320D320C3294
:103D30000B32C4D70F2A04E3102A02E3114A122AD5
:103D4000004A012A12341232113210320F3211504D
:103D5000056E7F0E0514116E0150800F7F0F02E17A
:103D6000000E005C19E3025006E0036A046A056A6B
:103D7000800E066E04D0036A046A056A066A058E20
:103D80007F0E0612035003010C6F04500D6F055097
:103D90000E6F06500F6F35D0D88001AED89006E375
:103DA00003010C6B0D6B0E6B0F6B2BD0025006E0FA
:103DB000026A036A046A800E056E04D0026A036A0E
:103DC000046A056AE86A013000300B6E0A6A0A323A
:103DD000086A0850021203120A5004120B5005120E
:103DE0000F500212105003121150041212500512FB
:103DF000025003010C6F03500D6F04500E6F0550FD
:103E00000F6F0FC3E9FF0EC3F4FF0DC3F3FF0301F0
:103E10000C51E4CF16F0E4CF15F0E4CF14F0E4CF6A
:103E200013F0E4CF12F0E4CF11F0E4CF10F0E4CFC0
:103E30000FF0E4CF0EF0E4CF0DF0E4CF0CF0E4CFC0
:103E40000BF0E4CF0AF0E4CF09F0E4CF08F0E4CFC0
:103E500007F0E4CF06F0E4CF05F0E4CF04F0E4CFC0
:103E600003F0E4CF02F0E4CF01F0E4CF00F0E4CFC0
:103E7000D9FF1200D9CFE5FFE1CFD9FF00C0E5FFA0
:103E800001C0E5FF02C0E5FF03C0E5FF04C0E5FF98
:103E900005C0E5FF06C0E5FF07C0E5FF08C0E5FF78
:103EA00009C0E5FF0AC0E5FF0BC0E5FF020EDBCF4E
:103EB00000F0030EDBCF01F0040EDBCF02F0050EA5
:103EC000DBCF03F0005001100210031005E1E96A96
:103ED000F46AF36AE86A5ED0960E046E056A0350CF
:103EE00008E0D8900332023201320032044A052A37
:103EF000F6D704C006F005C007F002BE12D003508A
:103F000010E100500026013602360336FF0E04266B
:103F1000052202BE02D00350F4E004C006F005C042
:103F200007F00050046E0150056E7F0E0214086EFB
:103F3000096A0450FF0A08E10550FF0A05E108502C
:103F40007F0A02E1095001E006D0006A016A026AB4
:103F5000036A064A072A029EE86A073006300B6E9B
:103F60000A6A0A32086A0850001201120A50021244
:103F70000B50031200500301206F0150216F0250BB
:103F8000226F0350236F23C3E9FF22C3F4FF21C331
:103F9000F3FF2051E4CF0BF0E4CF0AF0E4CF09F0B7
:103FA000E4CF08F0E4CF07F0E4CF06F0E4CF05F06B
:103FB000E4CF04F0E4CF03F0E4CF02F0E4CF01F06B
:103FC000E4CF00F0E4CFD9FF1200D9CFE5FFE1CF75
:103FD000D9FF00C0E5FF020EDBCF00F0010EE56E59
:103FE0000050E56E27EC35F0E652E652E4CF00F0E3
:103FF000E4CFD9FF12000F0EC16E070EB46E12008F
:10400000D8CFE5FFE0CFE5FFE56EF3CFE5FFF4CFD6
:10401000E5FFE9CFE5FFEACFE5FFFACFE5FFFBCF0C
:10402000E5FFF1EC31F0E4CFFBFFE4CFFAFFE4CFA2
:10403000EAFFE4CFE9FFE4CFF4FFE4CFF3FFE4507D
:10404000E4CFE0FFE4CFD8FF1000D9CFE5FFE1CF08
:10405000D9FF00C0E5FF01C0E5FF02C0E5FF03C0D6
:10406000E5FF04C0E5FF05C0E5FF06C0E5FF07C0AA
:10407000E5FF08C0E5FF09C0E5FF0AC0E5FF0BC08A
:10408000E5FF0CC0E5FF0DC0E5FF0EC0E5FF0FC06A
:10409000E5FF10C0E5FF11C0E5FF12C0E5FF13C04A
:1040A000E5FF14C0E5FF15C0E5FF16C0E5FF17C02A
:1040B000E5FF18C0E5FF19C0E5FF1AC0E5FF1BC00A
:1040C000E5FF020EDBCF00F0030EDBCF01F0040EA4
:1040D000DBCF02F0050EDBCF03F0060EDBCF04F0E2
:1040E000070EDBCF05F0080EDBCF06F0090EDBCFA5
:1040F00007F00A0EDBCF08F00B0EDBCF09F00C0E39
:10410000DBCF0AF00D0EDBCF0BF00F0EDBCF0CF088
:104110000D6A0E6A03C00FF004C010F005C011F064
:1041200006C012F003500410051006101BE1300EFB
:104130000201A46FA56B0B50E56E0A50E56E800E70
:10414000E56E020EE56EA40EE56E0250E56E0150BE
:10415000E56E0050E56E6FEC25F0136E080EE1265B
:104160001350ECD0095036E008500A0A33E10750EA
:104170001CE00350096E0450136E0550146E065077
:10418000156ED88015AED89010E3010E0D6E151C7B
:10419000126E141C116E131C106E091C0F6E0F2A68
:1041A00004E1102A02E1114A122A075013E1D880D3
:1041B00004AED8900FE3010E0D6E041E036CD8B44C
:1041C000042A03C00FF004C010F0E86A04BEFF0E1A
:1041D000116E126E020E046EAF0E036E800E056E2F
:1041E000E56A03C0E9FF04C0F3FF31EC00F003C04F
:1041F00006F004C007F005C009F00F5010101110B0
:104200001210D8B45AD008C013F0146A156A166A8E
:10421000E56AE56AE56A1350E56E1250E56E1150E5
:10422000E56E1050E56E0F50E56E44EC2AF0176E07
:10423000F3CF18F0F4CF19F0E9CF1AF0080EE12609
:10424000000E1A5C08E1000E195C05E1000E185C16
:1042500002E10A0E175C06E30CC01BF0C60E1B261B
:104260001B501726FF0E062607220922300E17269E
:1042700017C0E5FF06C0E9FF07C0F3FF095031ECA6
:1042800000F01650E56E1550E56E1450E56E1350B3
:10429000E56E1250E56E1150E56E1050E56E0F5050
:1042A000E56E06EC2CF00F6EF3CF10F0F4CF11F0AA
:1042B000E9CF12F0080EE126A0D706C003F007C030
:1042C00004F009C005F00D5021E00A5012E00BA2E5
:1042D00010D02D0EE56E0250E56E0150E56E0050D7
:1042E000E56E92EC2CF0040EE126010E0E6E0A062D
:1042F0000DD0FF0E0326042205222D0EE56E03C00D
:10430000E9FF04C0F3FF055031EC00F00B50E56EFF
:104310000A50E56E0550E56E0450E56E0350E56EFB
:104320000250E56E0150E56E0050E56E6FEC25F031
:10433000006E080EE1260E5000260050E4CF1BF060
:10434000E4CF1AF0E4CF19F0E4CF18F0E4CF17F07F
:10435000E4CF16F0E4CF15F0E4CF14F0E4CF13F07F
:10436000E4CF12F0E4CF11F0E4CF10F0E4CF0FF07F
:10437000E4CF0EF0E4CF0DF0E4CF0CF0E4CF0BF07F
:10438000E4CF0AF0E4CF09F0E4CF08F0E4CF07F07F
:10439000E4CF06F0E4CF05F0E4CF04F0E4CF03F07F
:1043A000E4CF02F0E4CF01F0E4CF00F0E4CFD9FF96
:1043B0001200D9CFE5FFE1CFD9FF00C0E5FF01C072
:1043C000E5FF02C0E5FF03C0E5FF04C0E5FF05C04F
:1043D000E5FF06C0E5FF07C0E5FF08C0E5FF09C02F
:1043E000E5FF0AC0E5FF020EDBCF00F0030EDBCFD6
:1043F00001F0040EDBCF02F0050EDBCF03F0060E5A
:10440000DBCF04F0E56AE56AE56AE56A0350E56E2C
:104410000250E56E0150E56E0050E56E77EC2BF032
:10442000056E080EE126055006E02D0EE56EE5EC62
:104430001FF0E652037E056A066A076A3F0E086EA1
:10444000096A0450095C1BE2410EE56E200EE56E20
:10445000E56AE56A0850E56E0750E56E0650E56EC0
:104460000550E56E7DEC1DF0056EF3CF06F0F4CF40
:1044700007F0E9CF08F0080EE126092AE2D7085034
:10448000E56E0750E56E0650E56E0550E56E03508B
:10449000E56E0250E56E0150E56E0050E56E1EECD3
:1044A00018F0006EF3CF01F0F4CF02F0E9CF03F083
:1044B000080EE1260350E56E0250E56E0150E56EF0
:1044C0000050E56E85EC32F0056EF3CF06F0040E79
:1044D000E1260650E56E0550E56EF2EC34F0076E0D
:1044E000F3CF08F0F4CF09F0E9CF0AF0E652E65234
:1044F0000A50E56E0950E56E0850E56E0750E56E0E
:104500000350E56E0250E56E0150E56E0050E56E19
:1045100010EC27F0006EF3CF01F0F4CF02F0E9CFFA
:1045200003F0080EE1260A0EE56E0650E56E055012
:10453000E56EA7EC29F0030EE126045005E02E0EEF
:10454000E56EE5EC1FF0E65204C005F004060550E8
:10455000D8B45CD00350E56E0250E56E0150E56EB4
:104560000050E56E410EE56E200EE56E000EE56A28
:10457000E56AEAEC19F0006EF3CF01F0F4CF02F037
:10458000E9CF03F0080EE1260350E56E0250E56E18
:104590000150E56E0050E56E85EC32F0056E040EBC
:1045A000E12605C006F00A0EE56EE56A0650E56EE6
:1045B000A7EC29F0030EE126E56A0550E56E48EC0C
:1045C00034F0056EF3CF06F0F4CF07F0E9CF08F032
:1045D000E652E6520850E56E0750E56E0650E56E6D
:1045E0000550E56E0350E56E0250E56E0150E56E34
:1045F0000050E56E10EC27F0006EF3CF01F0F4CF21
:1046000002F0E9CF03F0080EE1269ED7E4CF0AF0CE
:10461000E4CF09F0E4CF08F0E4CF07F0E4CF06F0F0
:10462000E4CF05F0E4CF04F0E4CF03F0E4CF02F0F0
:10463000E4CF01F0E4CF00F0E4CFD9FF1200D9CFEE
:10464000E5FFE1CFD9FF00C0E5FF01C0E5FF02C0F3
:10465000E5FF03C0E5FF020EDBCF00F0030EDBCF6A
:1046600001F001500CE1630E0024026E036A020E99
:10467000032202C0E9FF03C0EAFFEF6A0CD0630E19
:104680000024026E036A020E032202C0E9FF03C087
:10469000EAFF010EEF6E005001E164D00050010A04
:1046A00001E16AD00050020A01E16ED00050030A15
:1046B00001E173D00050090A39E000500A0A01E113
:1046C0003ED000500B0A01E144D000500D0A01E138
:1046D0006DD000500E0A01E19AD000500F0A01E19E
:1046E000A0D00050100A01E1ADD00050120A01E143
:1046F0007BD00050130A01E181D00050160A01E17D
:1047000069D00050170A01E194D00050180A01E165
:10471000A3D00050190A01E1B2D000501A0A01E1F9
:10472000A4D000501C0A01E14BD0B2D00150010BC3
:10473000E838F46EF250EF0BF410F26EA9D001508D
:10474000010BE838E840F46EF050F70BF410F06E0F
:104750009FD00150010BE838F46EF050EF0BF410CD
:10476000F06E96D00150010BE838E844F46EF25038
:10477000DF0BF410F26E8CD00150010BF46E9D50E3
:10478000FE0BF4109D6E84D00150010BE844F46ED2
:104790009D50FD0BF4109D6E7BD00150010BE84441
:1047A000F46EA050FD0BF410A06E72D00150010BFE
:1047B000E838E840F46EF250F70BF410F26E68D06F
:1047C0000150010BE838E844F46EA050DF0BF41000
:1047D000A06E5ED00150010BE840E840F46E9D50A1
:1047E000BF0BF4109D6E54D00150010BE838E84423
:1047F000F46E9D50DF0BF4109D6E4AD00150010BFA
:10480000E838F46E9D50EF0BF4109D6E41D00150CE
:10481000010BE844E844F46E9D50FB0BF4109D6ED0
:1048200037D00150010BF46EA050FE0BF410A06EB7
:104830002FD00150010BE840F46EA0507F0BF41014
:10484000A06E26D00150010BE840E840F46EA05065
:10485000BF0BF410A06E1CD00150010BE838F46EB1
:10486000A050EF0BF410A06E13D00150010BE838EC
:10487000E840F46EA050F70BF410A06E09D0015080
:10488000010BE844E844F46EA050FB0BF410A06E5A
:10489000E4CF03F0E4CF02F0E4CF01F0E4CF00F086
:1048A000E4CFD9FF1200D9CFE5FFE1CFD9FF00C097
:1048B000E5FF01C0E5FF02C0E5FF03C0E5FF04C05E
:1048C000E5FF05C0E5FF06C0E5FF020EDBCF00F007
:1048D000030EDBCF01F0040EDBCF02F0050EDBCFC1
:1048E00003F0060EDBCF04F0070EDBCF05F0066AFF
:1048F00002016351D8A4E2D0010E636F0201D36BB1
:10490000D46B04500201DB6F0550DC6F00500201D4
:10491000006F0150016F0250026F010E035CD8A0BE
:10492000C3D0040E035CD8B0BFD00306FA6AFB6A9A
:104930000334FA36E834FA36FC0B4A0FE56E490EBA
:10494000FA22000EFB22E450F96EABEF24F0F5EFF3
:1049500024F033EF25F0D8900201CC31036ECB3137
:10496000026ECA31016EC931006ED8900332023234
:1049700001320032E56AE56A030EE56EE80EE56E87
:104980000350E56E0250E56E0150E56E0050E56E95
:1049900006EC2CF0006EF3CF01F0F4CF02F0E9CF7B
:1049A00003F0080EE126E56AE56A030EE56EE80EFF
:1049B000E56E0350E56E0250E56E0150E56E005065
:1049C000E56E06EC2CF0006EF3CF01F0080EE12648
:1049D0000050FF08FF0E01540201EB6F0050FF086A
:1049E0000201EF6F080E066E5FD0D8900201CC3145
:1049F000056ECB31046ECA31036EC931026ED89098
:104A00000532043203320232E56AE56A030EE56ECE
:104A1000E80EE56E0550E56E0450E56E0350E56E58
:104A20000250E56E06EC2CF0026EF3CF03F0F4CFEB
:104A300004F0E9CF05F0080EE126D89005320432E3
:104A4000033202320250006E0350016E0050FF0824
:104A5000FF0E01540201EB6F0050FF080201EF6FDF
:104A6000080E066E21D0D8900201CC31056ECB31F4
:104A7000046ECA31036EC931D89005320432033254
:104A80000350026E0450036E0250006E0350016E1C
:104A90000050FF08FF0E01540201EB6F0050FF08A9
:104AA0000201EF6F070E066EF194F28AF294EBC2E8
:104AB000D7FFEFC2D6FF06C0D5FFE86AE4CF06F005
:104AC000E4CF05F0E4CF04F0E4CF03F0E4CF02F04C
:104AD000E4CF01F0E4CF00F0E4CFD9FF1200D9CF4A
:104AE000E5FFE1CFD9FF00C0E5FF01C0E5FF02C04F
:104AF000E5FF03C0E5FF04C0E5FF05C0E5FF06C014
:104B0000E5FF07C0E5FF08C0E5FF09C0E5FF0AC0F3
:104B1000E5FF0BC0E5FF0CC0E5FF0DC0E5FF0EC0D3
:104B2000E5FF020EDBCF00F0030EDBCF01F0040E39
:104B3000DBCF02F0050EDBCF03F0060EDBCF04F077
:104B4000070EDBCF05F0080EDBCF06F0090EDBCF3A
:104B500007F0086A200E096E065022E00A6A03C0B8
:104B60000BF004C00CF005C00DF00BC0E9FF0CC049
:104B7000F3FF0D5029EC00F00E6E0E5006E00A2AED
:104B80000B2AF3E30C4A0D2AF0D706500A5C02E325
:104B9000066A02D00A50065E07A202D0300E096EE5
:104BA00007B019D0076A06C00AF00A5005E107C02D
:104BB00008F00AC006F00FD00950E56E0250E56E0D
:104BC0000150E56E0050E56E92EC2CF0040EE126EB
:104BD000072A0A06EAD708C007F003C0E9FF04C0A5
:104BE000F3FF055029EC00F0086E085012E0085061
:104BF000E56E0250E56E0150E56E0050E56E92ECF8
:104C00002CF0040EE126072A032AE7E3044A052ACA
:104C1000E4D707C003F006C004F004500FE00950C9
:104C2000E56E0250E56E0150E56E0050E56E92ECC7
:104C30002CF0040EE126032A0406EFD7F36A035092
:104C4000E4CF0EF0E4CF0DF0E4CF0CF0E4CF0BF0A6
:104C5000E4CF0AF0E4CF09F0E4CF08F0E4CF07F0A6
:104C6000E4CF06F0E4CF05F0E4CF04F0E4CF03F0A6
:104C7000E4CF02F0E4CF01F0E4CF00F0E4CFD9FFBD
:104C80001200D9CFE5FFE1CFD9FF00C0E5FF01C099
:104C9000E5FF02C0E5FF03C0E5FF04C0E5FF05C076
:104CA000E5FF06C0E5FF07C0E5FF08C0E5FF09C056
:104CB000E5FF0AC0E5FF0BC0E5FF0CC0E5FF0DC036
:104CC000E5FF020EDBCF00F0030EDBCF01F0040E98
:104CD000DBCF02F0050EDBCF03F0060EDBCF04F0D6
:104CE000070EDBCF05F0080EDBCF06F0090EDBCF99
:104CF00007F0D88003AED890086A083608500FE055
:104D0000031C0C6E021C0B6E011C0A6E001C096E4B
:104D1000092A0DE10A2A0BE10B4A0C2A08D000C02F
:104D200009F001C00AF002C00BF003C00CF0D880FB
:104D300007AED890006A003600500FE0071C0D6ED9
:104D4000061C036E051C026E041C016E012A0DE197
:104D5000022A0BE1034A0D2A08D004C001F005C065
:104D600002F006C003F007C00DF00D50E56E0350D1
:104D7000E56E0250E56E0150E56E0C50E56E0B508D
:104D8000E56E0A50E56E0950E56E06EC2CF0016EFA
:104D9000F3CF02F0F4CF03F0E9CF04F0080EE126E0
:104DA0000050081A085016E0041C076E031C066E1B
:104DB000021C056E011C006E002A04E1052A02E1B6
:104DC000064A072A07C0E9FF06C0F4FF05C0F3FF43
:104DD000005007D004C0E9FF03C0F4FF02C0F3FF96
:104DE0000150E4CF0DF0E4CF0CF0E4CF0BF0E4CFB2
:104DF0000AF0E4CF09F0E4CF08F0E4CF07F0E4CF05
:104E000006F0E4CF05F0E4CF04F0E4CF03F0E4CF04
:104E100002F0E4CF01F0E4CF00F0E4CFD9FF1200BC
:104E2000D9CFE5FFE1CFD9FF00C0E5FF01C0E5FF25
:104E300002C0E5FF03C0E5FF04C0E5FF05C0E5FFD4
:104E400006C0E5FF07C0E5FF020EDBCF00F0030E52
:104E5000DBCF01F0040EDBCF02F0050EDBCF03F059
:104E6000060EDBCF04F0070EDBCF05F0080EDBCF1C
:104E700006F0090EDBCF07F000500301186F015058
:104E8000196F02501A6F03501B6F045003011C6FFF
:104E900005501D6F06501E6F07501F6F1C511D11CE
:104EA0001E111F1109E11BC3E9FF1AC3F4FF19C347
:104EB000F3FF030118514BD00301185119111A11B6
:104EC0001B1111E11CC300F01DC301F01EC302F051
:104ED0001FC303F0037E03C0E9FF02C0F4FF01C05B
:104EE000F3FF005034D003011C51006E1D51016EC0
:104EF0001E51026E1F51036E037E00501C6F015045
:104F00001D6F02501E6F03501F6FE56E1E51E56E40
:104F10001D51E56E1C51E56E03011B51E56E1A51E2
:104F2000E56E1951E56E1851E56E1EEC18F0006E35
:104F3000F3CF01F0F4CF02F0E9CF03F0080EE12641
:104F400003C0E9FF02C0F4FF01C0F3FF0050E4CF4B
:104F500007F0E4CF06F0E4CF05F0E4CF04F0E4CFAF
:104F600003F0E4CF02F0E4CF01F0E4CF00F0E4CFAF
:104F7000D9FF1200D9CFE5FFE1CFD9FF00C0E5FF8F
:104F800001C0E5FF02C0E5FF03C0E5FF04C0E5FF87
:104F900005C0E5FF06C0E5FF07C0E5FF08C0E5FF67
:104FA000020EDBCF00F0030EDBCFCDF2040EDBCF21
:104FB000CEF2050EDBCFCFF2060EDBCF01F0070EEF
:104FC000DBCF02F0080EDBCF03F0090EDBCF04F0DD
:104FD0000A0EDBCF05F00B0EDBCF06F00C0EDBCF9D
:104FE00007F00D0EDBCF08F001500201E36F025015
:104FF000E46F0350E56F0450E66F0550E76F06500D
:10500000E86F0750E96F0850EA6FE56A0201CD5179
:10501000E56E03EC2EF0E652E652E56A0201CF514E
:10502000E56E03EC2EF0E652E65200501BE0030161
:10503000396B006AE30E0024016E026A020E02223E
:1050400001C0E9FF02C0EAFFEFCF01F0E56A0150BD
:10505000E56E03EC2EF0E652E652002A040E005CE8
:10506000E9E31BD0100E0301396F006AE30E002440
:10507000016E026A020E022201C0E9FF02C0EAFFCD
:10508000EFCF01F0E56A0150E56E03EC2EF0E65239
:10509000E652002A080E005CE9E3E4CF08F0E4CF12
:1050A00007F0E4CF06F0E4CF05F0E4CF04F0E4CF5E
:1050B00003F0E4CF02F0E4CF01F0E4CF00F0E4CF5E
:1050C000D9FF1200D9CFE5FFE1CFD9FF00C0E5FF3E
:1050D00001C0E5FF020EDBCF00F0030EDBCF01F0D5
:1050E000020E005C02E30301398700C03AF30301BA
:1050F000386B015005E00050010A02E103013985D7
:10510000E56A0F0EE56E0DEC34F0E652E652E56A04
:105110000201CD51E56E78EC2EF0E652E652E56ADA
:105120000201CF51E56E78EC2EF0E652E652030113
:1051300039B92AD0030EE56E8EEC33F0E652E56AFB
:10514000050EE56E0DEC34F0E652E652030EE56E08
:105150008EEC33F0E652E56A960EE56E84EC35F09F
:10516000E652E652030EE56E8EEC33F0E652E56A47
:10517000960EE56E84EC35F0E652E652020EE56ED0
:105180008EEC33F0E65224D0200E03013911E56E87
:10519000C2EC35F0E652110EE56E940EE56E84EC2D
:1051A00035F0E652E652200E03013911E56EC2ECED
:1051B00035F0E652E56A960EE56E84EC35F0E6527F
:1051C000E652200E03013911E56EC2EC35F0E652CD
:1051D000200E03013911E56EC2EC35F0E652040EE3
:1051E00003013B6FC1EC36F075EC36F0020E0301A3
:1051F0003C6F060EE56EC2EC35F0E652E4CF01F0EE
:10520000E4CF00F0E4CFD9FF1200D9CFE5FFE1CF22
:10521000D9FF00C0E5FF01C0E5FF02C0E5FF03C004
:10522000E5FF04C0E5FF020EDBCF00F0A80E00246E
:10523000016E026A3A0E0222036A000E032201C0C6
:10524000F6FF02C0F7FF03C0F8FF0900F5CF01F039
:105250002FC3E9FF30C3F3FF0301315129EC00F004
:10526000026E01500216025033E1BC0E0024026EA1
:10527000036A3A0E0322046A000E042202C0F6FFFB
:1052800003C0F7FF04C0F8FF0900F5CF02F0036A7E
:10529000800E02260F0E032203500301306F0250CE
:1052A0002F6F800E316F2FC3E9FF30C3F3FF3151F1
:1052B00029EC00F0026E0150021202C0E5FF2FC37C
:1052C000E9FF30C3F3FF0301315131EC00F032D07C
:1052D000026A036ABC0E00263A0E0222000E032266
:1052E00000C0F6FF02C0F7FF03C0F8FF0900F5CFCA
:1052F00000F0026A800E00260F0E02220250030107
:10530000306F00502F6F800E316F2FC3E9FF30C315
:10531000F3FF315129EC00F0006E0150FF08001638
:1053200000C0E5FF2FC3E9FF30C3F3FF0301315194
:1053300031EC00F0E4CF04F0E4CF03F0E4CF02F06E
:10534000E4CF01F0E4CF00F0E4CFD9FF1200D9CFD1
:10535000E5FFE1CFD9FF00C0E5FF01C0E5FF02C0D6
:10536000E5FF03C0E5FF04C0E5FF05C0E5FF06C09B
:10537000E5FF07C0E5FF08C0E5FF09C0E5FF020E35
:10538000DBCF00F0030EDBCF01F0040EDBCF02F029
:105390000050011006E1300EE56EE5EC1FF0E6521C
:1053A0005CD0036A046A005001102FE003C005F0CE
:1053B00004C006F0034A042A840E0526020E0622C3
:1053C00002C007F0086AE56A0750E56E0150E56E15
:1053D0000050E56E5BEC2FF0096E040EE12605C06F
:1053E000E9FF06C0EAFF09C0EFFF0850E56E07506D
:1053F000E56E0150E56E0050E56E10EC30F0006E89
:10540000F3CF01F0040EE126CED703C000F004C0B4
:1054100001F00050011021E00004026E036A840EC6
:105420000226020E032202C0E9FF03C0EAFFEFCF0B
:1054300002F00A0E025C05E20250036E300E0326F3
:1054400003D0370E0224036E0350E56EE5EC1FF027
:10545000E652FF0E00260122DCD7E4CF09F0E4CFAC
:1054600008F0E4CF07F0E4CF06F0E4CF05F0E4CF96
:1054700004F0E4CF03F0E4CF02F0E4CF01F0E4CF96
:1054800000F0E4CFD9FF1200D9CFE5FFE1CFD9FF7B
:1054900000C0E5FF01C0E5FF02C0E5FF03C0E5FF76
:1054A00004C0E5FF05C0E5FF06C0E5FF07C0E5FF56
:1054B00008C0E5FF09C0E5FF0AC0E5FF020EDBCF2B
:1054C00000F0030EDBCF01F0040EDBCF02F0050E7F
:1054D000DBCF03F0060EDBCF04F0070EDBCF05F0C9
:1054E000080EDBCF06F0090EDBCF07F0086A045088
:1054F00005100610071005E1E968F468F368E8682C
:1055000047D0096A0750800BE8440A6E0A501BE135
:10551000045004260536063607360750035C08E1BA
:105520000650025C05E10550015C02E10450005C9C
:1055300006E2D890073206320532043204D0092A36
:1055400009C008F0DFD70750035C08E10650025C91
:1055500005E10550015C02E10450005C08E30450E1
:10556000005E0550015A0650025A0750035AD8905F
:10557000073206320532043208C009F00806095025
:10558000E2E103C0E9FF02C0F4FF01C0F3FF0050F5
:10559000E4CF0AF0E4CF09F0E4CF08F0E4CF07F05D
:1055A000E4CF06F0E4CF05F0E4CF04F0E4CF03F05D
:1055B000E4CF02F0E4CF01F0E4CF00F0E4CFD9FF74
:1055C0001200D9CFE5FFE1CFD9FF00C0E5FF01C050
:1055D000E5FF02C0E5FF03C0E5FF04C0E5FF05C02D
:1055E000E5FF06C0E5FF07C0E5FF08C0E5FF09C00D
:1055F000E5FF0AC0E5FF0BC0E5FF0CC0E5FF0DC0ED
:10560000E5FF020EDBCF00F0030EDBCF01F0040E4E
:10561000DBCF02F0050EDBCF03F0060EDBCF04F08C
:10562000070EDBCF05F0080EDBCF06F0090EDBCF4F
:1056300007F00A0EDBCF08F00B0EDBCF09F006C037
:105640000AF00B6A07C00CF00D6A0C500A260D50C8
:105650000B2208C00CF00C500A260D500B2209C07A
:105660000CF00C500A260D500B220A5005E10B508D
:1056700003E10A6A0A2A01D00A6A0950E56E085055
:10568000E56E0750E56E0650E56E0550E56E045078
:10569000E56E0350E56E0250E56E0150E56EE5687B
:1056A0000050E56E0A50E56EBAEC27F00C0EE126CC
:1056B000E4CF0DF0E4CF0CF0E4CF0BF0E4CF0AF030
:1056C000E4CF09F0E4CF08F0E4CF07F0E4CF06F030
:1056D000E4CF05F0E4CF04F0E4CF03F0E4CF02F030
:1056E000E4CF01F0E4CF00F0E4CFD9FF1200D9CF2E
:1056F000E5FFE1CFD9FF00C0E5FF01C0E5FF02C033
:10570000E5FF03C0E5FF04C0E5FF05C0E5FF06C0F7
:10571000E5FF07C0E5FF020EDBCF00F0030EDBCF95
:1057200001F0040EDBCF02F0050EDBCF03F0060E16
:10573000DBCF04F0070EDBCF05F0080EDBCF06F061
:10574000090EDBCF07F000500201FB6F0150FC6F28
:105750000250FD6F0350FE6F04500301006F0550AF
:10576000016F0650026F0750036FD8800201FEAF31
:10577000D8901FE3D880030103AFD8901AE30351F8
:10578000800FF36E0201FE51800FF35C0DE1FD51BD
:105790000301025D09E10201FC510301015D04E125
:1057A0000201FB510301005D02E2010E1CD0E86A18
:1057B0001AD00201FE51800FF36E03010351800FD6
:1057C000F35C0DE102510201FD5D09E103010151AC
:1057D0000201FC5D04E1030100510201FB5D02E2F4
:1057E000010E01D0E86AE4CF07F0E4CF06F0E4CF81
:1057F00005F0E4CF04F0E4CF03F0E4CF02F0E4CF0F
:1058000001F0E4CF00F0E4CFD9FF1200D9CFE5FFDB
:10581000E1CFD9FF00C0E5FF01C0E5FF02C0E5FF11
:1058200003C0E5FF04C0E5FF05C0E5FF06C0E5FFD6
:1058300007C0E5FF08C0E5FF09C0E5FF0AC0E5FFB6
:105840000BC0E5FF0CC0E5FF0DC0E5FF020EDBCF8E
:1058500000F0030EDBCF01F0040EDBCF02F0050EEB
:10586000DBCF03F0060EDBCF04F0070EDBCF05F035
:10587000080EDBCF06F0090EDBCF07F0086A096AD5
:105880000A6A0B6A200E0C6E0350800BE8440D6E02
:105890000050002601360236033608500826093625
:1058A0000A360B360D50D8A4088007500B5C08E16F
:1058B00006500A5C05E10550095C02E10450085CF1
:1058C00009E30450085E0550095A06500A5A075069
:1058D0000B5A00800C2ED8D703C0E9FF02C0F4FF9A
:1058E00001C0F3FF0050E4CF0DF0E4CF0CF0E4CFA3
:1058F0000BF0E4CF0AF0E4CF09F0E4CF08F0E4CFF6
:1059000007F0E4CF06F0E4CF05F0E4CF04F0E4CFF5
:1059100003F0E4CF02F0E4CF01F0E4CF00F0E4CFF5
:10592000D9FF1200D9CFE5FFE1CFD9FF00C0E5FFD5
:1059300001C0E5FF02C0E5FF03C0E5FF04C0E5FFCD
:1059400005C0E5FF06C0E5FF020EDBCF00F0030E49
:10595000DBCF01F0040EDBCF02F0050EDBCF03F04E
:1059600000500110021033E000C0E9FF01C0F3FF56
:1059700002502DEC00F0046EF3CF05F0F4CF06F0EA
:1059800003C0E5FF04C0E9FF05C0F3FF065031EC9A
:1059900000F000C0E9FF01C0F3FF02502DEC00F061
:1059A000046EF3CF05F0F4CF06F0042A02E3054AB3
:1059B000062A04C0E5FF05C0F4FF06C0F6FF00C0DC
:1059C000E9FF01C0F3FF025035EC00F016D00350A0
:1059D000E56EF2CFE5FFF29E0500F80EFD6E590E62
:1059E000FE6E000EFF6EE4BEF28E2EC3FBFF2DC3D3
:1059F000FAFF03012C51F96EE652E4CF06F0E4CF32
:105A000005F0E4CF04F0E4CF03F0E4CF02F0E4CFFC
:105A100001F0E4CF00F0E4CFD9FF1200D9CFE5FFC9
:105A2000E1CFD9FF00C0E5FF01C0E5FF02C0E5FFFF
:105A300003C0E5FF04C0E5FF05C0E5FF06C0E5FFC4
:105A400007C0E5FF020EDBCF00F0030EDBCF01F055
:105A5000040EDBCF02F0050EDBCF03F0D88003AEDF
:105A6000D8902AE3031C076E021C066E011C056E0B
:105A7000001C046E042A04E1052A02E1064A072AF2
:105A80000750E56E0650E56E0550E56E0450E56E74
:105A90003AEC1FF0046EF3CF05F0F4CF06F0E9CF37
:105AA00007F0040EE126077E07C0E9FF06C0F4FFF9
:105AB00005C0F3FF04501AD00350E56E0250E56EA6
:105AC0000150E56E0050E56E3AEC1FF0006EF3CF2A
:105AD00001F0F4CF02F0E9CF03F0040EE12603C099
:105AE000E9FF02C0F4FF01C0F3FF0050E4CF07F06C
:105AF000E4CF06F0E4CF05F0E4CF04F0E4CF03F008
:105B0000E4CF02F0E4CF01F0E4CF00F0E4CFD9FF1E
:105B10001200D9CFE5FFE1CFD9FF00C0E5FF01C0FA
:105B2000E5FF02C0E5FF03C0E5FF04C0E5FF05C0D7
:105B3000E5FF020EDBCF00F0030EDBCF01F0040E19
:105B4000DBCF02F0050EDBCF03F000500301146F32
:105B50000150156F0250166F0350176F1451151135
:105B60001611171106E01751800BE844006E005023
:105B700005E0E96AF46AF36AE86A36D00301145171
:105B80001651026E1751036E02340334006E016A1F
:105B90006A0E0026FF0E01221451026E1551036E8B
:105BA0001651046E1751049E056A048E011E006C86
:105BB000D8B4012A005011E009E6E86CD89005320B
:105BC000043203320232010FFAE307D0D8900236D2
:105BD000033604360536010FFAE305C0E9FF04C0B9
:105BE000F4FF03C0F3FF0250E4CF05F0E4CF04F06C
:105BF000E4CF03F0E4CF02F0E4CF01F0E4CF00F013
:105C0000E4CFD9FF1200D9CFE5FFE1CFD9FF00C023
:105C1000E5FF01C0E5FF02C0E5FF03C0E5FF04C0EA
:105C2000E5FF020EDBCF00F0030EDBCF01F0A80E84
:105C30000024026E036A3A0E0322046A000E042254
:105C400002C0F6FF03C0F7FF04C0F8FF0900F5CF5C
:105C500002F0036A046ABC0E00263A0E0322000E0C
:105C6000042200C0F6FF03C0F7FF04C0F8FF0900DC
:105C7000F5CF00F0036A920E00260F0E0322800E6D
:105C8000046E015014E000C0E9FF03C0F3FF0450AC
:105C900029EC00F0016E0250011201C0E5FF00C0C6
:105CA000E9FF03C0F3FF045031EC00F014D000C052
:105CB000E9FF03C0F3FF045029EC00F0016E02502D
:105CC000FF08011601C0E5FF00C0E9FF03C0F3FFB4
:105CD000045031EC00F0E4CF04F0E4CF03F0E4CF63
:105CE00002F0E4CF01F0E4CF00F0E4CFD9FF1200DE
:105CF000D9CFE5FFE1CFD9FF00C0E5FF01C0E5FF47
:105D000002C0E5FF03C0E5FF04C0E5FF020EDBCFE4
:105D100000F0030EDBCF01F0A80E0024026E036A30
:105D20003A0E0322046A000E042202C0F6FF03C0EA
:105D3000F7FF04C0F8FF0900F5CF02F0036A046A18
:105D4000BC0E00263A0E0322000E042200C0F6FF0D
:105D500003C0F7FF04C0F8FF0900F5CF00F0036AA5
:105D6000800E00260F0E0322800E046E015014E0F8
:105D700000C0E9FF03C0F3FF045029EC00F0016EFE
:105D80000250011201C0E5FF00C0E9FF03C0F3FFAC
:105D9000045031EC00F014D000C0E9FF03C0F3FF61
:105DA000045029EC00F0016E0250FF08011601C0FA
:105DB000E5FF00C0E9FF03C0F3FF045031EC00F041
:105DC000E4CF04F0E4CF03F0E4CF02F0E4CF01F03D
:105DD000E4CF00F0E4CFD9FF1200D9CFE5FFE1CF47
:105DE000D9FF00C0E5FF020EDBCF00F0005001E15B
:105DF0003ED00050010A01E13CD00050020A3BE0D5
:105E00000050030A3AE00050090A2BE000500A0A49
:105E10002AE000500B0A29E000500D0A30E0005043
:105E20000E0A37E000500F0A36E00050100A37E043
:105E30000050120A2AE00050130A29E00050160A06
:105E400022E00050170A29E00050180A2AE000500A
:105E5000190A2BE000501A0A26E000501C0A11E033
:105E600025D0F29223D0F09021D0F0921FD0F2945E
:105E70001DD09E901BD09E9219D0A19217D0F29067
:105E800015D0A19A13D09E9C11D09E9A0FD09E98A7
:105E90000DD09E940BD0A19009D0A19E07D0A19CBB
:105EA00005D0A19803D0A19601D0A194E4CF00F031
:105EB000E4CFD9FF1200D9CFE5FFE1CFD9FF00C071
:105EC000E5FF01C0E5FF02C0E5FF03C0E5FF04C038
:105ED000E5FF05C0E5FF06C0E5FF020EDBCF00F0E1
:105EE000030EDBCF01F0040EDBCF02F0050EDBCF9B
:105EF00003F0046A056A0350800BE844066E0650FE
:105F000011E10250022603360350015C02E1025007
:105F1000005C04E2D8900332023204D0052A05C0A6
:105F200004F0E9D70350015C02E10250005C04E395
:105F30000250005E0350015AD8900332023204C06E
:105F400005F004060550EEE101C0F3FF0050E4CF78
:105F500006F0E4CF05F0E4CF04F0E4CF03F0E4CFA3
:105F600002F0E4CF01F0E4CF00F0E4CFD9FF12005B
:105F7000D9CFE5FFE1CFD9FF00C0E5FF01C0E5FFC4
:105F800002C0E5FF03C0E5FF04C0E5FF05C0E5FF73
:105F900006C0E5FF07C0E5FF020EDBCF00F0030EF1
:105FA000DBCF01F0040EDBCF02F0050EDBCF03F0F8
:105FB0000250046E0350056E066A076A0450F86EBC
:105FC0000150046E0250056E0350066E076A0450BD
:105FD000F76E0050F66E0900F5CF00F00900F5CF1E
:105FE00001F0026A0150046E036A056A005003263C
:105FF0000550042204C0F3FF0350E4CF07F0E4CFC0
:1060000006F0E4CF05F0E4CF04F0E4CF03F0E4CFF2
:1060100002F0E4CF01F0E4CF00F0E4CFD9FF1200AA
:10602000D9CFE5FFE1CFD9FF00C0E5FF01C0E5FF13
:1060300002C0E5FF03C0E5FF04C0E5FF05C0E5FFC2
:1060400006C0E5FF07C0E5FF020EDBCF00F0030E40
:10605000DBCF01F0040EDBCF02F0050EDBCF03F047
:10606000046A056A100E066E0150800BE844076E44
:106070000050002601360450042605360750D8A4E7
:1060800004800350055C02E10250045C05E3025009
:10609000045E0350055A0080062EE6D701C0F3FFC8
:1060A0000050E4CF07F0E4CF06F0E4CF05F0E4CFF2
:1060B00004F0E4CF03F0E4CF02F0E4CF01F0E4CF4A
:1060C00000F0E4CFD9FF1200D9CFE5FFE1CFD9FF2F
:1060D00000C0E5FF01C0E5FF02C0E5FF03C0E5FF2A
:1060E00004C0E5FF05C0E5FF020EDBCF32F3030E6F
:1060F000DBCF33F3040EDBCF34F3050EDBCF00F040
:10610000060EDBCF01F0070EDBCF02F0080EDBCF6F
:1061100003F0090EDBCF04F00A0EDBCF05F00550CB
:10612000E56E0450E56E0350E56E0250E56E0150D9
:10613000E56E0050E56E800EE56E030EE56E320EE4
:10614000E56E33EC10F0006E090EE1260050E4CF4E
:1061500005F0E4CF04F0E4CF03F0E4CF02F0E4CFA5
:1061600001F0E4CF00F0E4CFD9FF1200D9CFE5FF72
:10617000E1CFD9FF00C0E5FF01C0E5FF02C0E5FFA8
:1061800003C0E5FF020EDBCF00F0BC0E0024016E61
:10619000026A3A0E0222036A000E032201C0F6FFD1
:1061A00002C0F7FF03C0F8FF0900F5CF01F0026A53
:1061B000800E01260F0E0222800E01C0E9FF02C0F0
:1061C000F3FF29EC00F0016E026A036AA80E0026B4
:1061D0003A0E0222000E032200C0F6FF02C0F7FFB3
:1061E00003C0F8FF0900F5CF00F000500116015080
:1061F00002E1E86A01D0010EE4CF03F0E4CF02F03F
:10620000E4CF01F0E4CF00F0E4CFD9FF1200D9CF02
:10621000E5FFE1CFD9FF00C0E5FF01C0E5FF02C007
:10622000E5FF03C0E5FF04C0E5FF05C0E5FF020E82
:10623000DBCF2CF3030EDBCF2DF3040EDBCF2EF3DD
:10624000050EDBCF00F0060EDBCF01F0070EDBCF33
:1062500002F0080EDBCF03F0090EDBCF04F00A0ECC
:10626000DBCF05F00550E56E0450E56E0350E56E9A
:106270000250E56E0150E56E0050E56E000EE56AD5
:10628000E56AE56A33EC10F0006E090EE126005075
:10629000E4CF05F0E4CF04F0E4CF03F0E4CF02F064
:1062A000E4CF01F0E4CF00F0E4CFD9FF120000C04A
:1062B000E5FF01C0E5FF02C0E5FF03C0E5FFE56AB9
:1062C000300EE56E000EE56AE56AB8EC2FF0006E60
:1062D000040EE126180E0016016A026A840E0026DA
:1062E0003A0E0122000E022200C0F6FF01C0F7FFA5
:1062F00002C0F8FF0900F5CF00F0E56AE56AE56A3B
:106300000050E56E020EE56EDC0EE56E6C0EE56E7D
:10631000000EE56A41EC26F0006EF3CF01F0F4CFF9
:1063200002F0E9CF03F0080EE12603C0E9FF02C046
:10633000F4FF01C0F3FF0050E4CF03F0E4CF02F01C
:10634000E4CF01F0E4CF00F01200A40EF66E6D0E63
:10635000F76E000EF86E0900F550056E0900F55055
:10636000066E055002E106503BE00900F550006E54
:106370000900F550016E0900F550026E0900090090
:10638000F550E96E0900F550EA6E090009000900B0
:10639000F550036E0900F550046E09000900F6CFB0
:1063A00007F0F7CF08F0F8CF09F000C0F6FF01C002
:1063B000F7FF02C0F8FF035002E1045007E00900B4
:1063C000F550EE6E0306F8E20406F9D707C0F6FFB3
:1063D00008C0F7FF09C0F8FF0506C4E20606C5D7E6
:1063E000120000C0E5FF01C0E5FF02C0E5FF03C0E9
:1063F000E5FFF2AA38D0F2A436D0EBC2D7FFEFC245
:10640000D6FFF294D3C200F0D4C201F00050010FC5
:10641000026E000E0120036E02500201D36F035082
:10642000D46F0201DC51015C02E1DB51005C1BE333
:106430000201D36BD46B00C200F001C201F002C2B2
:1064400002F0F2CFE5FFF29E0500660EFD6E640ECF
:10645000FE6E000EFF6EE4BEF28E02C0FBFF01C0B6
:10646000FAFF0050F96EE4CF03F0E4CF02F0E4CF7E
:1064700001F0E4CF00F01200D9CFE5FFE1CFD9FF62
:1064800000C0E5FF01C0E5FF02C0E5FF03C0E5FF76
:1064900004C0E5FF050ED924006E000EDA20016E5F
:1064A000800E026E030E0026000E01220222020E52
:1064B000D924036E000EDA20046E0250E56E0150FE
:1064C000E56E0050E56E070EDBCFE5FF060EDBCF75
:1064D000E5FF050EDBCFE5FF800EE56E0450E56EAF
:1064E0000350E56E33EC10F0006E090EE12600500B
:1064F000E4CF04F0E4CF03F0E4CF02F0E4CF01F006
:10650000E4CF00F0E4CFD9FF1200D9CFE5FFE1CF0F
:10651000D9FF00C0E5FF01C0E5FF02C0E5FF03C0F1
:10652000E5FF020EDBCF00F0030EDBCF01F0040E1F
:10653000DBCF02F0050EDBCF03F00350E56E025017
:10654000E56E0150E56E0050E56E89EC2DF0006EB1
:10655000F3CF01F0F4CF02F0E9CF03F0040EE1260F
:10656000000E035C08E1000E025C05E1FF0E015C19
:1065700002E1FF0E005C03E3F368E86803D001C0AA
:10658000F3FF0050E4CF03F0E4CF02F0E4CF01F0DA
:10659000E4CF00F0E4CFD9FF1200D9CFE5FFE1CF7F
:1065A000D9FF00C0E5FF01C0E5FF02C0E5FF03C061
:1065B000E5FF04C0E5FF05C0E5FF020EDBCF00F0FC
:1065C000030EDBCF01F0040EDBCF02F0036A0350B1
:1065D0000024046EE86A0120056EE86A022004C007
:1065E000E9FF05C0F3FF29EC00F0046E045007E05A
:1065F0000450E56EE5EC1FF0E652032AE8D7E4CF3D
:1066000005F0E4CF04F0E4CF03F0E4CF02F0E4CFF0
:1066100001F0E4CF00F0E4CFD9FF120000C0E5FFA5
:1066200002C0E5FF04C0E5FF0201D02B3C0ED05DA7
:106630000DE3D06B0201D12B3C0ED15D07E3D16B92
:106640000201D22B180ED25D01E3D26B010EE56E72
:10665000040EE56ECEEC33F0E652E652D0C200F006
:10666000D1C202F0D2C204F0E56A0050E56EE56ADC
:106670000250E56EE56A0450E56E000EE56E3A0ED6
:10668000E56ED80EE56E82EC34F0090EE126E4CF1B
:1066900004F0E4CF02F0E4CF00F01200D9CFE5FF20
:1066A000E1CFD9FF00C0E5FF01C0E5FF02C0E5FF73
:1066B00003C0E5FF020EDBCF00F0016AE30E012408
:1066C000026E036A020E032202C0E9FF03C0EAFF62
:1066D000EFCF02F000C003F0015005E0E86CD89065
:1066E0000332010FFDE3010E03160350E56E025065
:1066F000E56E78EC2EF0E652E652012A080E015CB7
:10670000DDE300EC36F0E4CF03F0E4CF02F0E4CFB9
:1067100001F0E4CF00F0E4CFD9FF1200D9CFE5FFBC
:10672000E1CFD9FF00C0E5FF01C0E5FF02C0E5FFF2
:1067300003C0E5FF020EDBCF00F0016AE30E012487
:10674000026E036A020E032202C0E9FF03C0EAFFE1
:10675000EFCF02F000C003F0015005E0E86CD890E4
:106760000332010FFDE3010E03160350E56E0250E4
:10677000E56E78EC2EF0E652E652012A040E015C3A
:10678000DDE300EC36F0E4CF03F0E4CF02F0E4CF39
:1067900001F0E4CF00F0E4CFD9FF1200D9CFE5FF3C
:1067A000E1CFD9FF00C0E5FF01C0E5FF02C0E5FF72
:1067B000020EDBCF00F0030EDBCF01F00201F76B1E
:1067C000400EF86F140EF96F540EFA6F03013A5130
:1067D000010A07E1140E0201F86F280EF96F3C0E52
:1067E000FA6F026AF70E0126020E022201C0E9FFCB
:1067F00002C0EAFFEFCF01F001500026008E0050EA
:10680000E56EC2EC35F0E652E4CF02F0E4CF01F0E1
:10681000E4CF00F0E4CFD9FF1200D9CFE5FFE1CFFC
:10682000D9FF00C0E5FF01C0E5FF02C0E5FF03C0DE
:10683000E5FF04C0E5FF05C0E5FF020EDBCF00F079
:10684000030EDBCF01F0026A036A0150035C02E130
:106850000050025C0EE2010E37EC00F0590E046E9F
:106860000450056E0504046E0450FAE1024A032A3E
:10687000ECD7E4CF05F0E4CF04F0E4CF03F0E4CFAD
:1068800002F0E4CF01F0E4CF00F0E4CFD9FF120032
:10689000D9CFE5FFE1CFD9FF00C0E5FF01C0E5FF9B
:1068A00002C0E5FF03C0E5FF020EDBCF00F0030EE0
:1068B000DBCF01F0E86A01BEFF0E026EE56E02500A
:1068C000E56E0150E56E0050E56E0EEC2DF0006EA9
:1068D000F3CF01F0F4CF02F0E9CF03F0040EE1268C
:1068E00003C0E9FF02C0F4FF01C0F3FF0050E4CF92
:1068F00003F0E4CF02F0E4CF01F0E4CF00F0E4CF06
:10690000D9FF1200D9CFE5FFE1CFD9FF00C0E5FFE5
:1069100001C0E5FF02C0E5FF020ED924006E000EA3
:10692000DA20016E800E026E030E0026000E012298
:1069300002220250E56E0150E56E0050E56E040E35
:10694000DBCFE5FF030EDBCFE5FF020EDBCFE5FF7C
:10695000000EE56E3F0EE56ECA0EE56E07EC31F0F7
:10696000090EE126E4CF02F0E4CF01F0E4CF00F01D
:10697000E4CFD9FF1200E56AE56AE56AE56A050E2B
:10698000E56E040EE56E030EE56E020EE56E010E79
:10699000E56E000EE56AE1EC2AF00A0EE126E56AF2
:1069A000020EE56E62EC28F0E652E65283EC36F019
:1069B000000EE56E3A0EE56EE80EE56E82EC34F000
:1069C000030EE126E56EE80EE56E020EE56E000EA2
:1069D000E56E660EE56E1C0EE56E53EC24F0060EB9
:1069E000E1261200D9CFE5FFE1CFD9FF00C0E5FFD6
:1069F00001C0E5FF02C0E5FF03C0E5FF020EDBCFEB
:106A000000F0030EDBCF01F0E56AE56A0150E56EA8
:106A10000050E56E3AEC1FF0006EF3CF01F0F4CFBA
:106A200002F0E9CF03F0040EE12603C0E9FF02C043
:106A3000F4FF01C0F3FF0050E4CF03F0E4CF02F015
:106A4000E4CF01F0E4CF00F0E4CFD9FF1200D9CFBA
:106A5000E5FFE1CFD9FF00C0E5FF01C0E5FF020E71
:106A6000DBCF00F0030EDBCF01F00150E56E020139
:106A7000CD51E56E78EC2EF0E652E652030139A9CD
:106A800006D00050E56E4EEC33F0E6520BD00038E5
:106A90000F0BE56E8EEC33F0E6520050E56E8EEC97
:106AA00033F0E652E4CF01F0E4CF00F0E4CFD9FFB9
:106AB000120000C0E5FF01C0E5FF02C0E5FF03C012
:106AC000E5FF57EC31F0006EF3CF01F0F4CF02F0A8
:106AD000E9CF03F0D8900332023201320032D8906D
:106AE000033202320132003203C0E9FF02C0F4FF78
:106AF00001C0F3FF0050E4CF03F0E4CF02F0E4CF95
:106B000001F0E4CF00F01200D9CFE5FFE1CFD9FFCB
:106B100000C0E5FF01C0E5FF02C0E5FF03C0E5FFDF
:106B2000020EDBCF00F0030EDBCF01F0026A036A36
:106B30000150035C02E10050025C03E2024A032AB6
:106B4000F7D7E4CF03F0E4CF02F0E4CF01F0E4CFD5
:106B500000F0E4CFD9FF1200D9CFE5FFE1CFD9FF94
:106B600000C0E5FF020EDBCF00F0010EE56E005025
:106B7000E56E1FEC23F0E652E652E4CF00F0E4CFDE
:106B8000D9FF1200D9CFE5FFE1CFD9FF00C0E5FF63
:106B9000020EDBCF00F0E56A0050E56E27EC35F021
:106BA000E652E652E4CF00F0E4CFD9FF1200D9CF8D
:106BB000E5FFE1CFD9FF00C0E5FF020EDBCF00F01B
:106BC000E56A0050E56E1FEC23F0E652E652E4CF92
:106BD00000F0E4CFD9FF120000C0E5FFD08EF28EA6
:106BE000F28C006AE56A0050E56E1FEC23F0E65275
:106BF000E652002A210E005CF5E3E4CF00F012001B
:106C0000010EE56E0201CF51E56E78EC2EF0E652F2
:106C1000E652E56A0201CF51E56E78EC2EF0E652BD
:106C2000E652120000C0E5FF03013C51006EFE0E6B
:106C300000143C6F040E3C11E56EC2EC35F0E652D8
:106C4000E4CF00F0120000C0E5FF03013C51006EEC
:106C5000FD0E00143C6F040E3C11E56EC2EC35F0E5
:106C6000E652E4CF00F0120000C0E5FF03013B5103
:106C7000006EFE0E00143B6F080E3B11E56EC2EC79
:106C800035F0E652E4CF00F0120000C0E5FF03014A
:106C90003B51006EFD0E00143B6F080E3B11E56E7C
:106CA000C2EC35F0E652E4CF00F0120000C0E5FF80
:106CB00003013B51006EFB0E00143B6F080E3B11AD
:106CC000E56EC2EC35F0E652E4CF00F01200FBECCA
:106CD0001FF0CAEC36F0ECEC35F0BBEC34F0EDEC28
:106CE00036F0EFEC36F0FDD71200010EE56EC2EC87
:106CF00035F0E652070EE56ED00EE56E84EC35F009
:106D0000E652E6521200020EE56EC2EC35F0E65293
:106D1000070EE56ED00EE56E84EC35F0E652E652D5
:106D2000120011EEFFF021EEFFF0F86AA68EA69C8D
:106D3000A5EC31F067EC36F0FFD703013C81040E7F
:106D40003C11E56EC2EC35F0E652120003013C83C3
:106D5000040E3C11E56EC2EC35F0E6521200030160
:106D60003B81080E3B11E56EC2EC35F0E652120095
:106D700003013B83080E3B11E56EC2EC35F0E65291
:106D8000120003013B85080E3B11E56EC2EC35F0A5
:106D9000E6521200D9CFE5FFE1CFD9FF0000E4CFE2
:106DA000D9FF12000100B26D0000C80200000B0004
:106DB000000000006CDC0208FF09000000001C0E4F
:106DC000E56EC2EC35F0E6521200180EE56EC2EC2C
:106DD00035F0E6521200D59E1200D58E1200120038
:0A6DE000120012001200120012004F
:00000001FF
