:020000040000FA
:100C000024EF0AF0D9CFE5FFE1CFD9FF00C0E5FF1F
:100C100001C0E5FF02C0E5FF03C0E5FF04C0E5FF3A
:100C2000020EDBCF00F0030EDBCF01F08A0E0024B2
:100C3000026E036A160E0322046A000E042202C02A
:100C4000F6FF03C0F7FF04C0F8FF0900F5CF02F07C
:100C5000030E025CD8B09AD0FA6AFB6A0234FA3604
:100C6000E834FA36FC0B760FE56E0C0EFA22000E15
:100C7000FB22E450F96E41EF06F06EEF06F09BEFB9
:100C800006F0015015E0780E0024026E036A160E7D
:100C90000322046A000E042202C0F6FF03C0F7FF1D
:100CA00004C0F8FF0900F5CF02F0025092126ED096
:100CB000780E0024026E036A160E0322046A000EE8
:100CC000042202C0F6FF03C0F7FF04C0F8FF0900CA
:100CD000F5CF02F00250FF08921658D0015015E0EF
:100CE000780E0024026E036A160E0322046A000EB8
:100CF000042202C0F6FF03C0F7FF04C0F8FF09009A
:100D0000F5CF02F00250931241D0780E0024026E0B
:100D1000036A160E0322046A000E042202C0F6FFC4
:100D200003C0F7FF04C0F8FF0900F5CF02F002503E
:100D3000FF0893162BD0015015E0780E0024016EA9
:100D4000026A160E0222036A000E032201C0F6FF99
:100D500002C0F7FF03C0F8FF0900F5CF01F0015012
:100D6000941214D0016A026A780E0026160E01222F
:100D7000000E022200C0F6FF01C0F7FF02C0F8FF1C
:100D80000900F5CF00F00050FF089416E4CF04F0FE
:100D9000E4CF03F0E4CF02F0E4CF01F0E4CF00F0C1
:100DA000E4CFD9FF1200D9CFE5FFE1CFD9FF00C0D2
:100DB000E5FF01C0E5FF02C0E5FF03C0E5FF04C099
:100DC000E5FF020EDBCF00F0030EDBCF01F08A0E51
:100DD0000024026E036A160E0322046A000E042227
:100DE00002C0F6FF03C0F7FF04C0F8FF0900F5CF0B
:100DF00002F0030E025CD8B09AD0FA6AFB6A0234A1
:100E0000FA36E834FA36FC0B180FE56E0E0EFA22AD
:100E1000000EFB22E450F96E12EF07F03FEF07F0EF
:100E20006CEF07F0015015E0780E0024026E036AA3
:100E3000160E0322046A000E042202C0F6FF03C04D
:100E4000F7FF04C0F8FF0900F5CF02F00250891245
:100E50006ED0780E0024026E036A160E0322046A16
:100E6000000E042202C0F6FF03C0F7FF04C0F8FF23
:100E70000900F5CF02F00250FF08891658D0015042
:100E800015E0780E0024026E036A160E0322046A2F
:100E9000000E042202C0F6FF03C0F7FF04C0F8FFF3
:100EA0000900F5CF02F002508A1241D0780E0024DA
:100EB000026E036A160E0322046A000E042202C0A8
:100EC000F6FF03C0F7FF04C0F8FF0900F5CF02F0FA
:100ED0000250FF088A162BD0015015E0780E00242E
:100EE000016E026A160E0222036A000E032201C07E
:100EF000F6FF02C0F7FF03C0F8FF0900F5CF01F0CD
:100F000001508B1214D0016A026A780E0026160E68
:100F10000122000E022200C0F6FF01C0F7FF02C04E
:100F2000F8FF0900F5CF00F00050FF088B16E4CF62
:100F300004F0E4CF03F0E4CF02F0E4CF01F0E4CF1B
:100F400000F0E4CFD9FF1200D9CFE5FFE1CFD9FF00
:100F500000C0E5FF01C0E5FF020EDBCF00F0030E8D
:100F6000DBCF01F0020E005C02E30E01108700C02F
:100F70000EFE0E010F6B015005E00050010A02E168
:100F80000E011085E56A0F0EE56EA6EC0BF0E65239
:100F9000E652E56A0E010951E56ED3EC06F0E65221
:100FA000E652E56A0E010B51E56ED3EC06F0E6520F
:100FB000E6520E0110B92AD0030EE56EFCEC0AF0E1
:100FC000E652E56A050EE56EA6EC0BF0E652E65237
:100FD000030EE56EFCEC0AF0E652E56A960EE56E4D
:100FE000D1EC0BF0E652E652030EE56EFCEC0AF093
:100FF000E652E56A960EE56ED1EC0BF0E652E6524B
:10100000020EE56EFCEC0AF0E65223D0200E0E0133
:101010001011E56EAFEC0CF0E652E56A050EE56ED8
:10102000A6EC0BF0E652E652200E0E011011E56E12
:10103000AFEC0CF0E652E56A050EE56EA6EC0BF09F
:10104000E652E652200E0E011011E56EAFEC0CF0E8
:10105000E652200E0E011011E56EAFEC0CF0E652D8
:10106000040E0E01116F0C0EE56EAFEC0CF0E652A3
:10107000010EE56EAFEC0CF0E652E56A020EE56E8D
:10108000A6EC0BF0E652E652020E0E010C6F060EB5
:10109000E56EAFEC0CF0E652E4CF01F0E4CF00F0E7
:1010A000E4CFD9FF1200D9CFE5FFE1CFD9FF00C0CF
:1010B000E5FF01C0E5FF02C0E5FF03C0E5FF04C096
:1010C000E5FF05C0E5FF06C0E5FF07C0E5FF08C076
:1010D000E5FF020EDBCF00F0030EDBCF09FE040EAE
:1010E000DBCF0AFE050EDBCF0BFE060EDBCF01F0D9
:1010F000070EDBCF02F0080EDBCF03F0090EDBCFCB
:1011000004F00A0EDBCF05F00B0EDBCF06F00C0E61
:10111000DBCF07F00D0EDBCF08F001500E01006FA2
:101120000250016F0350026F0450036F0550046FAB
:101130000650056F0750066F0850076FE56A0E01ED
:101140000951E56E02EC06F0E652E652E56A0E0140
:101150000B51E56E02EC06F0E652E65200501BE041
:101160000E01106B006A000E0024016E026A0E0E62
:10117000022201C0E9FF02C0EAFFEFCF01F0E56AF9
:101180000150E56E02EC06F0E652E652002A040E2B
:10119000005CE9E31BD0100E0E01106F006A000E18
:1011A0000024016E026A0E0E022201C0E9FF02C095
:1011B000EAFFEFCF01F0E56A0150E56E02EC06F0C0
:1011C000E652E652002A080E005CE9E3E4CF08F09C
:1011D000E4CF07F0E4CF06F0E4CF05F0E4CF04F06D
:1011E000E4CF03F0E4CF02F0E4CF01F0E4CF00F06D
:1011F000E4CFD9FF1200D9CFE5FFE1CFD9FF00C07E
:10120000E5FF01C0E5FF02C0E5FF03C0E5FF04C044
:10121000E5FF05C0E5FF06C0E5FF07C0E5FF08C024
:10122000E5FF09C0E5FF0AC0E5FF0BC0E5FF0CC004
:10123000E5FF0DC0E5FF020EDBCF00F0030EDBCFB4
:1012400001F0040EDBCF02F0050EDBCF03F0060E3B
:10125000DBCF04F0070EDBCF05F0080EDBCF06F086
:10126000090EDBCF07F00A0EDBCF08F00B0EDBCF49
:1012700009F006C00AF00B6A07C00CF00D6A0C50AA
:101280000A260D500B2208C00CF00C500A260D50F7
:101290000B2209C00CF00C500A260D500B220A50EC
:1012A00005E10B5003E10A6A0A2A01D00A6A0950D3
:1012B000E56E0850E56E0750E56E0650E56E055088
:1012C000E56E0450E56E0350E56E0250E56E015088
:1012D000E56EE5680050E56E0A50E56E53EC08F0E7
:1012E0000C0EE126E4CF0DF0E4CF0CF0E4CF0BF0D0
:1012F000E4CF0AF0E4CF09F0E4CF08F0E4CF07F040
:10130000E4CF06F0E4CF05F0E4CF04F0E4CF03F03F
:10131000E4CF02F0E4CF01F0E4CF00F0E4CFD9FF56
:101320001200D9CFE5FFE1CFD9FF00C0E5FF01C032
:10133000E5FF02C0E5FF03C0E5FF020EDBCF00F0D2
:101340008A0E0024016E026A160E0222036A000E43
:10135000032201C0F6FF02C0F7FF03C0F8FF090037
:10136000F5CF01F0030E015CD8B062D0FA6AFB6AD7
:101370000134FA36E834FA36FC0B8A0FE56E130EA8
:10138000FA22000EFB22E450F96ECBEF09F0E5EFF4
:1013900009F0FFEF09F0780E0024016E026A160EC4
:1013A0000222036A000E032201C0F6FF02C0F7FF0B
:1013B00003C0F8FF0900F5CF01F08050011601507D
:1013C00002E0010E36D0E86A34D0780E0024016EB7
:1013D000026A160E0222036A000E032201C0F6FF03
:1013E00002C0F7FF03C0F8FF0900F5CF01F08150FC
:1013F0000116015002E0010E1CD0E86A1AD0016A01
:10140000026A780E0026160E0122000E022200C08B
:10141000F6FF01C0F7FF02C0F8FF0900F5CF00F0AA
:1014200082500016005002E0010E03D0E86A01D09D
:10143000E86AE4CF03F0E4CF02F0E4CF01F0E4CFB8
:1014400000F0E4CFD9FF120018EEFFF028EEFFF015
:10145000F86AA68EA69CBF0EE96E0E0EEA6E0068B4
:10146000ED6A0050FDE12C0EF66E1A0EF76E000EBE
:10147000F86E0900F5CF05F00900F5CF06F034D07D
:101480000900F5CF00F00900F5CF01F00900F5CF14
:1014900002F009000900F5CFE9FF0900F5CFEAFFE6
:1014A000090009000900F5CF03F00900F5CF04F0A9
:1014B00009000900F6CF07F0F7CF08F0F8CF09F0E0
:1014C00000C0F6FF01C0F7FF02C0F8FF03D009001B
:1014D000F5CFEEFF0306FBE20406F9E207C0F6FFD4
:1014E00008C0F7FF09C0F8FF0506CAE20606C8E211
:1014F00042EC0CF0FFD7D9CFE5FFE1CFD9FF00C018
:10150000E5FF01C0E5FF02C0E5FF03C0E5FF04C041
:10151000E5FF05C0E5FF020EDBCF00F0030EDBCFD9
:1015200001F0040EDBCF02F0036A03500024046EC6
:10153000E86A0120056EE86A022004C0E9FF05C0E0
:10154000F3FFE7EC0CF0046E045007E00450E56E86
:1015500084EC0CF0E652032AE8D7E4CF05F0E4CFA0
:1015600004F0E4CF03F0E4CF02F0E4CF01F0E4CFE5
:1015700000F0E4CFD9FF1200D9CFE5FFE1CFD9FFCA
:1015800000C0E5FF01C0E5FF02C0E5FF03C0E5FFC5
:10159000020EDBCF00F0016A000E0124026E036A26
:1015A0000E0E032202C0E9FF03C0EAFFEFCF02F0F4
:1015B00000C003F0015005E0E86CD8900332010F41
:1015C000FDE3010E03160350E56E0250E56ED3EC09
:1015D00006F0E652E652012A080E015CDDE3C4EC97
:1015E0000CF0E4CF03F0E4CF02F0E4CF01F0E4CF5D
:1015F00000F0E4CFD9FF1200D9CFE5FFE1CFD9FF4A
:1016000000C0E5FF01C0E5FF02C0E5FF03C0E5FF44
:10161000020EDBCF00F0016A000E0124026E036AA5
:101620000E0E032202C0E9FF03C0EAFFEFCF02F073
:1016300000C003F0015005E0E86CD8900332010FC0
:10164000FDE3010E03160350E56E0250E56ED3EC88
:1016500006F0E652E652012A040E015CDDE3C4EC1A
:101660000CF0E4CF03F0E4CF02F0E4CF01F0E4CFDC
:1016700000F0E4CFD9FF12000102040810204080DE
:10168000408001020401020408200101010101015E
:1016900001010202020202000000000068656C6C99
:1016A0006F2C20776F726C642100E806E56E630E84
:1016B00068EC0BF0E4500BE000D0E56E630E68ECD4
:1016C0000BF000D000D00000E450E82EF6D7120056
:1016D000E8060000E85007E000D000D000D000D0BD
:1016E0000000E82EFAD71200D9CFE5FFE1CFD9FFED
:1016F00000C0E5FF01C0E5FF020EDBCF00F0030EE6
:10170000DBCF01F00150E56E0E010951E56ED3EC1F
:1017100006F0E652E6520E0110A906D00050E56E22
:10172000BCEC0AF0E6520BD000380F0BE56EFCEC77
:101730000AF0E6520050E56EFCEC0AF0E652E4CF07
:1017400001F0E4CF00F0E4CFD9FF1200D9CFE5FFDC
:10175000E1CFD9FF00C0E5FF01C0E5FF02C0E5FF12
:1017600003C0E5FF020EDBCF00F0030EDBCF01F07C
:10177000026A036A0150035C02E10050025C06E267
:101780000C0E55EC0BF0024A032AF4D7E4CF03F019
:10179000E4CF02F0E4CF01F0E4CF00F0E4CFD9FFD2
:1017A0001200D9CFE5FFE1CFD9FF00C0E5FF01C0AE
:1017B000E5FF02C0E5FF03C0E5FF020EDBCF00F04E
:1017C000030EDBCF01F0026A036A0150035C02E101
:1017D0000050025C03E2024A032AF7D7E4CF03F089
:1017E000E4CF02F0E4CF01F0E4CF00F0E4CFD9FF82
:1017F0001200E56AE56AE56AE56A050EE56E040E23
:10180000E56E030EE56E020EE56E010EE56E000E4E
:10181000E56AFBEC08F00A0EE126020EE56E100EFA
:10182000E56EA4EC07F0E652E652000EE56E160EE9
:10183000E56E9C0EE56E7BEC0AF0030EE1261200CD
:10184000550EA76EAA0EA76E0E01FF91040E0E0193
:10185000F66F050E0E01C96F060E0E01FB6F0A0E24
:101860000E01CB6F090E0E01CA6F0E0E0E01D16F65
:10187000120E0E01D26F550EA76EAA0EA76E0E01A4
:10188000FF811200D0B202D0930ED0129B8C580E62
:10189000006E020E016E00C002F001C003F0FF0EE8
:1018A0000026012202500310F6E1F29EF29CF8ECB1
:1018B0000CF003EC0DF020EC0CF0F9EC0BF09AECD2
:1018C0000CF0FDD71200D9CFE5FFE1CFD9FF00C062
:1018D000E5FF01C0E5FF020EDBCF00F00050E56E32
:1018E00091EC09F0016EE65201700150E56E005076
:1018F000E56ED3EC06F0E652E652E4CF01F0E4CF19
:1019000000F0E4CFD9FF1200D9CFE5FFE1CFD9FF36
:1019100000C0E5FF020EDBCF00F0010EE56E0050C7
:10192000E56E74EC0BF0E652E652E4CF00F0E4CF43
:10193000D9FF1200D6EC0CF0010EE56EF40EE56E48
:10194000A6EC0BF0E652E6520DEC0DF0010EE56E42
:10195000F40EE56EA6EC0BF0E652E6521200D9CF7B
:10196000E5FFE1CFD9FF00C0E5FF020EDBCF00F0BD
:10197000E56A0050E56E74EC0BF0E652E652E4CFF7
:1019800000F0E4CFD9FF1200010EE56E0E010B51FD
:10199000E56ED3EC06F0E652E652E56A0E010B5115
:1019A000E56ED3EC06F0E652E652120000C0E5FF09
:1019B0000E011151006EFD0E0014116F080E111171
:1019C000E56EAFEC0CF0E652E4CF00F01200E8AEAA
:1019D00004D0F3CFEAFFEE501200E8BC1FEF0DF089
:1019E000E9CFF6FFF3CFF7FFF86E0900F5501200CC
:1019F000896A8A6A8B6A926A936A949094929494A0
:101A0000949C949E12000F0148691F0E0F01496FAC
:101A1000D26AD16A0F01536B12000E011183080EB6
:101A20001111E56EAFEC0CF0E652120001003A1A0B
:101A30000000080E0000040000000008FF0912006A
:00000001FF
