:020000040000FA
:0E0C00006EEF19F00008FF0996EF1CF01200CD
:080C1800D1EF1CF0D9CFE5FF7C
:100C2000E1CFD9FF00C0E5FF01C0E5FF02C0E5FF4D
:100C300003C0E5FF04C0E5FF05C0E5FF06C0E5FF12
:100C400007C0E5FF08C0E5FF09C0E5FF0AC0E5FFF2
:100C50000BC0E5FF0CC0E5FF0DC0E5FF0EC0E5FFD2
:100C60000FC0E5FF10C0E5FF11C0E5FF12C0E5FFB2
:100C700013C0E5FF14C0E5FF15C0E5FF16C0E5FF92
:100C800017C0E5FF18C0E5FF19C0E5FF020EDBCF76
:100C900000F0030EDBCF01F0040EDBCF02F0050EF7
:100CA000DBCF03F0060EDBCF04F0070EDBCF05F041
:100CB000080EDBCF06F0090EDBCF07F00A0EDBCF04
:100CC00008F0096A020E0A6E03C0E9FF04C0F3FFD0
:100CD00005504DEC1FF00B6E0B5002E1D4EF0AF003
:100CE0000C6A0B50250A02E0BBEF0AF00B6A0D6A92
:100CF000032A02E3044A052A03C0E9FF04C0F3FF04
:100D000005504DEC1FF00E6E0E50D8B4D4EF0AF023
:100D10000E50250A02E1BBEF0AF00E502D0A06E143
:100D2000032A02E3044A052A010E0B6E03C00EF0EB
:100D300004C00FF005C010F00EC0E9FF0FC0F3FFB4
:100D400010504DEC1FF0300A06E10E2A02E30F4A64
:100D5000102A0B82F1D70EC0E9FF0FC0F3FF10502D
:100D60004DEC1FF0116E300E115C13E33A0E115C66
:100D700010E20D500A0DF3CF0DF0D00E11260D50DC
:100D8000126E115012240D6E0E2A02E30F4A102A21
:100D9000E2D70EC003F00FC004F010C005F00EC083
:100DA000E9FF0FC0F3FF10504DEC1FF02E0A34E1A5
:100DB0000E50010F036E000E0F20046E000E102067
:100DC000056E0A6A03C00EF004C00FF005C010F0F3
:100DD0000EC0E9FF0FC0F3FF10504DEC1FF0116E75
:100DE000300E115C13E33A0E115C10E20A500A0D4A
:100DF000F3CF0AF0D00E11260A50126E11501224B1
:100E00000A6E0E2A02E30F4A102AE2D70EC003F040
:100E10000FC004F010C005F003C0E9FF04C0F3FFE9
:100E200005504DEC1FF00E6E660A01E040D00650F2
:100E3000040F0F6E000E0720106E000E0820116EBA
:100E40000FC006F010C007F011C008F0FC0E0F260E
:100E5000FF0E102211220FC0E9FF10C0F3FF115046
:100E6000A9EC1EF00F6EF3CF10F0F4CF11F0E9CF24
:100E700012F00A50E56EE56A0B50E56E0D50E56E16
:100E80001250E56E1150E56E1050E56E0F50E56E94
:100E90000250E56E0150E56E0050E56E24EC0BF05B
:100EA0000F6E0B0EE1260F500926CEEF0AF00E5002
:100EB000730A01E045D00650030F0F6E000E0720A5
:100EC000106E000E0820116E0FC006F010C007F063
:100ED00011C008F0FD0E0F26FF0E102211220FC0C8
:100EE000E9FF10C0F3FF1150C9EC1EF00F6EF3CFF5
:100EF00010F0F4CF11F01010111006E1000E116E79
:100F0000310E106E9E0E0F6E0B50E56E0D50E56E9D
:100F10001150E56E1050E56E0F50E56E0250E56E13
:100F20000150E56E0050E56E90EC10F00F6E080E6B
:100F3000E1260950106E0F501024096ECEEF0AF012
:100F40000E506C0A06E1032A02E3044A052A010E48
:100F50000C6E03C0E9FF04C0F3FF05504DEC1FF019
:100F60000E6E750A01E06CD00C5023E00650040FA1
:100F70000F6E000E0720106E000E0820116E0FC0BD
:100F800006F010C007F011C008F0FC0E0F26FF0E8F
:100F9000102211220FC0E9FF10C0F3FF1150A9EC7D
:100FA0001EF00F6EF3CF10F0F4CF11F0E9CF12F076
:100FB00024D00650020F136E000E0720146E000E90
:100FC0000820156E13C006F014C007F015C008F015
:100FD000FE0E1326FF0E1422152213C0E9FF14C0C3
:100FE000F3FF155010EC1FF0136EF3CF14F013C085
:100FF0000FF014C010F0116A126A610EE56EE56A16
:101000000B50E56E0D50E56EE56A0A0EE56E0C506C
:10101000E56E1250E56E1150E56E1050E56E0F5002
:10102000E56E0250E56E0150E56E0050E56EF9EC9C
:101030000DF0136E0E0EE12613500926CEEF0AF0C6
:101040000E50640A04E00E50690A01E075D00C509D
:1010500023E00650040F136E000E0720146E000EDE
:101060000820156E13C006F014C007F015C008F074
:10107000FC0E1326FF0E1422152213C0E9FF14C024
:10108000F3FF1550A9EC1EF0136EF3CF14F0F4CF5C
:1010900015F0E9CF16F024D00650020F176E000E9F
:1010A0000720186E000E0820196E17C006F018C031
:1010B00007F019C008F0FE0E1726FF0E182219229D
:1010C00017C0E9FF18C0F3FF195010EC1FF0176E9E
:1010D000F3CF18F017C013F018C014F0156A166A91
:1010E00013C00FF014C010F015C011F016C012F0AC
:1010F000610EE56EE56A0B50E56E0D50E56E010E72
:10110000E56E0A0EE56E0C50E56E1250E56E11505C
:10111000E56E1050E56E0F50E56E0250E56E015021
:10112000E56E0050E56EF9EC0DF0136E0E0EE12643
:1011300013500926CEEF0AF00E50780A04E00E5044
:10114000700A01E073D00C5023E00650040F136EB8
:10115000000E0720146E000E0820156E13C006F056
:1011600014C007F015C008F0FC0E1326FF0E142261
:10117000152213C0E9FF14C0F3FF1550A9EC1EF0AF
:10118000136EF3CF14F0F4CF15F0E9CF16F024D09E
:101190000650020F176E000E0720186E000E082072
:1011A000196E17C006F018C007F019C008F0FE0E3F
:1011B0001726FF0E1822192217C0E9FF18C0F3FFE7
:1011C000195010EC1FF0176EF3CF18F017C013F082
:1011D00018C014F0156A166A13C00FF014C010F08E
:1011E00015C011F016C012F0610EE56EE56A0B50E5
:1011F000E56E0D50E56EE56A100EE56E0C50E56E7D
:101200001250E56E1150E56E1050E56E0F50E56E10
:101210000250E56E0150E56E0050E56EF9EC0DF000
:10122000136E0E0EE12613500926B8D10E50580A3F
:1012300004E00E50500A01E073D00C5023E0065039
:10124000040F136E000E0720146E000E0820156E9A
:1012500013C006F014C007F015C008F0FC0E1326EA
:10126000FF0E1422152213C0E9FF14C0F3FF15501E
:10127000A9EC1EF0136EF3CF14F0F4CF15F0E9CF04
:1012800016F024D00650020F176E000E0720186EBD
:10129000000E0820196E17C006F018C007F019C01C
:1012A00008F0FE0E1726FF0E1822192217C0E9FFBC
:1012B00018C0F3FF195010EC1FF0176EF3CF18F0A1
:1012C00017C013F018C014F0156A166A13C00FF097
:1012D00014C010F015C011F016C012F0410EE56EEA
:1012E000E56A0B50E56E0D50E56EE56A100EE56E91
:1012F0000C50E56E1250E56E1150E56E1050E56E23
:101300000F50E56E0250E56E0150E56E0050E56E3F
:10131000F9EC0DF0136E0E0EE126135009263ED1A6
:101320000E50620A01E073D00C5023E00650040F07
:10133000136E000E0720146E000E0820156E13C0E9
:1013400006F014C007F015C008F0FC0E1326FF0EBF
:101350001422152213C0E9FF14C0F3FF1550A9ECA5
:101360001EF0136EF3CF14F0F4CF15F0E9CF16F0A2
:1013700024D00650020F176E000E0720186E000EC4
:101380000820196E17C006F018C007F019C008F041
:10139000FE0E1726FF0E1822192217C0E9FF18C0EB
:1013A000F3FF195010EC1FF0176EF3CF18F017C0B1
:1013B00013F018C014F0156A166A13C00FF014C0A9
:1013C00010F015C011F016C012F0610EE56EE56A5E
:1013D0000B50E56E0D50E56EE56A020EE56E0C50A1
:1013E000E56E1250E56E1150E56E1050E56E0F502F
:1013F000E56E0250E56E0150E56E0050E56EF9ECC9
:101400000DF0136E0E0EE12613500926C7D00E50B4
:101410006F0A01E073D00C5023E00650040F136EE6
:10142000000E0720146E000E0820156E13C006F083
:1014300014C007F015C008F0FC0E1326FF0E14228E
:10144000152213C0E9FF14C0F3FF1550A9EC1EF0DC
:10145000136EF3CF14F0F4CF15F0E9CF16F024D0CB
:101460000650020F176E000E0720186E000E08209F
:10147000196E17C006F018C007F019C008F0FE0E6C
:101480001726FF0E1822192217C0E9FF18C0F3FF14
:10149000195010EC1FF0176EF3CF18F017C013F0AF
:1014A00018C014F0156A166A13C00FF014C010F0BB
:1014B00015C011F016C012F0610EE56EE56A0B5012
:1014C000E56E0D50E56EE56A080EE56E0C50E56EB2
:1014D0001250E56E1150E56E1050E56E0F50E56E3E
:1014E0000250E56E0150E56E0050E56EF9EC0DF02E
:1014F0000C6E0E0EE1260C50092650D00E50630AD9
:1015000001E04CD00650020F0C6E000E07200E6E4C
:10151000000E08200F6E0CC006F00EC007F00FC0C2
:1015200008F0FE0E0C26FF0E0E220F220CC0E9FF63
:101530000EC0F3FF0F5010EC1FF00E014A6F4B6B03
:101540000B50E56E0D50E56E800EE56E0E0EE56EED
:101550004A0EE56E0250E56E0150E56E0050E56EF4
:1015600090EC10F00B6E080EE12609500C6E0B503B
:101570000C24096E13D003C0E9FF04C0F3FF05502B
:101580004DEC1FF0E56E0250E56E0150E56E005027
:10159000E56E41EC18F0040EE126092A032A02E365
:1015A000044A052A64EF06F000500110021014E00E
:1015B00000C0E9FF01C0F3FF0250C9EC1EF0006E4D
:1015C000F3CF01F0F4CF02F0E56A00C0E9FF01C0FB
:1015D000F3FF025078EC1FF00950E4CF19F0E4CF8C
:1015E00018F0E4CF17F0E4CF16F0E4CF15F0E4CF15
:1015F00014F0E4CF13F0E4CF12F0E4CF11F0E4CF15
:1016000010F0E4CF0FF0E4CF0EF0E4CF0DF0E4CF14
:101610000CF0E4CF0BF0E4CF0AF0E4CF09F0E4CF14
:1016200008F0E4CF07F0E4CF06F0E4CF05F0E4CF14
:1016300004F0E4CF03F0E4CF02F0E4CF01F0E4CF14
:1016400000F0E4CFD9FF1200D9CFE5FFE1CFD9FFF9
:1016500000C0E5FF01C0E5FF02C0E5FF03C0E5FFF4
:1016600004C0E5FF05C0E5FF06C0E5FF07C0E5FFD4
:1016700008C0E5FF09C0E5FF0AC0E5FF0BC0E5FFB4
:101680000CC0E5FF0DC0E5FF0EC0E5FF0FC0E5FF94
:1016900010C0E5FF11C0E5FF12C0E5FF13C0E5FF74
:1016A00014C0E5FF15C0E5FF16C0E5FF17C0E5FF54
:1016B00018C0E5FF19C0E5FF1AC0E5FF1BC0E5FF34
:1016C0001CC0E5FF1DC0E5FF1EC0E5FF1FC0E5FF14
:1016D00020C0E5FF020EDBCF00F0030EDBCF01F0F0
:1016E000040EDBCF02F0050EDBCF03F0060EDBCFDE
:1016F00004F0070EDBCF05F0080EDBCF06F0090E75
:10170000DBCF07F00A0EDBCF08F00C0EDBCF09F0C1
:101710000A6A0B6A0C6A0D6A0E6A0F6A106A116A0D
:101720000E0E136E0C0E126E800E146E0E0E166ED2
:10173000180E156E800E176E186A0B0E196E035078
:101740000E01346F0450356F0550366F0650376FF9
:10175000D88037AFD89023E3075012E008A210D00A
:101760002D0EE56E0250E56E0150E56E0050E56EFF
:1017700041EC18F0040EE126010E186E07060FD09A
:101780002D0EE56E12C0E9FF13C0F3FF145078EC84
:101790001FF0122A02E3134A142A0A0E196E0E01D0
:1017A00036353735036E046A810E03263451046ED4
:1017B0003551056E7F0E3615066E1A6A068E035079
:1017C000800F610F04E20350800F970F1FE2690E34
:1017D0000E010C6F6E0E0D6F660E0E6F0F6B0850C4
:1017E000E56E0750E56E800EE56E0E0EE56E0C0E92
:1017F000E56E0250E56E0150E56E0050E56E90EC2E
:1018000010F01B6E080EE1261B50AED10350800F66
:10181000690F25E303C01BF01C6A03BE1C68E90EB8
:101820001B26D8A01C0604C00AF005C00BF006C099
:101830000CF01AC00DF01B5011E009E6E86CD890CE
:101840000A360B360C360D36010FFAE37CD0D890F1
:101850000D320C320B320A32010FFAE374D0D88009
:1018600003AED890D8B04AD003C01BF01C6A03BEA8
:101870001C681B5017081D6E000E1C5404C00AF093
:1018800005C00BF006C00CF01AC00DF01D5011E0A1
:1018900009E6E86CD8900D320C320B320A32010F97
:1018A000FAE307D0D8900A360B360C360D36010F06
:1018B000FAE31B4A1C2A04C01DF005C01EF006C036
:1018C0001FF01AC020F01B5011E009E6E86CD89018
:1018D0001D361E361F362036010FFAE307D0D8908A
:1018E00020321F321E321D32010FFAE31D500E6EE0
:1018F0001E500F6E1F50106E116A25D01A6A1B6A97
:1019000003BE1B68034A1B2A1B1E036CD8B41B2A88
:1019100004C00EF005C00FF006C010F01AC011F0A0
:10192000035011E009E6E86CD890113210320F3202
:101930000E32010FFAE307D0D8900E360F3610366C
:101940001136010FFAE30A500B100C100D100FE1C5
:10195000300EE56E12C0E9FF13C0F3FF145078ECAF
:101960001FF0122A02E3134A142A190678D015C070
:1019700003F016C004F017C005F0066A19C015F090
:101980000A500B100C100D10D8B43CD0E56AE56A73
:10199000E56A0A0EE56E0D50E56E0C50E56E0B50D3
:1019A000E56E0A50E56EEFEC15F0166E080EE126B6
:1019B000300E162616C0E5FF03C0E9FF04C0F3FF92
:1019C000055078EC1FF0032A02E3044A052AE56A71
:1019D000E56AE56A0A0EE56E0D50E56E0C50E56E9F
:1019E0000B50E56E0A50E56EB5EC17F00A6EF3CFBA
:1019F0000BF0F4CF0CF0E9CF0DF0080EE126062A2B
:101A00001506BED715C019F012C00AF013C00BF0AE
:101A100014C00CF006C00DF006060D501AE0FF0EC3
:101A200003260422052203C0E9FF04C0F3FF05508A
:101A30004DEC1FF00D6E0DC0E5FF0AC0E9FF0BC0B5
:101A4000F3FF0C5078EC1FF00A2AE4E30B4A0C2A4F
:101A5000E1D70AC012F00BC013F00CC014F0070E4F
:101A6000095C02E3060E096E0950195CD8A019C082
:101A700009F0010E095CD8A057D02E0EE56E12C0F9
:101A8000E9FF13C0F3FF145078EC1FF0122A02E3B1
:101A9000134A142A12C003F013C004F014C005F056
:101AA000066A0950065C3AE20E500E240A6E0F34A4
:101AB0000B6E10340C6E11340D6E0A500A260B3664
:101AC0000C360D360A500A260B360C360D360E50E3
:101AD0000E24156E0F34166E1034176E1134196EF5
:101AE00015500A240E6E16500B200F6E17500C2046
:101AF000106E19500D200A6E300E0A260AC0E5FF3E
:101B000003C0E9FF04C0F3FF055078EC1FF0032A7F
:101B100002E3044A052A116A062AC3D703C012F059
:101B200004C013F005C014F0E56A12C0E9FF13C049
:101B3000F3FF145078EC1FF00850E56E0750E56E87
:101B4000800EE56E0E0EE56E0C0EE56E0250E56E33
:101B50000150E56E0050E56E90EC10F0006E080E3E
:101B6000E126185000260050E4CF20F0E4CF1FF00B
:101B7000E4CF1EF0E4CF1DF0E4CF1CF0E4CF1BF067
:101B8000E4CF1AF0E4CF19F0E4CF18F0E4CF17F067
:101B9000E4CF16F0E4CF15F0E4CF14F0E4CF13F067
:101BA000E4CF12F0E4CF11F0E4CF10F0E4CF0FF067
:101BB000E4CF0EF0E4CF0DF0E4CF0CF0E4CF0BF067
:101BC000E4CF0AF0E4CF09F0E4CF08F0E4CF07F067
:101BD000E4CF06F0E4CF05F0E4CF04F0E4CF03F067
:101BE000E4CF02F0E4CF01F0E4CF00F0E4CFD9FF7E
:101BF0001200D9CFE5FFE1CFD9FF00C0E5FF01C05A
:101C0000E5FF02C0E5FF03C0E5FF04C0E5FF05C036
:101C1000E5FF06C0E5FF07C0E5FF08C0E5FF09C016
:101C2000E5FF0AC0E5FF0BC0E5FF0CC0E5FF0DC0F6
:101C3000E5FF0EC0E5FF0FC0E5FF10C0E5FF11C0D6
:101C4000E5FF12C0E5FF13C0E5FF14C0E5FF15C0B6
:101C5000E5FF16C0E5FF17C0E5FF18C0E5FF19C096
:101C6000E5FF1AC0E5FF1BC0E5FF020EDBCF00F069
:101C7000030EDBCF01F0040EDBCF02F0050EDBCF4D
:101C800003F0060EDBCF04F0070EDBCF05F0080EE5
:101C9000DBCF06F0090EDBCF07F00A0EDBCF08F032
:101CA0000B0EDBCF09F00C0EDBCF0AF00D0EDBCFF5
:101CB0000BF00F0EDBCF0CF00D6A0E6A03C00FF0B5
:101CC00004C010F005C011F006C012F0035004105B
:101CD000051006101BE1300E0E01006F016B0B505A
:101CE000E56E0A50E56E800EE56E0E0EE56E000E96
:101CF000E56E0250E56E0150E56E0050E56E90EC29
:101D000010F0136E080EE1261350ECD0095036E0A7
:101D100008500A0A33E107501CE00350096E0450D2
:101D2000136E0550146E0650156ED88015AED890FF
:101D300010E3010E0D6E151C126E141C116E131C97
:101D4000106E091C0F6E0F2A04E1102A02E1114ADD
:101D5000122A075013E1D88004AED8900FE3010E89
:101D60000D6E041E036CD8B4042A03C00FF004C027
:101D700010F0E86A04BEFF0E116E126E0E0E046EB5
:101D80000B0E036E800E056EE56A03C0E9FF04C00A
:101D9000F3FF78EC1FF003C006F004C007F005C0A5
:101DA00009F00F50101011101210D8B45AD008C0FA
:101DB00013F0146A156A166AE56AE56AE56A135053
:101DC000E56E1250E56E1150E56E1050E56E0F5045
:101DD000E56EEFEC15F0176EF3CF18F0F4CF19F0B5
:101DE000E9CF1AF0080EE126000E1A5C08E1000E99
:101DF000195C05E1000E185C02E10A0E175C06E3AF
:101E00000CC01BF0C60E1B261B501726FF0E062605
:101E100007220922300E172617C0E5FF06C0E9FF8A
:101E200007C0F3FF095078EC1FF01650E56E15500F
:101E3000E56E1450E56E1350E56E1250E56E1150CC
:101E4000E56E1050E56E0F50E56EB5EC17F00F6EB5
:101E5000F3CF10F0F4CF11F0E9CF12F0080EE12625
:101E6000A0D706C003F007C004F009C005F00D506C
:101E700021E00A5012E00BA210D02D0EE56E0250A8
:101E8000E56E0150E56E0050E56E41EC18F0040E71
:101E9000E126010E0E6E0A060DD0FF0E0326042267
:101EA00005222D0EE56E03C0E9FF04C0F3FF0550C7
:101EB00078EC1FF00B50E56E0A50E56E0550E56EAC
:101EC0000450E56E0350E56E0250E56E0150E56E7C
:101ED0000050E56E90EC10F0006E080EE1260E50FA
:101EE00000260050E4CF1BF0E4CF1AF0E4CF19F045
:101EF000E4CF18F0E4CF17F0E4CF16F0E4CF15F0FC
:101F0000E4CF14F0E4CF13F0E4CF12F0E4CF11F0FB
:101F1000E4CF10F0E4CF0FF0E4CF0EF0E4CF0DF0FB
:101F2000E4CF0CF0E4CF0BF0E4CF0AF0E4CF09F0FB
:101F3000E4CF08F0E4CF07F0E4CF06F0E4CF05F0FB
:101F4000E4CF04F0E4CF03F0E4CF02F0E4CF01F0FB
:101F5000E4CF00F0E4CFD9FF120000C0E5FF01C0DC
:101F6000E5FF02C0E5FF03C0E5FF04C0E5FF05C0D3
:101F7000E5FF06C0E5FF07C0E5FF08C0E5FF010E6D
:101F8000E56E0C0EE56E33EC12F0E652E65266ECAE
:101F90001EF0006EF3CF01F0F4CF02F0E9CF03F0B2
:101FA000E56AE56A030EE56EE80EE56E0350E56E40
:101FB0000250E56E0150E56E0050E56EB5EC17F08D
:101FC000006EF3CF01F0F4CF02F0E9CF03F0080E7A
:101FD000E126E56A010EE56E510EE56E800EE56EB6
:101FE0000350E56E0250E56E0150E56E0050E56E5F
:101FF000EFEC15F0046EF3CF05F0F4CF06F0E9CF67
:1020000007F0080EE126E56AE56A0E0EE56E100E91
:10201000E56E0750E56E0650E56E0550E56E04501E
:10202000E56EB5EC17F0086E080EE126E56AE56A84
:102030000E0EE56E100EE56E0350E56E0250E56E75
:102040000150E56E0050E56EEFEC15F0046EF3CF35
:1020500005F0F4CF06F0E9CF07F0080EE126E56AB7
:10206000E56AE56A3C0EE56E0750E56E0650E56EE2
:102070000550E56E0450E56EB5EC17F0046E080EE1
:10208000E126E56AE56AE56A3C0EE56E0350E56E19
:102090000250E56E0150E56E0050E56EEFEC15F074
:1020A000006E080EE126010EE56E000EE56A57ECA3
:1020B0001CF0E652E652E56A0050E56EE56A04500F
:1020C000E56EE56A0850E56E000EE56E310EE56ED0
:1020D000D80EE56E0AEC1DF0090EE126E56A0C0E3D
:1020E000E56E33EC12F0E652E652010EE56EF40EA8
:1020F000E56ECEEC1DF0E652E652E4CF08F0E4CFF8
:1021000007F0E4CF06F0E4CF05F0E4CF04F0E4CF2D
:1021100003F0E4CF02F0E4CF01F0E4CF00F01200CE
:10212000D9CFE5FFE1CFD9FF00C0E5FF01C0E5FF52
:1021300002C0E5FF03C0E5FF04C0E5FF05C0E5FF01
:1021400006C0E5FF07C0E5FF08C0E5FF09C0E5FFE1
:102150000AC0E5FF0BC0E5FF0CC0E5FF0DC0E5FFC1
:102160000EC0E5FF020EDBCF00F0030EDBCF01F067
:10217000040EDBCF02F0050EDBCF03F0060EDBCF43
:1021800004F0070EDBCF05F0080EDBCF06F0090EDA
:10219000DBCF07F0086A200E096E065022E00A6ABB
:1021A00003C00BF004C00CF005C00DF00BC0E9FF3C
:1021B0000CC0F3FF0D504DEC1FF00E6E0E5006E0FC
:1021C0000A2A0B2AF3E30C4A0D2AF0D706500A5CC0
:1021D00002E3066A02D00A50065E07A202D0300E61
:1021E000096E07B019D0076A06C00AF00A5005E167
:1021F00007C008F00AC006F00FD00950E56E025083
:10220000E56E0150E56E0050E56E41EC18F0040EED
:10221000E126072A0A06EAD708C007F003C0E9FF4B
:1022200004C0F3FF05504DEC1FF0086E085012E09B
:102230000850E56E0250E56E0150E56E0050E56E07
:1022400041EC18F0040EE126072A032AE7E3044ACA
:10225000052AE4D707C003F006C004F004500FE0DD
:102260000950E56E0250E56E0150E56E0050E56ED6
:1022700041EC18F0040EE126032A0406EFD7F36AB6
:102280000350E4CF0EF0E4CF0DF0E4CF0CF0E4CF38
:102290000BF0E4CF0AF0E4CF09F0E4CF08F0E4CF8C
:1022A00007F0E4CF06F0E4CF05F0E4CF04F0E4CF8C
:1022B00003F0E4CF02F0E4CF01F0E4CF00F0E4CF8C
:1022C000D9FF1200D9CFE5FFE1CFD9FF00C0E5FF6C
:1022D00001C0E5FF02C0E5FF03C0E5FF04C0E5FF64
:1022E000020EDBCF00F0030EDBCF01F08C0E0024DA
:1022F000026E036A310E0322046A000E042202C039
:10230000F6FF03C0F7FF04C0F8FF0900F5CF02F0A5
:10231000030E025CD8B09AD0FA6AFB6A0234FA362D
:10232000E834FA36FC0B360FE56E230EFA22000E67
:10233000FB22E450F96EA1EF11F0CEEF11F0FBEFAC
:1023400011F0015015E07A0E0024026E036A310E7E
:102350000322046A000E042202C0F6FF03C0F7FF46
:1023600004C0F8FF0900F5CF02F0025092126ED0BF
:102370007A0E0024026E036A310E0322046A000EF4
:10238000042202C0F6FF03C0F7FF04C0F8FF0900F3
:10239000F5CF02F00250FF08921658D0015015E018
:1023A0007A0E0024026E036A310E0322046A000EC4
:1023B000042202C0F6FF03C0F7FF04C0F8FF0900C3
:1023C000F5CF02F00250931241D07A0E0024026E33
:1023D000036A310E0322046A000E042202C0F6FFD3
:1023E00003C0F7FF04C0F8FF0900F5CF02F0025068
:1023F000FF0893162BD0015015E07A0E0024016ED1
:10240000026A310E0222036A000E032201C0F6FFA7
:1024100002C0F7FF03C0F8FF0900F5CF01F001503B
:10242000941214D0016A026A7A0E0026310E01223B
:10243000000E022200C0F6FF01C0F7FF02C0F8FF45
:102440000900F5CF00F00050FF089416E4CF04F027
:10245000E4CF03F0E4CF02F0E4CF01F0E4CF00F0EA
:10246000E4CFD9FF1200D9CFE5FFE1CFD9FF00C0FB
:10247000E5FF01C0E5FF02C0E5FF03C0E5FF04C0C2
:10248000E5FF020EDBCF00F0030EDBCF01F08C0E78
:102490000024026E036A310E0322046A000E042235
:1024A00002C0F6FF03C0F7FF04C0F8FF0900F5CF34
:1024B00002F0030E025CD8B09AD0FA6AFB6A0234CA
:1024C000FA36E834FA36FC0BD80FE56E240EFA2201
:1024D000000EFB22E450F96E72EF12F09FEF12F043
:1024E000CCEF12F0015015E07A0E0024026E036A60
:1024F000310E0322046A000E042202C0F6FF03C05C
:10250000F7FF04C0F8FF0900F5CF02F0025089126E
:102510006ED07A0E0024026E036A310E0322046A22
:10252000000E042202C0F6FF03C0F7FF04C0F8FF4C
:102530000900F5CF02F00250FF08891658D001506B
:1025400015E07A0E0024026E036A310E0322046A3B
:10255000000E042202C0F6FF03C0F7FF04C0F8FF1C
:102560000900F5CF02F002508A1241D07A0E002401
:10257000026E036A310E0322046A000E042202C0B6
:10258000F6FF03C0F7FF04C0F8FF0900F5CF02F023
:102590000250FF088A162BD0015015E07A0E002455
:1025A000016E026A310E0222036A000E032201C08C
:1025B000F6FF02C0F7FF03C0F8FF0900F5CF01F0F6
:1025C00001508B1214D0016A026A7A0E0026310E75
:1025D0000122000E022200C0F6FF01C0F7FF02C078
:1025E000F8FF0900F5CF00F00050FF088B16E4CF8C
:1025F00004F0E4CF03F0E4CF02F0E4CF01F0E4CF45
:1026000000F0E4CFD9FF1200D9CFE5FFE1CFD9FF29
:1026100000C0E5FF01C0E5FF02C0E5FF03C0E5FF24
:1026200004C0E5FF05C0E5FF06C0E5FF07C0E5FF04
:1026300008C0E5FF09C0E5FF0AC0E5FF0BC0E5FFE4
:102640000CC0E5FF0DC0E5FF020EDBCF00F0030E6E
:10265000DBCF01F0040EDBCF02F0050EDBCF03F081
:10266000060EDBCF04F0070EDBCF05F0080EDBCF44
:1026700006F0090EDBCF07F0D88003AED890086AC9
:10268000083608500FE0031C0C6E021C0B6E011C78
:102690000A6E001C096E092A0DE10A2A0BE10B4A99
:1026A0000C2A08D000C009F001C00AF002C00BF0EB
:1026B00003C00CF0D88007AED890006A00360050F6
:1026C0000FE0071C0D6E061C036E051C026E041C39
:1026D000016E012A0DE1022A0BE1034A0D2A08D0FE
:1026E00004C001F005C002F006C003F007C00DF001
:1026F0000D50E56E0350E56E0250E56E0150E56E3B
:102700000C50E56E0B50E56E0A50E56E0950E56E13
:10271000B5EC17F0016EF3CF02F0F4CF03F0E9CF80
:1027200004F0080EE1260050081A085016E0041CB8
:10273000076E031C066E021C056E011C006E002A4B
:1027400004E1052A02E1064A072A07C0E9FF06C09C
:10275000F4FF05C0F3FF005007D004C0E9FF03C039
:10276000F4FF02C0F3FF0150E4CF0DF0E4CF0CF012
:10277000E4CF0BF0E4CF0AF0E4CF09F0E4CF08F0A7
:10278000E4CF07F0E4CF06F0E4CF05F0E4CF04F0A7
:10279000E4CF03F0E4CF02F0E4CF01F0E4CF00F0A7
:1027A000E4CFD9FF120000C0E5FF01C0E5FF02C081
:1027B000E5FF03C0E5FF04C0E5FFD350030B006E47
:1027C000FA6AFB6A0034FA36E834FA36FC0BDE0F9C
:1027D000E56E270EFA22000EFB22E450F96EF7EFA9
:1027E00013F058EF14F05EEF14F05EEF14F0E56AAA
:1027F000E56AE568F90EE56E16EC19F0006E040E58
:10280000E126030E0016A60E0024016E026A310EA8
:102810000222036A000E032201C0F6FF02C0F7FF86
:1028200003C0F8FF0900F5CF00F09BAC22D000C038
:1028300001F0E56AE56AE56A0150E56E020EE56EB3
:10284000DC0EE56E6C0EE56E000EE56A04EC13F02E
:10285000016EF3CF02F0F4CF03F0E9CF04F0080EDD
:10286000E12604C0E9FF03C0F4FF02C0F3FF0150FA
:1028700054D0E56AE56AE56A0050E56EE56A7A0ECD
:10288000E56E120EE56E000EE56A04EC13F0006EC4
:10289000F3CF01F0F4CF02F0E9CF03F0080EE12608
:1028A00003C0E9FF02C0F4FF01C0F3FF005035D0C0
:1028B000E96AF46A800EF36EE86A2FD0D350E838E4
:1028C000070BE56AE56EE56A040EE56EBBEC1AF0EF
:1028D000006EF3CF01F0040EE126026AAA0E002674
:1028E000310E0122000E022200C0F6FF01C0F7FFE8
:1028F00002C0F8FF0900F5CF00F00900F5CF01F0A4
:102900000900F5CF02F00900F5CF03F003C0E9FF9D
:1029100002C0F4FF01C0F3FF0050E4CF04F0E4CFA5
:1029200003F0E4CF02F0E4CF01F0E4CF00F01200B6
:10293000D9CFE5FFE1CFD9FF00C0E5FF01C0E5FF3A
:10294000020EDBCF00F0030EDBCF01F0020E005CC5
:1029500002E30E01568700C057FE0E01556B015071
:1029600005E00050010A02E10E015685E56A0F0EEE
:10297000E56ECEEC1DF0E652E652E56A0E012D51F1
:10298000E56E33EC12F0E652E652E56A0E012F5185
:10299000E56E33EC12F0E652E6520E0156B92AD03B
:1029A000030EE56E17EC1CF0E652E56A050EE56EC7
:1029B000CEEC1DF0E652E652030EE56E17EC1CF06D
:1029C000E652E56A960EE56EF9EC1DF0E652E65227
:1029D000030EE56E17EC1CF0E652E56A960EE56E06
:1029E000F9EC1DF0E652E652020EE56E17EC1CF013
:1029F000E65223D0200E0E015611E56E26EC1FF094
:102A0000E652E56A050EE56ECEEC1DF0E652E652A2
:102A1000200E0E015611E56E26EC1FF0E652E56A17
:102A2000050EE56ECEEC1DF0E652E652200E0E01CC
:102A30005611E56E26EC1FF0E652200E0E015611DF
:102A4000E56E26EC1FF0E652040E0E01526F0C0EDE
:102A5000E56E26EC1FF0E652010EE56E26EC1FF047
:102A6000E652E56A020EE56ECEEC1DF0E652E65245
:102A7000020E0E01536F060EE56E26EC1FF0E652B5
:102A8000E4CF01F0E4CF00F0E4CFD9FF1200D9CFBA
:102A9000E5FFE1CFD9FF00C0E5FF01C0E5FF02C0BF
:102AA000E5FF03C0E5FF04C0E5FF05C0E5FF06C084
:102AB000E5FF07C0E5FF08C0E5FF020EDBCF00F031
:102AC000030EDBCF2DFE040EDBCF2EFE050EDBCF7B
:102AD0002FFE060EDBCF01F0070EDBCF02F0080E53
:102AE000DBCF03F0090EDBCF04F00A0EDBCF05F0DD
:102AF0000B0EDBCF06F00C0EDBCF07F00D0EDBCF9D
:102B000008F001500E01246F0250256F0350266F0C
:102B10000450276F0550286F0650296F07502A6F01
:102B200008502B6FE56A0E012D51E56E62EC11F035
:102B3000E652E652E56A0E012F51E56E62EC11F0A5
:102B4000E652E65200501BE00E01566B006A240E5E
:102B50000024016E026A0E0E022201C0E9FF02C0CB
:102B6000EAFFEFCF01F0E56A0150E56E62EC11F08B
:102B7000E652E652002A040E005CE9E31BD0100E78
:102B80000E01566F006A240E0024016E026A0E0EBA
:102B9000022201C0E9FF02C0EAFFEFCF01F0E56ABF
:102BA0000150E56E62EC11F0E652E652002A080E82
:102BB000005CE9E3E4CF08F0E4CF07F0E4CF06F0EF
:102BC000E4CF05F0E4CF04F0E4CF03F0E4CF02F06B
:102BD000E4CF01F0E4CF00F0E4CFD9FF1200D9CF69
:102BE000E5FFE1CFD9FF00C0E5FF01C0E5FF02C06E
:102BF000E5FF03C0E5FF04C0E5FF05C0E5FF06C033
:102C0000E5FF07C0E5FF08C0E5FF09C0E5FF0AC012
:102C1000E5FF020EDBCF00F0030EDBCF01F0040E68
:102C2000DBCF02F0050EDBCF03F0060EDBCF04F0A6
:102C3000070EDBCF05F0080EDBCF06F0090EDBCF69
:102C400007F0086A045005100610071005E1E9684E
:102C5000F468F368E86847D0096A0750800BE844D5
:102C60000A6E0A501BE10450042605360636073664
:102C70000750035C08E10650025C05E10550015C69
:102C800002E10450005C06E2D890073206320532B9
:102C9000043204D0092A09C008F0DFD70750035CCA
:102CA00008E10650025C05E10550015C02E10450B8
:102CB000005C08E30450005E0550015A0650025AB9
:102CC0000750035AD890073206320532043208C042
:102CD00009F008060950E2E103C0E9FF02C0F4FF71
:102CE00001C0F3FF0050E4CF0AF0E4CF09F0E4CFD5
:102CF00008F0E4CF07F0E4CF06F0E4CF05F0E4CF2E
:102D000004F0E4CF03F0E4CF02F0E4CF01F0E4CF2D
:102D100000F0E4CFD9FF1200D9CFE5FFE1CFD9FF12
:102D200000C0E5FF01C0E5FF02C0E5FF03C0E5FF0D
:102D300004C0E5FF05C0E5FF06C0E5FF07C0E5FFED
:102D400008C0E5FF09C0E5FF0AC0E5FF0BC0E5FFCD
:102D50000CC0E5FF0DC0E5FF020EDBCF00F0030E57
:102D6000DBCF01F0040EDBCF02F0050EDBCF03F06A
:102D7000060EDBCF04F0070EDBCF05F0080EDBCF2D
:102D800006F0090EDBCF07F00A0EDBCF08F00B0EC2
:102D9000DBCF09F006C00AF00B6A07C00CF00D6A21
:102DA0000C500A260D500B2208C00CF00C500A26BD
:102DB0000D500B2209C00CF00C500A260D500B22AE
:102DC0000A5005E10B5003E10A6A0A2A01D00A6A97
:102DD0000950E56E0850E56E0750E56E0650E56E49
:102DE0000550E56E0450E56E0350E56E0250E56E49
:102DF0000150E56EE5680050E56E0A50E56E47EC5F
:102E000015F00C0EE126E4CF0DF0E4CF0CF0E4CF8A
:102E10000BF0E4CF0AF0E4CF09F0E4CF08F0E4CF00
:102E200007F0E4CF06F0E4CF05F0E4CF04F0E4CF00
:102E300003F0E4CF02F0E4CF01F0E4CF00F0E4CF00
:102E4000D9FF1200D9CFE5FFE1CFD9FF00C0E5FFE0
:102E500001C0E5FF02C0E5FF03C0E5FF020EDBCFC6
:102E600000F08C0E0024016E026A310E0222036A09
:102E7000000E032201C0F6FF02C0F7FF03C0F8FFF7
:102E80000900F5CF01F0030E015CD8B062D0FA6AF8
:102E9000FB6A0134FA36E834FA36FC0BAC0FE56E07
:102EA0002E0EFA22000EFB22E450F96E5CEF17F0B2
:102EB00076EF17F090EF17F07A0E0024016E026A99
:102EC000310E0222036A000E032201C0F6FF02C087
:102ED000F7FF03C0F8FF0900F5CF01F0805001169D
:102EE000015002E0010E36D0E86A34D07A0E002498
:102EF000016E026A310E0222036A000E032201C033
:102F0000F6FF02C0F7FF03C0F8FF0900F5CF01F09C
:102F100081500116015002E0010E1CD0E86A1AD05F
:102F2000016A026A7A0E0026310E0122000E022288
:102F300000C0F6FF01C0F7FF02C0F8FF0900F5CF9F
:102F400000F082500016005002E0010E03D0E86A43
:102F500001D0E86AE4CF03F0E4CF02F0E4CF01F05F
:102F6000E4CF00F0E4CFD9FF1200D9CFE5FFE1CFE5
:102F7000D9FF00C0E5FF01C0E5FF02C0E5FF03C0C7
:102F8000E5FF04C0E5FF05C0E5FF06C0E5FF07C09B
:102F9000E5FF08C0E5FF09C0E5FF0AC0E5FF0BC07B
:102FA000E5FF0CC0E5FF0DC0E5FF020EDBCF00F032
:102FB000030EDBCF01F0040EDBCF02F0050EDBCFFA
:102FC00003F0060EDBCF04F0070EDBCF05F0080E92
:102FD000DBCF06F0090EDBCF07F0086A096A0A6A40
:102FE0000B6A200E0C6E0350800BE8440D6E0050EF
:102FF00000260136023603360850082609360A36FE
:103000000B360D50D8A4088007500B5C08E1065021
:103010000A5C05E10550095C02E10450085C09E323
:103020000450085E0550095A06500A5A07500B5AB8
:1030300000800C2ED8D703C0E9FF02C0F4FF01C006
:10304000F3FF0050E4CF0DF0E4CF0CF0E4CF0BF031
:10305000E4CF0AF0E4CF09F0E4CF08F0E4CF07F0C2
:10306000E4CF06F0E4CF05F0E4CF04F0E4CF03F0C2
:10307000E4CF02F0E4CF01F0E4CF00F0E4CFD9FFD9
:103080001200D9CFE5FFE1CFD9FF00C0E5FF01C0B5
:10309000E5FF02C0E5FF03C0E5FF04C0E5FF05C092
:1030A000E5FF06C0E5FF020EDBCF00F0030EDBCF2D
:1030B00001F0040EDBCF02F0050EDBCF03F0005071
:1030C0000110021033E000C0E9FF01C0F3FF02501D
:1030D000C9EC1EF0046EF3CF05F0F4CF06F003C088
:1030E000E5FF04C0E9FF05C0F3FF065078EC1FF0D0
:1030F00000C0E9FF01C0F3FF0250C9EC1EF0046EEE
:10310000F3CF05F0F4CF06F0042A02E3054A062ABD
:1031100004C0E5FF05C0F4FF06C0F6FF00C0E9FFEC
:1031200001C0F3FF02505EEC1FF016D00350E56EB5
:10313000F2CFE5FFF29E0500560EFD6E310EFE6EDB
:10314000000EFF6EE4BEF28E46CEFBFF45CEFAFFC8
:103150000E014451F96EE652E4CF06F0E4CF05F0DB
:10316000E4CF04F0E4CF03F0E4CF02F0E4CF01F0C9
:10317000E4CF00F0E4CFD9FF1200010204081020D0
:103180004080408001020401020408200101010185
:103190000101010102020202020000000000286E8B
:1031A000756C6C29000006030201127A000048E8E1
:1031B000010090D0030020A1070040420F0080844E
:1031C0001E0000093D0000127A0048656C6C6F2CEF
:1031D00020576F726C642100557074696D652025ED
:1031E0003032643A253032643A2530326400E806E1
:1031F000E56E630E0AEC19F0E4500BE000D0E56ECA
:10320000630E0AEC19F000D000D00000E450E82E64
:10321000F6D71200E8060000E85007E000D000D022
:1032200000D000D00000E82EFAD71200D9CFE5FF79
:10323000E1CFD9FF00C0E5FF01C0E5FF02C0E5FF17
:1032400003C0E5FF04C0E5FF05C0E5FF06C0E5FFDC
:1032500007C0E5FF020EDBCF00F0030EDBCF01F06D
:10326000040EDBCF02F0050EDBCF03F00250046E3C
:103270000350056E066A076A0450F86E0150046E2A
:103280000250056E0350066E076A0450F76E005038
:10329000F66E0900F5CF00F00900F5CF01F0026AE3
:1032A0000150046E036A056A00500326055004228B
:1032B00004C0F3FF0350E4CF07F0E4CF06F0E4CFFF
:1032C00005F0E4CF04F0E4CF03F0E4CF02F0E4CF64
:1032D00001F0E4CF00F0E4CFD9FF120018EEFFF0C8
:1032E00028EEFFF0F86AA68EA69CBF0EE96E0E0EC1
:1032F000EA6E0068ED6A0050FDE11A0EF66E3F0EB0
:10330000F76E000EF86E0900F5CF05F00900F5CF55
:1033100006F034D00900F5CF00F00900F5CF01F038
:103320000900F5CF02F009000900F5CFE9FF090017
:10333000F5CFEAFF090009000900F5CF03F0090005
:10334000F5CF04F009000900F6CF07F0F7CF08F039
:10335000F8CF09F000C0F6FF01C0F7FF02C0F8FF88
:1033600003D00900F5CFEEFF0306FBE20406F9E205
:1033700007C0F6FF08C0F7FF09C0F8FF0506CAE25C
:103380000606C8E221EC1EF0FFD700C0E5FF01C031
:10339000E5FF02C0E5FF03C0E5FFF29EF29C080EC8
:1033A000D56EA3EC1DF0006EF3CF01F0F4CF02F068
:1033B000E9CF03F0E56AE56A030EE56EE80EE56E17
:1033C0000350E56E0250E56E0150E56E0050E56E6B
:1033D000B5EC17F0006EF3CF01F0F4CF02F0E9CFB7
:1033E00003F0080EE1260050FF080E013C6FFF0EAF
:1033F00001543D6F000E02543E6F000E03543F6FA8
:103400003D51006ED76E3C51D66EF184F294F28A33
:10341000D58EF28EF28C0E01406B416B426B436B8A
:10342000E4CF03F0E4CF02F0E4CF01F0E4CF00F00A
:103430001200D9CFE5FFE1CFD9FF00C0E5FF01C001
:10344000E5FF02C0E5FF03C0E5FF04C0E5FF05C0DE
:10345000E5FF020EDBCF47FE030EDBCF48FE040E76
:10346000DBCF49FE050EDBCF00F0060EDBCF01F00F
:10347000070EDBCF02F0080EDBCF03F0090EDBCF27
:1034800004F00A0EDBCF05F00550E56E0450E56E42
:103490000350E56E0250E56E0150E56E0050E56E9A
:1034A000800EE56E0E0EE56E470EE56E0EEC06F034
:1034B000006E090EE1260050E4CF05F0E4CF04F0E1
:1034C000E4CF03F0E4CF02F0E4CF01F0E4CF00F06A
:1034D000E4CFD9FF1200D9CFE5FFE1CFD9FF00C07B
:1034E000E5FF01C0E5FF02C0E5FF03C0E5FF04C042
:1034F000E5FF05C0E5FF020EDBCF44FE030EDBCF88
:1035000045FE040EDBCF46FE050EDBCF00F0060EB7
:10351000DBCF01F0070EDBCF02F0080EDBCF03F0AC
:10352000090EDBCF04F00A0EDBCF05F00550E56E87
:103530000450E56E0350E56E0250E56E0150E56EF5
:103540000050E56E000EE56AE56AE56A0EEC06F0ED
:10355000006E090EE1260050E4CF05F0E4CF04F040
:10356000E4CF03F0E4CF02F0E4CF01F0E4CF00F0C9
:10357000E4CFD9FF1200D9CFE5FFE1CFD9FF00C0DA
:10358000E5FF01C0E5FF02C0E5FF03C0E5FF020E55
:10359000DBCF00F0030EDBCF01F0040EDBCF02F037
:1035A000050EDBCF03F000500E014C6F01504D6F44
:1035B00002500E014E6F03504F6F0E014C510E0121
:1035C0004E03F4CF01F0F3CF00F000500E01506F26
:1035D0000150516F0E014C510E014F03F3CF00F01B
:1035E0000E014D510E014E03F3CF01F001500026A4
:1035F0000E01515100260050516F51CEF3FF505132
:10360000E4CF03F0E4CF02F0E4CF01F0E4CF00F028
:10361000E4CFD9FF1200D9CFE5FFE1CFD9FF00C039
:10362000E5FF01C0E5FF02C0E5FF03C0E5FF04C000
:10363000E5FF050ED924006E000EDA20016E800E23
:10364000026E030E0026000E01220222020ED92471
:10365000036E000EDA20046E0250E56E0150E56E36
:103660000050E56E070EDBCFE5FF060EDBCFE5FF72
:10367000050EDBCFE5FF800EE56E0450E56E0350CE
:10368000E56E0EEC06F0006E090EE1260050E4CF68
:1036900004F0E4CF03F0E4CF02F0E4CF01F0E4CF94
:1036A00000F0E4CFD9FF120000C0E5FF01C0E5FF44
:1036B00002C0E5FF03C0E5FFF29AA3EC1DF0006E27
:1036C000F3CF01F0F4CF02F0E9CF03F0E56AE56A49
:1036D000030EE56EE80EE56E0350E56E0250E56EF2
:1036E0000150E56E0050E56EB5EC17F0006EF3CFBB
:1036F00001F0F4CF02F0E9CF03F0080EE12600500C
:10370000FF080E013C6FFF0E01543D6F000E025486
:103710003E6F000E03543F6FF28AE4CF03F0E4CF14
:1037200002F0E4CF01F0E4CF00F01200D9CFE5FFC2
:10373000E1CFD9FF00C0E5FF01C0E5FF02C0E5FF12
:1037400003C0E5FF04C0E5FF05C0E5FF020EDBCFC7
:1037500000F0030EDBCF01F0040EDBCF02F0036AB2
:1037600003500024046EE86A0120056EE86A022016
:1037700004C0E9FF05C0F3FF4DEC1FF0046E0450D8
:1037800007E00450E56EFAEC1EF0E652032AE8D793
:10379000E4CF05F0E4CF04F0E4CF03F0E4CF02F08F
:1037A000E4CF01F0E4CF00F0E4CFD9FF1200D9CF8D
:1037B000E5FFE1CFD9FF00C0E5FF01C0E5FF02C092
:1037C000E5FF03C0E5FF020EDBCF00F0016A240E27
:1037D0000124026E036A0E0E032202C0E9FF03C039
:1037E000EAFFEFCF02F000C003F0015005E0E86C03
:1037F000D8900332010FFDE3010E03160350E56E6E
:103800000250E56E33EC12F0E652E652012A080E41
:10381000015CDDE33BEC1FF0E4CF03F0E4CF02F00A
:10382000E4CF01F0E4CF00F0E4CFD9FF1200D9CF0C
:10383000E5FFE1CFD9FF00C0E5FF01C0E5FF02C011
:10384000E5FF03C0E5FF020EDBCF00F0016A240EA6
:103850000124026E036A0E0E032202C0E9FF03C0B8
:10386000EAFFEFCF02F000C003F0015005E0E86C82
:10387000D8900332010FFDE3010E03160350E56EED
:103880000250E56E33EC12F0E652E652012A040EC5
:10389000015CDDE33BEC1FF0E4CF03F0E4CF02F08A
:1038A000E4CF01F0E4CF00F0E4CFD9FF1200D9CF8C
:1038B000E5FFE1CFD9FF00C0E5FF01C0E5FF02C091
:1038C000E5FF020EDBCF00F0030EDBCF01F00E01AF
:1038D000386B400E396F140E3A6F540E3B6F0E0169
:1038E0005751010A07E1140E0E01396F280E3A6F85
:1038F0003C0E3B6F026A380E01260E0E022201C0FA
:10390000E9FF02C0EAFFEFCF01F001500026008E70
:103910000050E56E26EC1FF0E652E4CF02F0E4CF53
:1039200001F0E4CF00F0E4CFD9FF1200D8CFE5FFDB
:10393000E0CFE5FFE56EF3CFE5FFF4CFE5FFE9CF9C
:10394000E5FFEACFE5FFFACFE5FFFBCFE5FFD9CFF3
:10395000E5FFE1CFD9FFF6CFE5FFF7CFE5FFF8CFE1
:10396000E5FFF5CFE5FFE4EC1EF0E4CFF5FFE4CF93
:10397000F8FFE4CFF7FFE4CFF6FFE4CFD9FFE4CFC1
:10398000FBFFE4CFFAFFE4CFEAFFE4CFE9FFE4CFA7
:10399000F4FFE4CFF3FFE450E4CFE0FFE4CFD8FF3F
:1039A0001000D8CFE5FFE0CFE5FFE56EF3CFE5FFF0
:1039B000F4CFE5FFE9CFE5FFEACFE5FFFACFE5FF7A
:1039C000FBCFE5FFD9CFE5FFE1CFD9FFF6CFE5FF8C
:1039D000F7CFE5FFF8CFE5FFF5CFE5FFE4CFF5FF43
:1039E000E4CFF8FFE4CFF7FFE4CFF6FFE4CFD9FF51
:1039F000E4CFFBFFE4CFFAFFE4CFEAFFE4CFE9FF37
:103A0000E4CFF4FFE4CFF3FFE450E4CFE0FFE4CFF2
:103A1000D8FF1000D9CFE5FFE1CFD9FF00C0E5FF07
:103A200001C0E5FF02C0E5FF020ED924006E000EC2
:103A3000DA20016E800E026E030E0026000E0122B7
:103A400002220250E56E0150E56E0050E56E040E54
:103A5000DBCFE5FF030EDBCFE5FF020EDBCFE5FF9B
:103A6000000EE56E3D0EE56EF40EE56E6BEC1AF0A1
:103A7000090EE126E4CF02F0E4CF01F0E4CF00F03C
:103A8000E4CFD9FF1200D9CFE5FFE1CFD9FF00C0C5
:103A9000E5FF01C0E5FF020EDBCF00F0030EDBCF38
:103AA00001F00150E56E0E012D51E56E33EC12F080
:103AB000E652E6520E0156A906D00050E56ED7EC4C
:103AC0001BF0E6520BD000380F0BE56E17EC1CF024
:103AD000E6520050E56E17EC1CF0E652E4CF01F020
:103AE000E4CF00F0E4CFD9FF1200E56A0C0EE56EDA
:103AF00062EC11F0E652E652E56AE56AE56AE56ACB
:103B0000050EE56E040EE56E030EE56E020EE56E23
:103B1000010EE56E000EE56A8CEC16F00A0EE12649
:103B2000020EE56E100EE56E98EC14F0E652E652C9
:103B3000000EE56E310EE56ECA0EE56E96EC1BF0DA
:103B4000030EE126120000C0E5FF01C0E5FF02C040
:103B5000E5FF03C0E5FFD3EC13F0006EF3CF01F0F7
:103B6000F4CF02F0E9CF03F0D890033202320132F1
:103B70000032D890033202320132003203C0E9FF32
:103B800002C0F4FF01C0F3FF0050E4CF03F0E4CF24
:103B900002F0E4CF01F0E4CF00F01200D9CFE5FF4E
:103BA000E1CFD9FF00C0E5FF01C0E5FF02C0E5FF9E
:103BB00003C0E5FF020EDBCF00F0030EDBCF01F008
:103BC000026A036A0150035C02E10050025C06E2F3
:103BD0000C0EF7EC18F0024A032AF4D7E4CF03F0F6
:103BE000E4CF02F0E4CF01F0E4CF00F0E4CFD9FF5E
:103BF0001200D9CFE5FFE1CFD9FF00C0E5FF01C03A
:103C0000E5FF02C0E5FF03C0E5FF020EDBCF00F0D9
:103C1000030EDBCF01F0026A036A0150035C02E18C
:103C20000050025C03E2024A032AF7D7E4CF03F014
:103C3000E4CF02F0E4CF01F0E4CF00F0E4CFD9FF0D
:103C40001200D0B202D0930ED0129B8C580E006E90
:103C5000020E016E00C002F001C003F0FF0E00264C
:103C6000012202500310F6E1F29EF29C6DEC1FF06F
:103C700083EC1FF044EC1EF0C5EC19F075EC1DF060
:103C8000ADEC0FF0FDD71200550EA76EAA0EA76E71
:103C90000E01FF91040E0E01F66F050E0E01C96FA5
:103CA000060E0E01FB6F0A0E0E01CB6F090E0E0100
:103CB000CA6F0E0E0E01D16F120E0E01D26F550E8D
:103CC000A76EAA0EA76E0E01FF81120000C0E5FFCD
:103CD00001C0E5FF02C0E5FF03C0E5FFF29A40CE58
:103CE00000F041CE01F042CE02F043CE03F0F28A62
:103CF00003C0E9FF02C0F4FF01C0F3FF0050E4CFAE
:103D000003F0E4CF02F0E4CF01F0E4CF00F01200C2
:103D1000D9CFE5FFE1CFD9FF00C0E5FF01C0E5FF46
:103D2000020EDBCF00F00050E56E22EC17F0016EC2
:103D3000E65201700150E56E0050E56E33EC12F072
:103D4000E652E652E4CF01F0E4CF00F0E4CFD9FF31
:103D50001200E8AE0AD0F3CFEAFFEE50EECFF3FF49
:103D6000EECFF4FFEECFE9FF1200E8BC06EF06F05D
:103D7000E9CFF6FFF3CFF7FFF86E0900F550090021
:103D8000F5CFF3FF0900F5CFF4FF0900F5CFE9FF08
:103D90001200E8AE08D0F3CFEAFFEE50EECFF3FF0B
:103DA000EECFF4FF1200E8BC06EF06F0E9CFF6FF15
:103DB000F3CFF7FFF86E0900F5500900F5CFF3FFD8
:103DC0000900F5CFF4FF120000C0E5FFF2A40FD008
:103DD000F2940E013D51006ED76E3C51D66E0E012D
:103DE000402B05E3412B03E3423F01D0432BE4CFBB
:103DF00000F01200D9CFE5FFE1CFD9FF00C0E5FF09
:103E0000020EDBCF00F0010EE56E0050E56E43ECD4
:103E10001DF0E652E652E4CF00F0E4CFD9FF1200E5
:103E2000E8AE06D0F3CFEAFFEE50EECFF3FF12007C
:103E3000E8BC06EF06F0E9CFF6FFF3CFF7FFF86E28
:103E40000900F5500900F5CFF3FF1200D9CFE5FFC7
:103E5000E1CFD9FF00C0E5FF020EDBCF00F0E56A3D
:103E60000050E56E43EC1DF0E652E652E4CF00F060
:103E7000E4CFD9FF1200010EE56E0E012F51E56E61
:103E800033EC12F0E652E652E56A0E012F51E56E70
:103E900033EC12F0E652E6521200E8AE04D0F3CF53
:103EA000EAFFEE501200E8BC06EF06F0E9CFF6FF9D
:103EB000F3CFF7FFF86E0900F5501200E8AE09D015
:103EC000F3CFEAFFE4CFEEFFF4CFEEFFF6CFEEFF45
:103ED0001200E8BC06EF06F01200896A8A6A8B6A53
:103EE000926A936A949094929494949C949E1200F3
:103EF000E8AE05D0F3CFEAFFE4CFEEFF1200E8BC56
:103F000006EF06F012000F0148691F0E0F01496FFE
:103F1000D26AD16A0F01536B12000100040C000039
:083F20002C0E0000040000005B
:00000001FF
