:020000040000FA
:100C00003AEF0EF00008FF09E0EF0FF0010E0E01C1
:100C1000B06F0E01B16F12001BEF10F0D9CFE5FFDE
:100C2000E1CFD9FF00C0E5FF01C0E5FF02C0E5FF4D
:100C300003C0E5FF04C0E5FF05C0E5FF06C0E5FF12
:100C400007C0E5FF020EDBCF00F0030EDBCF01F0A3
:100C5000040EDBCF02F0050EDBCF03F0060EDBCF78
:100C600004F0070EDBCF05F0080EDBCF06F0090E0F
:100C7000DBCF07F000500E01906F0150916F0250D2
:100C8000926F0350936F04500E01946F0550956F4F
:100C90000650966F0750976F0E0190510E01960304
:100CA000F4CF01F0F3CF00F000500E019A6F015025
:100CB0009B6F0E0190510E019403F4CF01F0F3CF1E
:100CC00000F000500E01986F0150996F0E01935182
:100CD0000E019403F3CF00F00E019B51002600504B
:100CE0009B6F0E0192510E019503F3CF00F00E01A0
:100CF0009B51002600509B6F0E0192510E019403F0
:100D0000F4CF01F0F3CF00F00E019A5100269B5171
:100D1000012200509A6F01509B6F0E0191510E01FC
:100D20009503F4CF01F0F3CF00F00E019A510026A5
:100D30009B51012200509A6F01509B6F0E019151FF
:100D40000E019603F3CF00F000500E019F6F0E01CD
:100D500091510E019403F4CF01F0F3CF00F0005055
:100D60000E019D6F01509E6F0E0190510E01970371
:100D7000F3CF00F000500E01A36F0E0190510E0151
:100D80009503F4CF01F0F3CF00F000500E01A16FF6
:100D90000150A26F0E019C6B0E01A06B0E019C51C5
:100DA0000E019825006E0E019D510E019921016ED4
:100DB0000E019E510E019A21026E0E019F510E01ED
:100DC0009B21036E0050986F0150996F02509A6FEB
:100DD00003509B6F0E01A0510E019825006E0E016D
:100DE000A1510E019921016E0E01A2510E019A210D
:100DF000026E0E01A3510E019B21036E03C0E9FF99
:100E000002C0F4FF01C0F3FF0050E4CF07F0E4CFCD
:100E100006F0E4CF05F0E4CF04F0E4CF03F0E4CF34
:100E200002F0E4CF01F0E4CF00F0E4CFD9FF1200EC
:100E3000D9CFE5FFE1CFD9FF00C0E5FF01C0E5FF55
:100E400002C0E5FF03C0E5FF04C0E5FF020EDBCFF3
:100E500000F0030EDBCF01F0D40E0024026E036A13
:100E60001D0E0322046A000E042202C0F6FF03C016
:100E7000F7FF04C0F8FF0900F5CF02F0030E025C93
:100E8000D8B09AD0FA6AFB6A0234FA36E834FA36F5
:100E9000FC0BA20FE56E0E0EFA22000EFB22E450B0
:100EA000F96E57EF07F084EF07F0B1EF07F001504C
:100EB00015E0C20E0024026E036A1D0E0322046AAE
:100EC000000E042202C0F6FF03C0F7FF04C0F8FFC3
:100ED0000900F5CF02F0025092126ED0C20E00242B
:100EE000026E036A1D0E0322046A000E042202C071
:100EF000F6FF03C0F7FF04C0F8FF0900F5CF02F0CA
:100F00000250FF08921658D0015015E0C20E00247E
:100F1000026E036A1D0E0322046A000E042202C040
:100F2000F6FF03C0F7FF04C0F8FF0900F5CF02F099
:100F30000250931241D0C20E0024026E036A1D0EAD
:100F40000322046A000E042202C0F6FF03C0F7FF6A
:100F500004C0F8FF0900F5CF02F00250FF08931615
:100F60002BD0015015E0C20E0024016E026A1D0E46
:100F70000222036A000E032201C0F6FF02C0F7FF3F
:100F800003C0F8FF0900F5CF01F00150941214D00E
:100F9000016A026AC20E00261D0E0122000E022204
:100FA00000C0F6FF01C0F7FF02C0F8FF0900F5CF4F
:100FB00000F00050FF089416E4CF04F0E4CF03F0F3
:100FC000E4CF02F0E4CF01F0E4CF00F0E4CFD9FFAA
:100FD0001200D9CFE5FFE1CFD9FF00C0E5FF01C086
:100FE000E5FF02C0E5FF03C0E5FF04C0E5FF020E18
:100FF000DBCF00F0030EDBCF01F0D40E0024026E35
:10100000036A1D0E0322046A000E042202C0F6FFCA
:1010100003C0F7FF04C0F8FF0900F5CF02F0030E8C
:10102000025CD8B09AD0FA6AFB6A0234FA36E83425
:10103000FA36FC0B440FE56E100EFA22000EFB226E
:10104000E450F96E28EF08F055EF08F082EF08F051
:10105000015015E0C20E0024026E036A1D0E032229
:10106000046A000E042202C0F6FF03C0F7FF04C0AA
:10107000F8FF0900F5CF02F0025089126ED0C20EBF
:101080000024026E036A1D0E0322046A000E04226D
:1010900002C0F6FF03C0F7FF04C0F8FF0900F5CF58
:1010A00002F00250FF08891658D0015015E0C20E18
:1010B0000024026E036A1D0E0322046A000E04223D
:1010C00002C0F6FF03C0F7FF04C0F8FF0900F5CF28
:1010D00002F002508A1241D0C20E0024026E036A4E
:1010E0001D0E0322046A000E042202C0F6FF03C094
:1010F000F7FF04C0F8FF0900F5CF02F00250FF0827
:101100008A162BD0015015E0C20E0024016E026A2F
:101110001D0E0222036A000E032201C0F6FF02C068
:10112000F7FF03C0F8FF0900F5CF01F001508B1263
:1011300014D0016A026AC20E00261D0E0122000EA2
:10114000022200C0F6FF01C0F7FF02C0F8FF09004D
:10115000F5CF00F00050FF088B16E4CF04F0E4CF89
:1011600003F0E4CF02F0E4CF01F0E4CF00F0E4CFED
:10117000D9FF1200D9CFE5FFE1CFD9FF00C0E5FFCD
:1011800001C0E5FF02C0E5FF03C0E5FF04C0E5FFC5
:1011900005C0E5FF06C0E5FF07C0E5FF08C0E5FFA5
:1011A00009C0E5FF0AC0E5FF0BC0E5FF0CC0E5FF85
:1011B0000DC0E5FF020EDBCF00F0030EDBCF01F028
:1011C000040EDBCF02F0050EDBCF03F0060EDBCF03
:1011D00004F0070EDBCF05F0080EDBCF06F0090E9A
:1011E000DBCF07F0D88003AED890086A08360850E5
:1011F0000FE0031C0C6E021C0B6E011C0A6E001C1F
:10120000096E092A0DE10A2A0BE10B4A0C2A08D0C3
:1012100000C009F001C00AF002C00BF003C00CF0DE
:10122000D88007AED890006A003600500FE0071C47
:101230000D6E061C036E051C026E041C016E012A55
:101240000DE1022A0BE1034A0D2A08D004C001F087
:1012500005C002F006C003F007C00DF00D50E56EAA
:101260000350E56E0250E56E0150E56E0C50E56EE0
:101270000B50E56E0A50E56E0950E56ECEEC0CF0B1
:10128000016EF3CF02F0F4CF03F0E9CF04F0080EC3
:10129000E1260050081A085016E0041C076E031CD3
:1012A000066E021C056E011C006E002A04E1052A70
:1012B00002E1064A072A07C0E9FF06C0F4FF05C09D
:1012C000F3FF005007D004C0E9FF03C0F4FF02C0E1
:1012D000F3FF0150E4CF0DF0E4CF0CF0E4CF0BF0BE
:1012E000E4CF0AF0E4CF09F0E4CF08F0E4CF07F050
:1012F000E4CF06F0E4CF05F0E4CF04F0E4CF03F050
:10130000E4CF02F0E4CF01F0E4CF00F0E4CFD9FF66
:10131000120000C0E5FF01C0E5FF02C0E5FF03C009
:10132000E5FF04C0E5FFD350030B006EFA6AFB6AC9
:101330000034FA36E834FA36FC0B4A0FE56E130E29
:10134000FA22000EFB22E450F96EADEF09F00EEF29
:101350000AF014EF0AF014EF0AF0E56AE56AE568AE
:10136000F90EE56EE2EC0DF0006E040EE126030EC0
:101370000016E60E0024016E026A1D0E0222036AA8
:10138000000E032201C0F6FF02C0F7FF03C0F8FF02
:101390000900F5CF00F09BAC22D000C001F0E56A57
:1013A000E56AE56A0150E56E020EE56EDC0EE56E5B
:1013B0006C0EE56E000EE56ABAEC08F0016EF3CF34
:1013C00002F0F4CF03F0E9CF04F0080EE12604C0E8
:1013D000E9FF03C0F4FF02C0F3FF015054D0E56AF7
:1013E000E56AE56A0050E56EE56A7A0EE56E120E72
:1013F000E56E000EE56ABAEC08F0006EF3CF01F07E
:10140000F4CF02F0E9CF03F0080EE12603C0E9FFB4
:1014100002C0F4FF01C0F3FF005035D0E96AF46A5E
:10142000800EF36EE86A2FD0D350E838070BE56AD8
:10143000E56EE56A040EE56E91EC0EF0006EF3CFFA
:1014400001F0040EE126026AEA0E00261D0E0122BA
:10145000000E022200C0F6FF01C0F7FF02C0F8FF35
:101460000900F5CF00F00900F5CF01F00900F5CF34
:1014700002F00900F5CF03F003C0E9FF02C0F4FF5A
:1014800001C0F3FF0050E4CF04F0E4CF03F0E4CF59
:1014900002F0E4CF01F0E4CF00F01200D9CFE5FF75
:1014A000E1CFD9FF00C0E5FF01C0E5FF020EDBCFB1
:1014B00000F0030EDBCF01F0020E005C02E30E0130
:1014C000AF8700C0ADFE0E01AE6B015005E00050CD
:1014D000010A02E10E01AF85E56A0F0EE56E40ECF0
:1014E00011F0E652E652E56A0E018951E56EE9EC2B
:1014F00007F0E652E652E56A0E018B51E56EE9EC23
:1015000007F0E652E6520E01AFB92AD0030EE56E9F
:1015100064EC0FF0E652E56A050EE56E40EC11F062
:10152000E652E652030EE56E64EC0FF0E652E56A11
:10153000960EE56E6BEC11F0E652E652030EE56E88
:1015400064EC0FF0E652E56A960EE56E6BEC11F076
:10155000E652E652020EE56E64EC0FF0E65223D03E
:10156000200E0E01AF11E56E0DEC12F0E652E56AA9
:10157000050EE56E40EC11F0E652E652200E0E012B
:10158000AF11E56E0DEC12F0E652E56A050EE56E60
:1015900040EC11F0E652E652200E0E01AF11E56E5E
:1015A0000DEC12F0E652200E0E01AF11E56E0DECBF
:1015B00012F0E652040E0E01AA6F0C0EE56E0DEC51
:1015C00012F0E652010EE56E0DEC12F0E652E56AFD
:1015D000020EE56E40EC11F0E652E652020E0E01EC
:1015E000AB6F060EE56E0DEC12F0E652E4CF01F0A3
:1015F000E4CF00F0E4CFD9FF1200D9CFE5FFE1CF6F
:10160000D9FF00C0E5FF01C0E5FF02C0E5FF03C050
:10161000E5FF04C0E5FF05C0E5FF06C0E5FF07C024
:10162000E5FF08C0E5FF020EDBCF00F0030EDBCFC5
:1016300089FE040EDBCF8AFE050EDBCF8BFE060E85
:10164000DBCF01F0070EDBCF02F0080EDBCF03F09B
:10165000090EDBCF04F00A0EDBCF05F00B0EDBCF5B
:1016600006F00C0EDBCF07F00D0EDBCF08F00150BB
:101670000E01806F0250816F0350826F0450836FA0
:101680000550846F0650856F0750866F0850876F2E
:10169000E56A0E018951E56E18EC07F0E652E65254
:1016A000E56A0E018B51E56E18EC07F0E652E65242
:1016B00000501BE00E01AF6B006A800E0024016E2B
:1016C000026A0E0E022201C0E9FF02C0EAFFEFCF5C
:1016D00001F0E56A0150E56E18EC07F0E652E652BB
:1016E000002A040E005CE9E31BD0100E0E01AF6F60
:1016F000006A800E0024016E026A0E0E022201C0F2
:10170000E9FF02C0EAFFEFCF01F0E56A0150E56EA4
:1017100018EC07F0E652E652002A080E005CE9E3F6
:10172000E4CF08F0E4CF07F0E4CF06F0E4CF05F013
:10173000E4CF04F0E4CF03F0E4CF02F0E4CF01F013
:10174000E4CF00F0E4CFD9FF1200D9CFE5FFE1CF1D
:10175000D9FF00C0E5FF01C0E5FF02C0E5FF03C0FF
:10176000E5FF04C0E5FF05C0E5FF06C0E5FF07C0D3
:10177000E5FF08C0E5FF09C0E5FF0AC0E5FF0BC0B3
:10178000E5FF0CC0E5FF0DC0E5FF020EDBCF00F06A
:10179000030EDBCF01F0040EDBCF02F0050EDBCF32
:1017A00003F0060EDBCF04F0070EDBCF05F0080ECA
:1017B000DBCF06F0090EDBCF07F00A0EDBCF08F017
:1017C0000B0EDBCF09F006C00AF00B6A07C00CF065
:1017D0000D6A0C500A260D500B2208C00CF00C505C
:1017E0000A260D500B2209C00CF00C500A260D5091
:1017F0000B220A5005E10B5003E10A6A0A2A01D0C4
:101800000A6A0950E56E0850E56E0750E56E06500D
:10181000E56E0550E56E0450E56E0350E56E02502E
:10182000E56E0150E56EE5680050E56E0A50E56E24
:10183000FDEC0AF00C0EE126E4CF0DF0E4CF0CF045
:10184000E4CF0BF0E4CF0AF0E4CF09F0E4CF08F0E6
:10185000E4CF07F0E4CF06F0E4CF05F0E4CF04F0E6
:10186000E4CF03F0E4CF02F0E4CF01F0E4CF00F0E6
:10187000E4CFD9FF1200D9CFE5FFE1CFD9FF00C0F7
:10188000E5FF01C0E5FF02C0E5FF03C0E5FF020E72
:10189000DBCF00F0D40E0024016E026A1D0E02227E
:1018A000036A000E032201C0F6FF02C0F7FF03C067
:1018B000F8FF0900F5CF01F0030E015CD8B062D04B
:1018C000FA6AFB6A0134FA36E834FA36FC0BDE0FAA
:1018D000E56E180EFA22000EFB22E450F96E75EF49
:1018E0000CF08FEF0CF0A9EF0CF0C20E0024016E8B
:1018F000026A1D0E0222036A000E032201C0F6FFD7
:1019000002C0F7FF03C0F8FF0900F5CF01F08050D7
:101910000116015002E0010E36D0E86A34D0C20E42
:101920000024016E026A1D0E0222036A000E0322C9
:1019300001C0F6FF02C0F7FF03C0F8FF0900F5CFB2
:1019400001F081500116015002E0010E1CD0E86A3E
:101950001AD0016A026AC20E00261D0E0122000E74
:10196000022200C0F6FF01C0F7FF02C0F8FF090025
:10197000F5CF00F082500016005002E0010E03D0B7
:10198000E86A01D0E86AE4CF03F0E4CF02F0E4CFE4
:1019900001F0E4CF00F0E4CFD9FF1200D9CFE5FF8A
:1019A000E1CFD9FF00C0E5FF01C0E5FF02C0E5FFC0
:1019B00003C0E5FF04C0E5FF05C0E5FF06C0E5FF85
:1019C00007C0E5FF08C0E5FF09C0E5FF0AC0E5FF65
:1019D0000BC0E5FF0CC0E5FF0DC0E5FF020EDBCF3D
:1019E00000F0030EDBCF01F0040EDBCF02F0050E9A
:1019F000DBCF03F0060EDBCF04F0070EDBCF05F0E4
:101A0000080EDBCF06F0090EDBCF07F0086A096A83
:101A10000A6A0B6A200E0C6E0350800BE8440D6EB0
:101A200000500026013602360336085008260936D3
:101A30000A360B360D50D8A4088007500B5C08E11D
:101A400006500A5C05E10550095C02E10450085C9F
:101A500009E30450085E0550095A06500A5A075017
:101A60000B5A00800C2ED8D703C0E9FF02C0F4FF48
:101A700001C0F3FF0050E4CF0DF0E4CF0CF0E4CF51
:101A80000BF0E4CF0AF0E4CF09F0E4CF08F0E4CFA4
:101A900007F0E4CF06F0E4CF05F0E4CF04F0E4CFA4
:101AA00003F0E4CF02F0E4CF01F0E4CF00F0E4CFA4
:101AB000D9FF1200D9CFE5FFE1CFD9FF00C0E5FF84
:101AC00001C0E5FF02C0E5FF03C0E5FF04C0E5FF7C
:101AD00005C0E5FF06C0E5FF07C0E5FF020EDBCF4E
:101AE00000F0030EDBCF01F0040EDBCF02F0050E99
:101AF000DBCF03F089EC09F0046EF3CF05F0F4CFEF
:101B000006F0E9CF07F00350E56E0250E56E015094
:101B1000E56E0050E56EE56AE56AE56A040EE56E7D
:101B20000EEC06F0006EF3CF01F0F4CF02F0E9CF37
:101B300003F0080EE1260350E56E0250E56E0150F9
:101B4000E56E0050E56E0750E56E0650E56E0550F7
:101B5000E56E0450E56ECEEC0CF0006EF3CF01F0B4
:101B6000080EE126FF0E002601220150046E948E1D
:101B7000AD847E8604C07FFF00C0B0FF900EAC6EC7
:101B80007E8CAD8A9E9A9D8A9F8A9E989D98010E12
:101B90000E01B06F0E01B16FF28EF28CF28CE4CFB9
:101BA00007F0E4CF06F0E4CF05F0E4CF04F0E4CF93
:101BB00003F0E4CF02F0E4CF01F0E4CF00F0E4CF93
:101BC000D9FF1200D9CFE5FFE1CFD9FF00C0E5FF73
:101BD00001C0E5FF02C0E5FF03C0E5FF04C0E5FF6B
:101BE00005C0E5FF06C0E5FF07C0E5FF020EDBCF3D
:101BF00000F0030EDBCF01F0040EDBCF02F0050E88
:101C0000DBCF03F00250046E0350056E066A076ACC
:101C10000450F86E0150046E0250056E0350066EBB
:101C2000076A0450F76E0050F66E0900F5CF00F019
:101C30000900F5CF01F0026A0150046E036A056ADB
:101C4000005003260550042204C0F3FF0350E4CFE4
:101C500007F0E4CF06F0E4CF05F0E4CF04F0E4CFE2
:101C600003F0E4CF02F0E4CF01F0E4CF00F0E4CFE2
:101C7000D9FF120018EEFFF028EEFFF0F86AA68EEA
:101C8000A69CBF0EE96E0E0EEA6E0068ED6A00506B
:101C9000FDE1F80EF66E240EF76E000EF86E0900E8
:101CA000F5CF05F00900F5CF06F034D00900F5CFE7
:101CB00000F00900F5CF01F00900F5CF02F00900AE
:101CC0000900F5CFE9FF0900F5CFEAFF0900090097
:101CD0000900F5CF03F00900F5CF04F00900090071
:101CE000F6CF07F0F7CF08F0F8CF09F000C0F6FF05
:101CF00001C0F7FF02C0F8FF03D00900F5CFEEFFE7
:101D00000306FBE20406F9E207C0F6FF08C0F7FF8E
:101D100009C0F8FF0506CAE20606C8E2B5EC11F0F4
:101D2000FFD7D9CFE5FFE1CFD9FF00C0E5FF01C064
:101D3000E5FF02C0E5FF03C0E5FF020EDBCF00F0C8
:101D4000030EDBCF01F0040EDBCF02F0050EDBCF7C
:101D500003F000500E01A46F0150A56F02500E0158
:101D6000A66F0350A76F0E01A4510E01A603F4CF76
:101D700001F0F3CF00F000500E01A86F0150A96FE1
:101D80000E01A4510E01A703F3CF00F00E01A551DF
:101D90000E01A603F3CF01F0015000260E01A95158
:101DA00000260050A96FA9CEF3FFA851E4CF03F09D
:101DB000E4CF02F0E4CF01F0E4CF00F0E4CFD9FFAC
:101DC000120001020408102040804080010204013A
:101DD00002040820010101010101010102020202C5
:101DE00002000000000006030201127A000048E829
:101DF000010090D0030020A1070040420F00808422
:101E00001E0000093D0000127A00E806E56E630E30
:101E100018EC0FF0E4500BE000D0E56E630E18EC08
:101E20000FF000D000D00000E450E82EF6D71200EA
:101E3000E8060000E85007E000D000D000D000D055
:101E40000000E82EFAD71200D9CFE5FFE1CFD9FF85
:101E500000C0E5FF01C0E5FF02C0E5FF03C0E5FFEC
:101E6000020EDBCF00F0016A800E0124026E036ACD
:101E70000E0E032202C0E9FF03C0EAFFEFCF02F01B
:101E800000C003F0015005E0E86CD8900332010F68
:101E9000FDE3010E03160350E56E0250E56EE9EC1A
:101EA00007F0E652E652012A080E015CDDE347EC3A
:101EB00012F0E4CF03F0E4CF02F0E4CF01F0E4CF7E
:101EC00000F0E4CFD9FF1200D9CFE5FFE1CFD9FF71
:101ED00000C0E5FF01C0E5FF02C0E5FF03C0E5FF6C
:101EE000020EDBCF00F0016A800E0124026E036A4D
:101EF0000E0E032202C0E9FF03C0EAFFEFCF02F09B
:101F000000C003F0015005E0E86CD8900332010FE7
:101F1000FDE3010E03160350E56E0250E56EE9EC99
:101F200007F0E652E652012A040E015CDDE347ECBD
:101F300012F0E4CF03F0E4CF02F0E4CF01F0E4CFFD
:101F400000F0E4CFD9FF120000C0E5FF22EC12F050
:101F5000006E005015E0E56A640EE56E40EC11F08D
:101F6000E652E65259EC12F022EC12F0006E0050EC
:101F700007E0EAEC10F0E56EF7EC11F0E652F4D76A
:101F8000010EE56E0D0EE56EE9EC07F0E652E65245
:101F9000E56A640EE56E40EC11F0E652E652E56A41
:101FA0000D0EE56EE9EC07F0E652E652E56A640EC6
:101FB000E56E40EC11F0E652E652E4CF00F012007C
:101FC000D8CFE5FFE0CFE5FFE56EF3CFE5FFF4CF37
:101FD000E5FFE9CFE5FFEACFE5FFFACFE5FFFBCF6D
:101FE000E5FFD9CFE5FFE1CFD9FFF6CFE5FFF7CF8A
:101FF000E5FFF8CFE5FFF5CFE5FF54EC10F0E4CFB7
:10200000F5FFE4CFF8FFE4CFF7FFE4CFF6FFE4CF2E
:10201000D9FFE4CFFBFFE4CFFAFFE4CFEAFFE4CF40
:10202000E9FFE4CFF4FFE4CFF3FFE450E4CFE0FFB7
:10203000E4CFD8FF1000D8CFE5FFE0CFE5FFE56E95
:10204000F3CFE5FFF4CFE5FFE9CFE5FFEACFE5FF0A
:10205000FACFE5FFFBCFE5FFD9CFE5FFE1CFD9FF11
:10206000F6CFE5FFF7CFE5FFF8CFE5FFF5CFE5FFCA
:10207000E4CFF5FFE4CFF8FFE4CFF7FFE4CFF6FFBE
:10208000E4CFD9FFE4CFFBFFE4CFFAFFE4CFEAFFD0
:10209000E4CFE9FFE4CFF4FFE4CFF3FFE450E4CF73
:1020A000E0FFE4CFD8FF100000C0E5FF01C0E5FF6E
:1020B00002C0E5FF9EAA27D09E9AAFCF00F00E0186
:1020C000B0517F0A04E00E01B029016E02D0010E6A
:1020D000016E0E01B15101180FE0B0CE01F00E01FA
:1020E000B02B026A000E01260E0E022201C0E9FF8B
:1020F00002C0EAFF00C0EFFF0E01B051800A03E109
:10210000010E0E01B06FE4CF02F0E4CF01F0E4CF96
:1021100000F01200D9CFE5FFE1CFD9FF00C0E5FF05
:1021200001C0E5FF020EDBCF00F0030EDBCF01F0B4
:102130000150E56E0E018951E56EE9EC07F0E652BB
:10214000E6520E01AFA906D00050E56E24EC0FF068
:10215000E6520BD000380F0BE56E64EC0FF0E65240
:102160000050E56E64EC0FF0E652E4CF01F0E4CFEE
:1021700000F0E4CFD9FF1200E56AE56AE56AE56A96
:10218000050EE56E040EE56E030EE56E020EE56EBD
:10219000010EE56E000EE56AA5EC0BF00A0EE126D5
:1021A000020EE56E100EE56E4EEC0AF0E652E652B7
:1021B000E56AE56A250EE56E800EE56E5AEC0DF0D7
:1021C000040EE126E56A0D0EE56E18EC07F0E65206
:1021D000E652120000C0E5FF01C0E5FF02C0E5FFC6
:1021E000006A22EC12F0016E015017E09D9AB1CE08
:1021F00001F00E01B12B026A000E01260E0E022222
:1022000001C0E9FF02C0EAFFEFCF00F0B151800A40
:1022100003E1010E0E01B16F9D8A0050E4CF02F080
:10222000E4CF01F0E4CF00F0120000C0E5FF01C0F0
:10223000E5FF02C0E5FF03C0E5FF89EC09F0006E91
:10224000F3CF01F0F4CF02F0E9CF03F0D8900332DE
:10225000023201320032D8900332023201320032AF
:1022600003C0E9FF02C0F4FF01C0F3FF0050E4CF58
:1022700003F0E4CF02F0E4CF01F0E4CF00F012006D
:10228000D9CFE5FFE1CFD9FF00C0E5FF01C0E5FFF1
:1022900002C0E5FF03C0E5FF020EDBCF00F0030E36
:1022A000DBCF01F0026A036A0150035C02E10050D7
:1022B000025C06E20C0E05EC0FF0024A032AF4D78A
:1022C000E4CF03F0E4CF02F0E4CF01F0E4CF00F07C
:1022D000E4CFD9FF1200D9CFE5FFE1CFD9FF00C08D
:1022E000E5FF01C0E5FF02C0E5FF03C0E5FF020E08
:1022F000DBCF00F0030EDBCF01F0026A036A01506E
:10230000035C02E10050025C03E2024A032AF7D7B1
:10231000E4CF03F0E4CF02F0E4CF01F0E4CF00F02B
:10232000E4CFD9FF1200550EA76EAA0EA76E0E01BC
:10233000FF91040E0E01F66F050E0E01C96F060E19
:102340000E01FB6F0A0E0E01CB6F090E0E01CA6F54
:102350000E0E0E01D16F120E0E01D26F550EA76E2A
:10236000AA0EA76E0E01FF811200D0B202D0930E0A
:10237000D0129B8C580E006E020E016E00C002F04F
:1023800001C003F0FF0E0026012202500310F6E107
:10239000F29EF29C66EC12F072EC12F093EC11F0EB
:1023A000BCEC10F0A4EC0FF0FDD71200D9CFE5FF84
:1023B000E1CFD9FF00C0E5FF01C0E5FF020EDBCF92
:1023C00000F00050E56E3BEC0CF0016EE65201703F
:1023D0000150E56E0050E56EE9EC07F0E652E6527A
:1023E000E4CF01F0E4CF00F0E4CFD9FF1200D9CF61
:1023F000E5FFE1CFD9FF00C0E5FF020EDBCF00F023
:10240000010EE56E0050E56E8AEC10F0E652E652E1
:10241000E4CF00F0E4CFD9FF1200D9CFE5FFE1CF40
:10242000D9FF00C0E5FF020EDBCF00F0E56A0050E7
:10243000E56E8AEC10F0E652E652E4CF00F0E4CF0D
:10244000D9FF120000C0E5FF006A0E01B0510E0175
:10245000B11901E1002A0050D880E866D890006ADE
:1024600000360050E4CF00F01200D9CFE5FFE1CFF5
:10247000D9FF00C0E5FF020EDBCF00F0ADA2FED712
:1024800000C0AEFFE4CF00F0E4CFD9FF1200010E90
:10249000E56E0E018B51E56EE9EC07F0E652E6526F
:1024A000E56A0E018B51E56EE9EC07F0E652E65263
:1024B0001200010EE56E0DEC12F0E652E56A020E16
:1024C000E56E40EC11F0E652E6521200896A8A6A23
:1024D000440E8B6E926A936A949094929494949C16
:1024E000949E12000F0148691F0E0F01496FD26AB6
:1024F000D16A0F01536B12000100040C0000880E1A
:06250000000004000000D1
:00000001FF
