:020000040000FA
:100C000024EF0AF0D9CFE5FFE1CFD9FF00C0E5FF1F
:100C100001C0E5FF02C0E5FF03C0E5FF04C0E5FF3A
:100C2000020EDBCF00F0030EDBCF01F0180E002424
:100C3000026E036A170E0322046A000E042202C029
:100C4000F6FF03C0F7FF04C0F8FF0900F5CF02F07C
:100C5000030E025CD8B09AD0FA6AFB6A0234FA3604
:100C6000E834FA36FC0B760FE56E0C0EFA22000E15
:100C7000FB22E450F96E41EF06F06EEF06F09BEFB9
:100C800006F0015015E0060E0024026E036A170EEE
:100C90000322046A000E042202C0F6FF03C0F7FF1D
:100CA00004C0F8FF0900F5CF02F0025092126ED096
:100CB000060E0024026E036A170E0322046A000E59
:100CC000042202C0F6FF03C0F7FF04C0F8FF0900CA
:100CD000F5CF02F00250FF08921658D0015015E0EF
:100CE000060E0024026E036A170E0322046A000E29
:100CF000042202C0F6FF03C0F7FF04C0F8FF09009A
:100D0000F5CF02F00250931241D0060E0024026E7D
:100D1000036A170E0322046A000E042202C0F6FFC3
:100D200003C0F7FF04C0F8FF0900F5CF02F002503E
:100D3000FF0893162BD0015015E0060E0024016E1B
:100D4000026A170E0222036A000E032201C0F6FF98
:100D500002C0F7FF03C0F8FF0900F5CF01F0015012
:100D6000941214D0016A026A060E0026170E0122A0
:100D7000000E022200C0F6FF01C0F7FF02C0F8FF1C
:100D80000900F5CF00F00050FF089416E4CF04F0FE
:100D9000E4CF03F0E4CF02F0E4CF01F0E4CF00F0C1
:100DA000E4CFD9FF1200D9CFE5FFE1CFD9FF00C0D2
:100DB000E5FF01C0E5FF02C0E5FF03C0E5FF04C099
:100DC000E5FF020EDBCF00F0030EDBCF01F0180EC3
:100DD0000024026E036A170E0322046A000E042226
:100DE00002C0F6FF03C0F7FF04C0F8FF0900F5CF0B
:100DF00002F0030E025CD8B09AD0FA6AFB6A0234A1
:100E0000FA36E834FA36FC0B180FE56E0E0EFA22AD
:100E1000000EFB22E450F96E12EF07F03FEF07F0EF
:100E20006CEF07F0015015E0060E0024026E036A15
:100E3000170E0322046A000E042202C0F6FF03C04C
:100E4000F7FF04C0F8FF0900F5CF02F00250891245
:100E50006ED0060E0024026E036A170E0322046A87
:100E6000000E042202C0F6FF03C0F7FF04C0F8FF23
:100E70000900F5CF02F00250FF08891658D0015042
:100E800015E0060E0024026E036A170E0322046AA0
:100E9000000E042202C0F6FF03C0F7FF04C0F8FFF3
:100EA0000900F5CF02F002508A1241D0060E00244C
:100EB000026E036A170E0322046A000E042202C0A7
:100EC000F6FF03C0F7FF04C0F8FF0900F5CF02F0FA
:100ED0000250FF088A162BD0015015E0060E0024A0
:100EE000016E026A170E0222036A000E032201C07D
:100EF000F6FF02C0F7FF03C0F8FF0900F5CF01F0CD
:100F000001508B1214D0016A026A060E0026170ED9
:100F10000122000E022200C0F6FF01C0F7FF02C04E
:100F2000F8FF0900F5CF00F00050FF088B16E4CF62
:100F300004F0E4CF03F0E4CF02F0E4CF01F0E4CF1B
:100F400000F0E4CFD9FF1200D9CFE5FFE1CFD9FF00
:100F500000C0E5FF01C0E5FF020EDBCF00F0030E8D
:100F6000DBCF01F0020E005C02E30E01148700C02B
:100F700015FE0E01136B015005E00050010A02E15D
:100F80000E011485E56A0F0EE56EE8EC0BF0E652F3
:100F9000E652E56A0E010951E56ED3EC06F0E65221
:100FA000E652E56A0E010B51E56ED3EC06F0E6520F
:100FB000E6520E0114B92AD0030EE56E04EC0BF0D4
:100FC000E652E56A050EE56EE8EC0BF0E652E652F5
:100FD000030EE56E04EC0BF0E652E56A960EE56E44
:100FE0003CEC0CF0E652E652030EE56E04EC0BF01E
:100FF000E652E56A960EE56E3CEC0CF0E652E652DF
:10100000020EE56E04EC0BF0E65223D0200E0E012A
:101010001411E56EDEEC0CF0E652E56A050EE56EA5
:10102000E8EC0BF0E652E652200E0E011411E56ECC
:10103000DEEC0CF0E652E56A050EE56EE8EC0BF02E
:10104000E652E652200E0E011411E56EDEEC0CF0B5
:10105000E652200E0E011411E56EDEEC0CF0E652A5
:10106000040E0E01106F0C0EE56EDEEC0CF0E65275
:10107000010EE56EDEEC0CF0E652E56A020EE56E5E
:10108000E8EC0BF0E652E652020E0E01116F060E6E
:10109000E56EDEEC0CF0E652E4CF01F0E4CF00F0B8
:1010A000E4CFD9FF1200D9CFE5FFE1CFD9FF00C0CF
:1010B000E5FF01C0E5FF02C0E5FF03C0E5FF04C096
:1010C000E5FF05C0E5FF06C0E5FF07C0E5FF08C076
:1010D000E5FF020EDBCF00F0030EDBCF09FE040EAE
:1010E000DBCF0AFE050EDBCF0BFE060EDBCF01F0D9
:1010F000070EDBCF02F0080EDBCF03F0090EDBCFCB
:1011000004F00A0EDBCF05F00B0EDBCF06F00C0E61
:10111000DBCF07F00D0EDBCF08F001500E01006FA2
:101120000250016F0350026F0450036F0550046FAB
:101130000650056F0750066F0850076FE56A0E01ED
:101140000951E56E02EC06F0E652E652E56A0E0140
:101150000B51E56E02EC06F0E652E65200501BE041
:101160000E01146B006A000E0024016E026A0E0E5E
:10117000022201C0E9FF02C0EAFFEFCF01F0E56AF9
:101180000150E56E02EC06F0E652E652002A040E2B
:10119000005CE9E31BD0100E0E01146F006A000E14
:1011A0000024016E026A0E0E022201C0E9FF02C095
:1011B000EAFFEFCF01F0E56A0150E56E02EC06F0C0
:1011C000E652E652002A080E005CE9E3E4CF08F09C
:1011D000E4CF07F0E4CF06F0E4CF05F0E4CF04F06D
:1011E000E4CF03F0E4CF02F0E4CF01F0E4CF00F06D
:1011F000E4CFD9FF1200D9CFE5FFE1CFD9FF00C07E
:10120000E5FF01C0E5FF02C0E5FF03C0E5FF04C044
:10121000E5FF05C0E5FF06C0E5FF07C0E5FF08C024
:10122000E5FF09C0E5FF0AC0E5FF0BC0E5FF0CC004
:10123000E5FF0DC0E5FF020EDBCF00F0030EDBCFB4
:1012400001F0040EDBCF02F0050EDBCF03F0060E3B
:10125000DBCF04F0070EDBCF05F0080EDBCF06F086
:10126000090EDBCF07F00A0EDBCF08F00B0EDBCF49
:1012700009F006C00AF00B6A07C00CF00D6A0C50AA
:101280000A260D500B2208C00CF00C500A260D50F7
:101290000B2209C00CF00C500A260D500B220A50EC
:1012A00005E10B5003E10A6A0A2A01D00A6A0950D3
:1012B000E56E0850E56E0750E56E0650E56E055088
:1012C000E56E0450E56E0350E56E0250E56E015088
:1012D000E56EE5680050E56E0A50E56E53EC08F0E7
:1012E0000C0EE126E4CF0DF0E4CF0CF0E4CF0BF0D0
:1012F000E4CF0AF0E4CF09F0E4CF08F0E4CF07F040
:10130000E4CF06F0E4CF05F0E4CF04F0E4CF03F03F
:10131000E4CF02F0E4CF01F0E4CF00F0E4CFD9FF56
:101320001200D9CFE5FFE1CFD9FF00C0E5FF01C032
:10133000E5FF02C0E5FF03C0E5FF020EDBCF00F0D2
:10134000180E0024016E026A170E0222036A000EB4
:10135000032201C0F6FF02C0F7FF03C0F8FF090037
:10136000F5CF01F0030E015CD8B062D0FA6AFB6AD7
:101370000134FA36E834FA36FC0B8A0FE56E130EA8
:10138000FA22000EFB22E450F96ECBEF09F0E5EFF4
:1013900009F0FFEF09F0060E0024016E026A170E35
:1013A0000222036A000E032201C0F6FF02C0F7FF0B
:1013B00003C0F8FF0900F5CF01F08050011601507D
:1013C00002E0010E36D0E86A34D0060E0024016E29
:1013D000026A170E0222036A000E032201C0F6FF02
:1013E00002C0F7FF03C0F8FF0900F5CF01F08150FC
:1013F0000116015002E0010E1CD0E86A1AD0016A01
:10140000026A060E0026170E0122000E022200C0FC
:10141000F6FF01C0F7FF02C0F8FF0900F5CF00F0AA
:1014200082500016005002E0010E03D0E86A01D09D
:10143000E86AE4CF03F0E4CF02F0E4CF01F0E4CFB8
:1014400000F0E4CFD9FF120018EEFFF028EEFFF015
:10145000F86AA68EA69CBF0EE96E0E0EEA6E0068B4
:10146000ED6A0050FDE1340EF66E1A0EF76E000EB6
:10147000F86E0900F5CF05F00900F5CF06F034D07D
:101480000900F5CF00F00900F5CF01F00900F5CF14
:1014900002F009000900F5CFE9FF0900F5CFEAFFE6
:1014A000090009000900F5CF03F00900F5CF04F0A9
:1014B00009000900F6CF07F0F7CF08F0F8CF09F0E0
:1014C00000C0F6FF01C0F7FF02C0F8FF03D009001B
:1014D000F5CFEEFF0306FBE20406F9E207C0F6FFD4
:1014E00008C0F7FF09C0F8FF0506CAE20606C8E211
:1014F00086EC0CF0FFD700C0E5FF01C0E5FF02C09D
:10150000E5FF03C0E5FF610E006E016A2C0EF66E6A
:10151000170EF76E000EF86E0900F5CF02F00250BC
:10152000015C25E2026A2A0EF66E170EF76E000EB7
:10153000F86E0900F5CF03F00350025C16E201508B
:10154000E56E0250E56E44EC0BF0E652E6520050B8
:10155000E56EC8EC0CF0E652E56AC80EE56EE8EC04
:101560000BF0E652E652022ADED7012ACFD7002A34
:101570007B0E005CCAE3E4CF03F0E4CF02F0E4CFDB
:1015800001F0E4CF00F01200D9CFE5FFE1CFD9FFA1
:1015900000C0E5FF01C0E5FF02C0E5FF03C0E5FFB5
:1015A000020EDBCF00F0016A000E0124026E036A16
:1015B0000E0E032202C0E9FF03C0EAFFEFCF02F0E4
:1015C00000C003F0015005E0E86CD8900332010F31
:1015D000FDE3010E03160350E56E0250E56ED3ECF9
:1015E00006F0E652E652012A080E015CDDE3F3EC58
:1015F0000CF0E4CF03F0E4CF02F0E4CF01F0E4CF4D
:1016000000F0E4CFD9FF1200D9CFE5FFE1CFD9FF39
:1016100000C0E5FF01C0E5FF02C0E5FF03C0E5FF34
:10162000020EDBCF00F0016A000E0124026E036A95
:101630000E0E032202C0E9FF03C0EAFFEFCF02F063
:1016400000C003F0015005E0E86CD8900332010FB0
:10165000FDE3010E03160350E56E0250E56ED3EC78
:1016600006F0E652E652012A040E015CDDE3F3ECDB
:101670000CF0E4CF03F0E4CF02F0E4CF01F0E4CFCC
:1016800000F0E4CFD9FF1200D9CFE5FFE1CFD9FFB9
:1016900000C0E5FF01C0E5FF02C0E5FF020EDBCFA1
:1016A00000F0030EDBCF01F00E010C6B400E0D6F4E
:1016B000140E0E6F540E0F6F0E011551010A07E143
:1016C000140E0E010D6F280E0E6F3C0E0F6F026A86
:1016D0000C0E01260E0E022201C0E9FF02C0EAFF35
:1016E000EFCF01F001500026008E0050E56EDEECD9
:1016F0000CF0E652E4CF02F0E4CF01F0E4CF00F0CA
:10170000E4CFD9FF1200010204081020408040807D
:10171000010204010204082001010101010101018B
:101720000202020202000000000010000200E806AF
:10173000E56E630EAAEC0BF0E4500BE000D0E56E12
:10174000630EAAEC0BF000D000D00000E450E82EAD
:10175000F6D71200E8060000E85007E000D000D0FD
:1017600000D000D00000E82EFAD71200D9CFE5FF54
:10177000E1CFD9FF00C0E5FF01C0E5FF020EDBCFDE
:1017800000F0030EDBCF01F00150E56E0E010951B0
:10179000E56ED3EC06F0E652E6520E0114A906D02F
:1017A0000050E56EC4EC0AF0E6520BD000380F0B87
:1017B000E56E04EC0BF0E6520050E56E04EC0BF025
:1017C000E652E4CF01F0E4CF00F0E4CFD9FF1200FD
:1017D000D9CFE5FFE1CFD9FF00C0E5FF01C0E5FFAC
:1017E00002C0E5FF03C0E5FF020EDBCF00F0030EF1
:1017F000DBCF01F0026A036A0150035C02E1005092
:10180000025C06E20C0E97EC0BF0024A032AF4D7B6
:10181000E4CF03F0E4CF02F0E4CF01F0E4CF00F036
:10182000E4CFD9FF120000C0E5FFE56AE56AE56A8A
:10183000E56A050EE56E040EE56E030EE56E020E1A
:10184000E56E010EE56E000EE56AFBEC08F00A0E8F
:10185000E1262C0EF66E170EF76E000EF86E0900DC
:10186000F5CF00F0E56A0050E56EA4EC07F0E65213
:10187000E652E4CF00F01200D9CFE5FFE1CFD9FF67
:1018800000C0E5FF01C0E5FF02C0E5FF03C0E5FFC2
:10189000020EDBCF00F0030EDBCF01F0026A036A19
:1018A0000150035C02E10050025C03E2024A032A99
:1018B000F7D7E4CF03F0E4CF02F0E4CF01F0E4CFB8
:1018C00000F0E4CFD9FF1200550EA76EAA0EA76E46
:1018D0000E01FF91040E0E01F66F050E0E01C96F89
:1018E000060E0E01FB6F0A0E0E01CB6F090E0E01E4
:1018F000CA6F0E0E0E01D16F120E0E01D26F550E71
:10190000A76EAA0EA76E0E01FF811200D0B202D000
:10191000930ED0129B8C580E006E020E016E00C00A
:1019200002F001C003F0FF0E002601220250031056
:10193000F6E1F29EF29C05EC0DF010EC0DF064EC7B
:101940000CF013EC0CF07BEC0AF0FDD71200D9CFB1
:10195000E5FFE1CFD9FF00C0E5FF01C0E5FF020EC2
:10196000DBCF00F00050E56E91EC09F0016EE6521D
:1019700001700150E56E0050E56ED3EC06F0E652C2
:10198000E652E4CF01F0E4CF00F0E4CFD9FF12003B
:10199000D9CFE5FFE1CFD9FF00C0E5FF020EDBCFD5
:1019A00000F0010EE56E0050E56EB6EC0BF0E6526D
:1019B000E652E4CF00F0E4CFD9FF1200D9CFE5FF23
:1019C000E1CFD9FF00C0E5FF020EDBCF00F0E56AF2
:1019D0000050E56EB6EC0BF0E652E652E4CF00F0B4
:1019E000E4CFD9FF1200010EE56E0E010B51E56E3A
:1019F000D3EC06F0E652E652E56A0E010B51E56EB5
:101A0000D3EC06F0E652E6521200896A8A6A8B6AC3
:101A1000926A936A949094929494949C949E1200E7
:101A20000F0148691F0E0F01496FD26AD16A0F0179
:101A3000536B12000100421A0000080E000004005F
:061A400000000008FF0990
:00000001FF
