:020000040000FA
:0400080010EF10F0F5
:0800180000EF20F0FFFFFFFFE5
:10002000FFFFFFFFFFFFFFFFFFFFFFFFFFFFFFFFE0
:10003000FFFFFFFFFFFFFFFFFFFFFFFFFFFFFFFFD0
:10004000FFFFFFFFFFFFFFFFFFFFFFFFFFFFFFFFC0
:10005000FFFFFFFFFFFFFFFFFFFFFFFFFFFFFFFFB0
:10006000FFFFFFFFFFFFFFFFFFFFFFFFFFFFFFFFA0
:0A007000FFFFFFFFFFFFFFFFFFFF90
:1020000000464000AA40003C4100E241007E420000
:102010001A4300564300766300000008FF09610080
:10202000D8CFE5FFE0CFE5FFE56EF3CFE5FFF4CFD6
:10203000E5FFE9CFE5FFEACFE5FFFACFE5FFFBCF0C
:10204000E5FFE4CFFBFFE4CFFAFFE4CFEAFFE4CF04
:10205000E9FFE4CFF4FFE4CFF3FFE450E4CFE0FF87
:10206000E4CFD8FF1000D9CFE5FFE1CFD9FF00C002
:10207000E5FF01C0E5FF02C0E5FF03C0E5FF04C0C6
:10208000E5FF05C0E5FF06C0E5FF07C0E5FF08C0A6
:10209000E5FF09C0E5FF0AC0E5FF0BC0E5FF0CC086
:1020A000E5FF0DC0E5FF0EC0E5FF0FC0E5FF10C066
:1020B000E5FF11C0E5FF12C0E5FF13C0E5FF14C046
:1020C000E5FF15C0E5FF16C0E5FF17C0E5FF18C026
:1020D000E5FF19C0E5FF020EDBCF00F0030EDBCFFA
:1020E00001F0040EDBCF02F0050EDBCF03F0060E8D
:1020F000DBCF04F0070EDBCF05F0080EDBCF06F0D8
:10210000090EDBCF07F00A0EDBCF08F0096A020EDA
:102110000A6E03C0E9FF04C0F3FF055029EC00F08C
:102120000B6E0B5002E1F9EF14F00C6A0B50250A0C
:1021300002E0E0EF14F00B6A0D6A032A02E3044A9E
:10214000052A03C0E9FF04C0F3FF055029EC00F0A5
:102150000E6E0E50D8B4F9EF14F00E50250A02E1BD
:10216000E0EF14F00E502D0A06E1032A02E3044AC0
:10217000052A010E0B6E03C00EF004C00FF005C05F
:1021800010F00EC0E9FF0FC0F3FF105029EC00F073
:10219000300A06E10E2A02E30F4A102A0B82F1D719
:1021A0000EC0E9FF0FC0F3FF105029EC00F0116ED4
:1021B000300E115C13E33A0E115C10E20D500A0D63
:1021C000F3CF0DF0D00E11260D50126E11501224C7
:1021D0000D6E0E2A02E30F4A102AE2D70EC003F05A
:1021E0000FC004F010C005F00EC0E9FF0FC0F3FFF0
:1021F000105029EC00F02E0A34E10E50010F036E4E
:10220000000E0F20046E000E1020056E0A6A03C037
:102210000EF004C00FF005C010F00EC0E9FF0FC0B3
:10222000F3FF105029EC00F0116E300E115C13E337
:102230003A0E115C10E20A500A0DF3CF0AF0D00EEC
:1022400011260A50126E115012240A6E0E2A02E351
:102250000F4A102AE2D70EC003F00FC004F010C0DE
:1022600005F003C0E9FF04C0F3FF055029EC00F0BE
:102270000E6E660A01E040D00650040F0F6E000E8D
:102280000720106E000E0820116E0FC006F010C05F
:1022900007F011C008F0FC0E0F26FF0E10221122CD
:1022A0000FC0E9FF10C0F3FF11502FEC00F00F6ECC
:1022B000F3CF10F0F4CF11F0E9CF12F00A50E56E31
:1022C000E56A0B50E56E0D50E56E1250E56E11504B
:1022D000E56E1050E56E0F50E56E0250E56E015050
:1022E000E56E0050E56E49EC15F00F6E0B0EE12621
:1022F0000F500926F3EF14F00E50730A01E045D099
:102300000650030F0F6E000E0720106E000E0820FF
:10231000116E0FC006F010C007F011C008F0FD0EDE
:102320000F26FF0E102211220FC0E9FF10C0F3FF8D
:1023300011502DEC00F00F6EF3CF10F0F4CF11F030
:102340001010111006E1000E116E430E106E8A0E71
:102350000F6E0B50E56E0D50E56E1150E56E10508E
:10236000E56E0F50E56E0250E56E0150E56E0050CF
:10237000E56E25EC1FF00F6E080EE1260950106E79
:102380000F501024096EF3EF14F00E506C0A06E1A2
:10239000032A02E3044A052A010E0C6E03C0E9FF7A
:1023A00004C0F3FF055029EC00F00E6E750A01E041
:1023B0006CD00C5023E00650040F0F6E000E072067
:1023C000106E000E0820116E0FC006F010C007F04E
:1023D00011C008F0FC0E0F26FF0E102211220FC0B4
:1023E000E9FF10C0F3FF11502FEC00F00F6EF3CF98
:1023F00010F0F4CF11F0E9CF12F024D00650020F04
:10240000136E000E0720146E000E0820156E13C008
:1024100006F014C007F015C008F0FE0E1326FF0EDC
:102420001422152213C0E9FF14C0F3FF15502BEC42
:1024300000F0136EF3CF14F013C00FF014C010F0BF
:10244000116A126A610EE56EE56A0B50E56E0D5079
:10245000E56EE56A0A0EE56E0C50E56E1250E56E0B
:102460001150E56E1050E56E0F50E56E0250E56EAE
:102470000150E56E0050E56E71EC1DF0136E0E0E0E
:10248000E12613500926F3EF14F00E50640A04E01D
:102490000E50690A01E075D00C5023E00650040F7D
:1024A000136E000E0720146E000E0820156E13C068
:1024B00006F014C007F015C008F0FC0E1326FF0E3E
:1024C0001422152213C0E9FF14C0F3FF15502FEC9E
:1024D00000F0136EF3CF14F0F4CF15F0E9CF16F03F
:1024E00024D00650020F176E000E0720186E000E43
:1024F0000820196E17C006F018C007F019C008F0C0
:10250000FE0E1726FF0E1822192217C0E9FF18C069
:10251000F3FF19502BEC00F0176EF3CF18F017C033
:1025200013F018C014F0156A166A13C00FF014C027
:1025300010F015C011F016C012F0610EE56EE56ADC
:102540000B50E56E0D50E56E010EE56E0A0EE56E60
:102550000C50E56E1250E56E1150E56E1050E56EB0
:102560000F50E56E0250E56E0150E56E0050E56ECD
:1025700071EC1DF0136E0E0EE12613500926F3EFD9
:1025800014F00E50780A04E00E50700A01E073D087
:102590000C5023E00650040F136E000E0720146E3B
:1025A000000E0820156E13C006F014C007F015C009
:1025B00008F0FC0E1326FF0E1422152213C0E9FFAB
:1025C00014C0F3FF15502FEC00F0136EF3CF14F08E
:1025D000F4CF15F0E9CF16F024D00650020F176E95
:1025E000000E0720186E000E0820196E17C006F0A6
:1025F00018C007F019C008F0FE0E1726FF0E1822AB
:10260000192217C0E9FF18C0F3FF19502BEC00F096
:10261000176EF3CF18F017C013F018C014F0156A36
:10262000166A13C00FF014C010F015C011F016C0D8
:1026300012F0610EE56EE56A0B50E56E0D50E56E29
:10264000E56A100EE56E0C50E56E1250E56E115005
:10265000E56E1050E56E0F50E56E0250E56E0150CC
:10266000E56E0050E56E71EC1DF0136E0E0EE12666
:1026700013500926B8D10E50580A04E00E50500AE3
:1026800001E073D00C5023E00650040F136E000ECF
:102690000720146E000E0820156E13C006F014C03B
:1026A00007F015C008F0FC0E1326FF0E14221522A9
:1026B00013C0E9FF14C0F3FF15502FEC00F0136EA8
:1026C000F3CF14F0F4CF15F0E9CF16F024D0065074
:1026D000020F176E000E0720186E000E0820196EEC
:1026E00017C006F018C007F019C008F0FE0E172634
:1026F000FF0E1822192217C0E9FF18C0F3FF195066
:102700002BEC00F0176EF3CF18F017C013F018C0C1
:1027100014F0156A166A13C00FF014C010F015C03B
:1027200011F016C012F0410EE56EE56A0B50E56E31
:102730000D50E56EE56A100EE56E0C50E56E125018
:10274000E56E1150E56E1050E56E0F50E56E0250CB
:10275000E56E0150E56E0050E56E71EC1DF0136EF4
:102760000E0EE126135009263ED10E50620A01E0FA
:1027700073D00C5023E00650040F136E000E072098
:10278000146E000E0820156E13C006F014C007F07A
:1027900015C008F0FC0E1326FF0E1422152213C0DC
:1027A000E9FF14C0F3FF15502FEC00F0136EF3CFC8
:1027B00014F0F4CF15F0E9CF16F024D00650020F34
:1027C000176E000E0720186E000E0820196E17C035
:1027D00006F018C007F019C008F0FE0E1726FF0E0D
:1027E0001822192217C0E9FF18C0F3FF19502BEC6B
:1027F00000F0176EF3CF18F017C013F018C014F0E4
:10280000156A166A13C00FF014C010F015C011F04D
:1028100016C012F0610EE56EE56A0B50E56E0D50C4
:10282000E56EE56A020EE56E0C50E56E1250E56E3F
:102830001150E56E1050E56E0F50E56E0250E56EDA
:102840000150E56E0050E56E71EC1DF0136E0E0E3A
:10285000E12613500926C7D00E506F0A01E073D04D
:102860000C5023E00650040F136E000E0720146E68
:10287000000E0820156E13C006F014C007F015C036
:1028800008F0FC0E1326FF0E1422152213C0E9FFD8
:1028900014C0F3FF15502FEC00F0136EF3CF14F0BB
:1028A000F4CF15F0E9CF16F024D00650020F176EC2
:1028B000000E0720186E000E0820196E17C006F0D3
:1028C00018C007F019C008F0FE0E1726FF0E1822D8
:1028D000192217C0E9FF18C0F3FF19502BEC00F0C4
:1028E000176EF3CF18F017C013F018C014F0156A64
:1028F000166A13C00FF014C010F015C011F016C006
:1029000012F0610EE56EE56A0B50E56E0D50E56E56
:10291000E56A080EE56E0C50E56E1250E56E11503A
:10292000E56E1050E56E0F50E56E0250E56E0150F9
:10293000E56E0050E56E71EC1DF00C6E0E0EE1269A
:102940000C50092650D00E50630A01E04CD00650BE
:10295000020F0C6E000E07200E6E000E08200F6E88
:102960000CC006F00EC007F00FC008F0FE0E0C26DB
:10297000FF0E0E220F220CC0E9FF0EC0F3FF0F5016
:102980002BEC00F00201926F936B0B50E56E0D5033
:10299000E56E800EE56E020EE56E920EE56E02505B
:1029A000E56E0150E56E0050E56E25EC1FF00B6EF4
:1029B000080EE12609500C6E0B500C24096E13D042
:1029C00003C0E9FF04C0F3FF055029EC00F0E56EF9
:1029D0000250E56E0150E56E0050E56E3EEC29F0C8
:1029E000040EE126092A032A02E3044A052A89EF94
:1029F00010F000500110021014E000C0E9FF01C007
:102A0000F3FF02502DEC00F0006EF3CF01F0F4CF95
:102A100002F0E56A00C0E9FF01C0F3FF025031ECAB
:102A200000F00950E4CF19F0E4CF18F0E4CF17F02C
:102A3000E4CF16F0E4CF15F0E4CF14F0E4CF13F0B8
:102A4000E4CF12F0E4CF11F0E4CF10F0E4CF0FF0B8
:102A5000E4CF0EF0E4CF0DF0E4CF0CF0E4CF0BF0B8
:102A6000E4CF0AF0E4CF09F0E4CF08F0E4CF07F0B8
:102A7000E4CF06F0E4CF05F0E4CF04F0E4CF03F0B8
:102A8000E4CF02F0E4CF01F0E4CF00F0E4CFD9FFCF
:102A90001200D9CFE5FFE1CFD9FF00C0E5FF01C0AB
:102AA000E5FF02C0E5FF03C0E5FF04C0E5FF05C088
:102AB000E5FF06C0E5FF07C0E5FF08C0E5FF09C068
:102AC000E5FF0AC0E5FF0BC0E5FF0CC0E5FF0DC048
:102AD000E5FF0EC0E5FF0FC0E5FF10C0E5FF11C028
:102AE000E5FF12C0E5FF13C0E5FF14C0E5FF15C008
:102AF000E5FF16C0E5FF17C0E5FF18C0E5FF19C0E8
:102B0000E5FF1AC0E5FF1BC0E5FF1CC0E5FF1DC0C7
:102B1000E5FF1EC0E5FF1FC0E5FF20C0E5FF020E78
:102B2000DBCF00F0030EDBCF01F0040EDBCF02F0B1
:102B3000050EDBCF03F0060EDBCF04F0070EDBCF74
:102B400005F0080EDBCF06F0090EDBCF07F00A0E0A
:102B5000DBCF08F00C0EDBCF09F00A6A0B6A0C6AB7
:102B60000D6A0E6A0F6A106A116A020E136E2C0E3D
:102B7000126E800E146E020E166E380E156E800EDA
:102B8000176E186A0B0E196E03500201516F045034
:102B9000526F0550536F0650546FD88054AFD89081
:102BA00023E3075012E008A210D02D0EE56E02506C
:102BB000E56E0150E56E0050E56E3EEC29F0040E26
:102BC000E126010E186E07060FD02D0EE56E12C01D
:102BD000E9FF13C0F3FF145031EC00F0122A02E3B6
:102BE000134A142A0A0E196E020153355435036E26
:102BF000046A810E03265151046E5251056E7F0EF8
:102C00005315066E1A6A068E0350800F610F04E298
:102C10000350800F970F1FE2690E02012C6F6E0E9A
:102C20002D6F660E2E6F2F6B0850E56E0750E56E08
:102C3000800EE56E020EE56E2C0EE56E0250E56E1E
:102C40000150E56E0050E56E25EC1FF01B6E080E7E
:102C5000E1261B50AED10350800F690F25E303C05E
:102C60001BF01C6A03BE1C68E90E1B26D8A01C06BC
:102C700004C00AF005C00BF006C00CF01AC00DF03D
:102C80001B5011E009E6E86CD8900A360B360C367A
:102C90000D36010FFAE37CD0D8900D320C320B3296
:102CA0000A32010FFAE374D0D88003AED890D8B0BE
:102CB0004AD003C01BF01C6A03BE1C681B501708D7
:102CC0001D6E000E1C5404C00AF005C00BF006C0B7
:102CD0000CF01AC00DF01D5011E009E6E86CD89018
:102CE0000D320C320B320A32010FFAE307D0D890C2
:102CF0000A360B360C360D36010FFAE31B4A1C2A36
:102D000004C01DF005C01EF006C01FF01AC020F060
:102D10001B5011E009E6E86CD8901D361E361F36B0
:102D20002036010FFAE307D0D89020321F321E322E
:102D30001D32010FFAE31D500E6E1E500F6E1F5014
:102D4000106E116A25D01A6A1B6A03BE1B68034AFB
:102D50001B2A1B1E036CD8B41B2A04C00EF005C02E
:102D60000FF006C010F01AC011F0035011E009E690
:102D7000E86CD890113210320F320E32010FFAE3A4
:102D800007D0D8900E360F3610361136010FFAE301
:102D90000A500B100C100D100FE1300EE56E12C032
:102DA000E9FF13C0F3FF145031EC00F0122A02E3E4
:102DB000134A142A190678D015C003F016C004F07F
:102DC00017C005F0066A19C015F00A500B100C1058
:102DD0000D10D8B43CD0E56AE56AE56A0A0EE56EE6
:102DE0000D50E56E0C50E56E0B50E56E0A50E56E29
:102DF000F0EC26F0166E080EE126300E162616C0F0
:102E0000E5FF03C0E9FF04C0F3FF055031EC00F01B
:102E1000032A02E3044A052AE56AE56AE56A0A0E1E
:102E2000E56E0D50E56E0C50E56E0B50E56E0A50E8
:102E3000E56EB2EC28F00A6EF3CF0BF0F4CF0CF095
:102E4000E9CF0DF0080EE126062A1506BED715C0FB
:102E500019F012C00AF013C00BF014C00CF006C039
:102E60000DF006060D501AE0FF0E0326042205227F
:102E700003C0E9FF04C0F3FF055029EC00F00D6E1C
:102E80000DC0E5FF0AC0E9FF0BC0F3FF0C5031ECA9
:102E900000F00A2AE4E30B4A0C2AE1D70AC012F038
:102EA0000BC013F00CC014F0070E095C02E3060E11
:102EB000096E0950195CD8A019C009F0010E095C0F
:102EC000D8A057D02E0EE56E12C0E9FF13C0F3FF55
:102ED000145031EC00F0122A02E3134A142A12C0F3
:102EE00003F013C004F014C005F0066A0950065C34
:102EF0003AE20E500E240A6E0F340B6E10340C6E34
:102F000011340D6E0A500A260B360C360D360A5057
:102F10000A260B360C360D360E500E24156E0F3465
:102F2000166E1034176E1134196E15500A240E6E79
:102F300016500B200F6E17500C20106E19500D20DC
:102F40000A6E300E0A260AC0E5FF03C0E9FF04C07E
:102F5000F3FF055031EC00F0032A02E3044A052A8E
:102F6000116A062AC3D703C012F004C013F005C0CB
:102F700014F0E56A12C0E9FF13C0F3FF145031ECFE
:102F800000F00850E56E0750E56E800EE56E020E0B
:102F9000E56E2C0EE56E0250E56E0150E56E0050B8
:102FA000E56E25EC1FF0006E080EE1261850002695
:102FB0000050E4CF20F0E4CF1FF0E4CF1EF0E4CFC8
:102FC0001DF0E4CF1CF0E4CF1BF0E4CF1AF0E4CF07
:102FD00019F0E4CF18F0E4CF17F0E4CF16F0E4CF07
:102FE00015F0E4CF14F0E4CF13F0E4CF12F0E4CF07
:102FF00011F0E4CF10F0E4CF0FF0E4CF0EF0E4CF07
:103000000DF0E4CF0CF0E4CF0BF0E4CF0AF0E4CF06
:1030100009F0E4CF08F0E4CF07F0E4CF06F0E4CF06
:1030200005F0E4CF04F0E4CF03F0E4CF02F0E4CF06
:1030300001F0E4CF00F0E4CFD9FF1200D9CFE5FFD3
:10304000E1CFD9FF00C0E5FF01C0E5FF02C0E5FF09
:1030500003C0E5FF04C0E5FF05C0E5FF06C0E5FFCE
:1030600007C0E5FF08C0E5FF09C0E5FF0AC0E5FFAE
:103070000BC0E5FF0CC0E5FF0DC0E5FF0EC0E5FF8E
:103080000FC0E5FF10C0E5FF020EDBCF00F0030E1E
:10309000DBCF01F0040EDBCF02F0050EDBCF03F037
:1030A000060EDBCF04F0070EDBCF05F0080EDBCFFA
:1030B00006F0090EDBCF07F0086A096A0A6A0B6A94
:1030C00000500201816F0150826F0250836F0350E4
:1030D000846F04500201856F0550866F0650876F1C
:1030E0000750886F0201815182118311841109E117
:1030F00088C2E9FF87C2F4FF86C2F3FF020185514F
:1031000044D10201855186118711881109E184C2D9
:10311000E9FF83C2F4FF82C2F3FF0201815135D17E
:10312000020183358435006E016A0136026A036A42
:10313000016A026A036A020187358835026E190F37
:10314000046E000E0320800FF36E0150800FF35CBD
:1031500002E10050045C09E284C2E9FF83C2F4FF8B
:1031600082C2F3FF0201815110D10050190F046E89
:10317000000E0120800FF36E0350800FF35C02E11C
:103180000250045C09E288C2E9FF87C2F4FF86C2EC
:10319000F3FF02018551F9D002018151046E825181
:1031A000056E7F0E8315066E076A068E0201855135
:1031B0000C6E86510D6E7F0E87150E6E0F6A0E8E89
:1031C00002018451800BE844106E10500AE0071E83
:1031D000061E051E046C05E1052A03E1062AD8B483
:1031E000072A02018851800BE844106E10500AE053
:1031F0000F1E0E1E0D1E0C6C05E10D2A03E10E2A9A
:10320000D8B40F2A0350800FF36E0150800FF35C87
:1032100002E10050025C1BE20250005C106E0350A1
:103220000158105032E00BE6E86CD8900FBED88001
:103230000F320E320D320C32010FF8E326D0D89047
:103240000C360D360E360F36010FFAE31ED0005045
:10325000025C106E01500358105013E00BE6E86C4E
:10326000D89007BED8800732063205320432010FEB
:10327000F8E307D0D8900436053606360736010F36
:10328000FAE302C000F003C001F00C5004260D5018
:1032900005220E5006220F500722D88007AED89084
:1032A00010E3071E061E051E046C05E1052A03E156
:1032B000062AD8B4072A086A096A0A6A800E0B6EC1
:1032C0000AD0045005100610071005E1E96AF46AF7
:1032D000F36AE86A5AD0045006500C6E07500D6E1F
:1032E0000CBE0BD00D5009E10450042605360636FD
:1032F0000736FF0E00260122EED70450026E05505D
:10330000036E06500C6E07500D6E10E004A006D040
:10331000020E0426000E0522062207220734073279
:10332000063205320432004A012AE7D70250046E01
:103330000350056E7F0E0C14066E0D50076EE86A82
:10334000013000300F6E0E6A0E320C6A0C500812FB
:1033500009120E500A120F500B1204500812055099
:10336000091206500A1207500B1208500201816F11
:103370000950826F0A50836F0B50846F84C2E9FF3B
:1033800083C2F4FF82C2F3FF8151E4CF10F0E4CF97
:103390000FF0E4CF0EF0E4CF0DF0E4CF0CF0E4CF6B
:1033A0000BF0E4CF0AF0E4CF09F0E4CF08F0E4CF6B
:1033B00007F0E4CF06F0E4CF05F0E4CF04F0E4CF6B
:1033C00003F0E4CF02F0E4CF01F0E4CF00F0E4CF6B
:1033D000D9FF1200D9CFE5FFE1CFD9FF00C0E5FF4B
:1033E00001C0E5FF02C0E5FF03C0E5FF04C0E5FF43
:1033F00005C0E5FF06C0E5FF07C0E5FF08C0E5FF23
:1034000009C0E5FF0AC0E5FF0BC0E5FF0CC0E5FF02
:103410000EC0E5FF0FC0E5FF020EDBCF00F0030E8C
:10342000DBCF01F0040EDBCF02F0050EDBCF03F0A3
:10343000060EDBCF04F0070EDBCF05F0080EDBCF66
:1034400006F0090EDBCF07F000500201616F01505A
:10345000626F0250636F0350646F04500201656F26
:103460000550666F0650676F0750686F0201615123
:1034700062116311641106E0020165516611671162
:10348000681105E1E96AF46AF36AE86A4CD102015D
:103490006451800BE844006E02016851800BE844DF
:1034A000001A020163356435016E036A046A026A18
:1034B000820E0126FF0E022203220422020167353A
:1034C0006835036E046A01C007F002C008F00750B7
:1034D0000326085004220350016E0450026E0201BC
:1034E0006151036E6251046E7F0E6315056E058E89
:1034F0000350616F0450626F0550636F646B02018B
:103500006551036E6651046E7F0E6715056E058E5C
:103510000350656F0450666F0550676F686B02015A
:103520006251036E6351046E6451056E020166516F
:10353000076E6751086E6851E56AE56E0850E56EE2
:103540000750E56EE56A0550E56E0450E56E0350E0
:10355000E56E25EC00F0036EF3CF04F0F4CF05F038
:10356000E9CF06F0080EE12602016151076E020163
:1035700066510B6E67510C6E6851E56AE56E0C5032
:10358000E56E0B50E56EE56AE56AE56A0750E56EA3
:1035900025EC00F0F3CF08F0F4CF09F0E9CF0AF002
:1035A000080EE1260850076E0950086E0A50096E91
:1035B0000A6A0750032608500422095005220A50BF
:1035C000062202016551076E020162510B6E6351C2
:1035D0000C6E6451E56AE56E0C50E56E0B50E56EBD
:1035E000E56AE56AE56A0750E56E25EC00F0F3CF81
:1035F00008F0F4CF09F0E9CF0AF0080EE1260850F0
:10360000076E0950086E0A50096E0A6A07500326B1
:1036100008500422095005220A500622400E0326B3
:10362000000E04220522062206AE0ED0400E03260E
:10363000000E0422052206220450036E0550046E7B
:103640000650056E066A11D003340434036E046A12
:1036500004360550E844FE0B041205340634056EAA
:10366000066A0636FF0E01260222059E0250800FD2
:103670007F0F02E1000E015C19E3005006E0076ACB
:10368000086A096A800E0A6E04D0076A086A096A25
:103690000A6A098E7F0E0A1207500201616F0850F4
:1036A000626F0950636F0A50646F35D0D88002AEE4
:1036B000D89006E30201616B626B636B646B2BD085
:1036C000005006E0006A076A086A800E096E04D09E
:1036D000006A076A086A096AE86A023001300F6EF8
:1036E0000E6A0E320C6A0C50001207120E500812AD
:1036F0000F5009120050031207500412085005120F
:103700000950061203500201616F0450626F0550A8
:10371000636F0650646F64C2E9FF63C2F4FF62C264
:10372000F3FF02016151E4CF0FF0E4CF0EF0E4CFDC
:103730000CF0E4CF0BF0E4CF0AF0E4CF09F0E4CFD3
:1037400008F0E4CF07F0E4CF06F0E4CF05F0E4CFD3
:1037500004F0E4CF03F0E4CF02F0E4CF01F0E4CFD3
:1037600000F0E4CFD9FF1200D9CFE5FFE1CFD9FFB8
:1037700000C0E5FF01C0E5FF02C0E5FF03C0E5FFB3
:1037800004C0E5FF05C0E5FF06C0E5FF07C0E5FF93
:1037900008C0E5FF09C0E5FF0AC0E5FF0BC0E5FF73
:1037A0000CC0E5FF0DC0E5FF0EC0E5FF0FC0E5FF53
:1037B00010C0E5FF11C0E5FF12C0E5FF13C0E5FF33
:1037C00014C0E5FF15C0E5FF16C0E5FF020EDBCF14
:1037D00000F0030EDBCF01F0040EDBCF02F0050E8C
:1037E000DBCF03F0060EDBCF04F0070EDBCF05F0D6
:1037F000080EDBCF06F0090EDBCF07F00050020108
:10380000696F01506A6F02506B6F03506C6F045008
:1038100002016D6F05506E6F06506F6F0750706F2D
:1038200002016B51026E6C51036E02340334006E60
:10383000016A0136026A036A016A026A036A0201C6
:103840006F51046E7051056E0434053400C006F0EB
:10385000076A065C026E03500758036E0250006E42
:103860000350016E7E0E0026D8B0012A02016C5171
:10387000800BE844026E02017051800BE844021A8A
:103880006D516E116F1170110EE16D6B6E6BC00E8C
:103890006F6F7F0E706F70C2E9FF6FC2F4FF6EC270
:1038A000F3FF6D51EDD0020169516A116B116C117A
:1038B00005E1E96AF46AF36AE86AE2D00201695153
:1038C000036E6A51046E6B51056E6C51059E066A5B
:1038D000058E02016D51076E6E51086E6F51096EB3
:1038E0007051099E0A6A098E0650800FF36E0A50C5
:1038F000800FF35C08E10950055C05E10850045CA9
:1039000002E10750035C08E2035003260436053643
:103910000636FF0E002601220B6A0C6A0D6A010EA4
:103920000E6E0F6A106A116A126A0B500C100D109D
:103930000E1037E00650800FF36E0A50800FF35CD4
:1039400008E10950055C05E10850045C02E10750FC
:10395000035C1CE30F50136E1050146E1150156E63
:103960001250166E0B5013100F6E0C501410106E78
:103970000D501510116E0E501610126E0750035E8A
:103980000850045A0950055A0A50065A0350032693
:10399000043605360636D8900E320D320C320B3214
:1039A000C4D70F2A04E3102A02E3114A122A004A5C
:1039B000012A12341232113210320F321150056EB8
:1039C0007F0E0514116E0150800F7F0F02E1000E73
:1039D000005C19E3025006E0036A046A056A800E7F
:1039E000066E04D0036A046A056A066A058E7F0EB5
:1039F000061203500201696F04506A6F05506B6F25
:103A000006506C6F35D0D88001AED89006E3020125
:103A1000696B6A6B6B6B6C6B2BD0025006E0026AB1
:103A2000036A046A800E056E04D0026A036A046A9F
:103A3000056AE86A013000300B6E0A6A0A32086AC9
:103A40000850021203120A5004120B5005120F50B4
:103A5000021210500312115004121250051202509B
:103A60000201696F03506A6F04506B6F05506C6FF1
:103A70006CC2E9FF6BC2F4FF6AC2F3FF0201695135
:103A8000E4CF16F0E4CF15F0E4CF14F0E4CF13F058
:103A9000E4CF12F0E4CF11F0E4CF10F0E4CF0FF058
:103AA000E4CF0EF0E4CF0DF0E4CF0CF0E4CF0BF058
:103AB000E4CF0AF0E4CF09F0E4CF08F0E4CF07F058
:103AC000E4CF06F0E4CF05F0E4CF04F0E4CF03F058
:103AD000E4CF02F0E4CF01F0E4CF00F0E4CFD9FF6F
:103AE0001200D9CFE5FFE1CFD9FF00C0E5FF01C04B
:103AF000E5FF02C0E5FF03C0E5FF04C0E5FF05C028
:103B0000E5FF06C0E5FF07C0E5FF08C0E5FF09C007
:103B1000E5FF0AC0E5FF0BC0E5FF0CC0E5FF0DC0E7
:103B2000E5FF0EC0E5FF0FC0E5FF10C0E5FF11C0C7
:103B3000E5FF12C0E5FF13C0E5FF14C0E5FF15C0A7
:103B4000E5FF16C0E5FF17C0E5FF18C0E5FF19C087
:103B5000E5FF1AC0E5FF1BC0E5FF020EDBCF00F05A
:103B6000030EDBCF01F0040EDBCF02F0050EDBCF3E
:103B700003F0060EDBCF04F0070EDBCF05F0080ED6
:103B8000DBCF06F0090EDBCF07F00A0EDBCF08F023
:103B90000B0EDBCF09F00C0EDBCF0AF00D0EDBCFE6
:103BA0000BF00F0EDBCF0CF00D6A0E6A03C00FF0A6
:103BB00004C010F005C011F006C012F0035004104C
:103BC000051006101BE1300E0201206F216B0B5017
:103BD000E56E0A50E56E800EE56E020EE56E200E73
:103BE000E56E0250E56E0150E56E0050E56E25EC85
:103BF0001FF0136E080EE1261350ECD0095036E08A
:103C000008500A0A33E107501CE00350096E0450C3
:103C1000136E0550146E0650156ED88015AED890F0
:103C200010E3010E0D6E151C126E141C116E131C88
:103C3000106E091C0F6E0F2A04E1102A02E1114ACE
:103C4000122A075013E1D88004AED8900FE3010E7A
:103C50000D6E041E036CD8B4042A03C00FF004C018
:103C600010F0E86A04BEFF0E116E126E020E046EB2
:103C70002B0E036E800E056EE56A03C0E9FF04C0DB
:103C8000F3FF31EC00F003C006F004C007F005C0FC
:103C900009F00F50101011101210D8B45AD008C0EB
:103CA00013F0146A156A166AE56AE56AE56A135044
:103CB000E56E1250E56E1150E56E1050E56E0F5036
:103CC000E56EF0EC26F0176EF3CF18F0F4CF19F094
:103CD000E9CF1AF0080EE126000E1A5C08E1000E8A
:103CE000195C05E1000E185C02E10A0E175C06E3A0
:103CF0000CC01BF0C60E1B261B501726FF0E0626F7
:103D000007220922300E172617C0E5FF06C0E9FF7B
:103D100007C0F3FF095031EC00F01650E56E155066
:103D2000E56E1450E56E1350E56E1250E56E1150BD
:103D3000E56E1050E56E0F50E56EB2EC28F00F6E98
:103D4000F3CF10F0F4CF11F0E9CF12F0080EE12616
:103D5000A0D706C003F007C004F009C005F00D505D
:103D600021E00A5012E00BA210D02D0EE56E025099
:103D7000E56E0150E56E0050E56E3EEC29F0040E54
:103D8000E126010E0E6E0A060DD0FF0E0326042258
:103D900005222D0EE56E03C0E9FF04C0F3FF0550B8
:103DA00031EC00F00B50E56E0A50E56E0550E56E03
:103DB0000450E56E0350E56E0250E56E0150E56E6D
:103DC0000050E56E25EC1FF0006E080EE1260E5047
:103DD00000260050E4CF1BF0E4CF1AF0E4CF19F036
:103DE000E4CF18F0E4CF17F0E4CF16F0E4CF15F0ED
:103DF000E4CF14F0E4CF13F0E4CF12F0E4CF11F0ED
:103E0000E4CF10F0E4CF0FF0E4CF0EF0E4CF0DF0EC
:103E1000E4CF0CF0E4CF0BF0E4CF0AF0E4CF09F0EC
:103E2000E4CF08F0E4CF07F0E4CF06F0E4CF05F0EC
:103E3000E4CF04F0E4CF03F0E4CF02F0E4CF01F0EC
:103E4000E4CF00F0E4CFD9FF1200D9CFE5FFE1CFF6
:103E5000D9FF00C0E5FF01C0E5FF02C0E5FF03C0D8
:103E6000E5FF04C0E5FF05C0E5FF06C0E5FF07C0AC
:103E7000E5FF08C0E5FF09C0E5FF0AC0E5FF0BC08C
:103E8000E5FF0CC0E5FF0DC0E5FF0EC0E5FF020E2B
:103E9000DBCF00F0030EDBCF01F0040EDBCF02F02E
:103EA000050EDBCF03F0060EDBCF04F0070EDBCFF1
:103EB00005F0080EDBCF06F0090EDBCF07F0086A2D
:103EC000200E096E065022E00A6A03C00BF004C0FF
:103ED0000CF005C00DF00BC0E9FF0CC0F3FF0D5056
:103EE00029EC00F00E6E0E5006E00A2A0B2AF3E3CE
:103EF0000C4A0D2AF0D706500A5C02E3066A02D08B
:103F00000A50065E07A202D0300E096E07B019D023
:103F1000076A06C00AF00A5005E107C008F00AC0A7
:103F200006F00FD00950E56E0250E56E0150E56EC7
:103F30000050E56E3EEC29F0040EE126072A0A0641
:103F4000EAD708C007F003C0E9FF04C0F3FF05503B
:103F500029EC00F0086E085012E00850E56E02509F
:103F6000E56E0150E56E0050E56E3EEC29F0040E62
:103F7000E126072A032AE7E3044A052AE4D707C013
:103F800003F006C004F004500FE00950E56E025043
:103F9000E56E0150E56E0050E56E3EEC29F0040E32
:103FA000E126032A0406EFD7F36A0350E4CF0EF0AC
:103FB000E4CF0DF0E4CF0CF0E4CF0BF0E4CF0AF047
:103FC000E4CF09F0E4CF08F0E4CF07F0E4CF06F047
:103FD000E4CF05F0E4CF04F0E4CF03F0E4CF02F047
:103FE000E4CF01F0E4CF00F0E4CFD9FF12000201EA
:103FF0009981040E9911E56EC9EC30F0E652120079
:10400000D8CFE5FFE0CFE5FFE56EF3CFE5FFF4CFD6
:10401000E5FFE9CFE5FFEACFE5FFFACFE5FFFBCF0C
:10402000E5FFE4CFFBFFE4CFFAFFE4CFEAFFE4CF04
:10403000E9FFE4CFF4FFE4CFF3FFE450E4CFE0FF87
:10404000E4CFD8FF100012010002FF00FF08D804DF
:10405000AAFE00010102030309021200010104C0CB
:10406000000904000000FFFFFF0409022000010214
:1040700005C0000904000002FFFFFF05070501025B
:1040800040000007058202400000090220000103F1
:1040900004C0000904000002FFFFFF06070501023B
:1040A000400000070582024000005840006A4000BE
:1040B0008A4000000403090426034A0065006100E9
:1040C0006E002D00500069006500720072006500EE
:1040D00020004D0041004E0044004F004E002203DE
:1040E000500069006E006700750069006E006F0087
:1040F0002000500072006F006A00650063007400C9
:10410000040331001003440065006600610075007F
:104110006C0074000C0346006C00610073006800C2
:104120001C03500069006E006700750069006E0096
:104130006F0020006100700070006C00B44000B897
:104140004000DE40000041000441001441002041D5
:1041500000002E00007A63007A63007A63007A63BD
:10416000007A63007A63007A63007A63007A6300FE
:104170007A63007A63007A63007A63007A63007A74
:1041800063002E00003A00004200007A63007A6368
:10419000007A63007A63007A63007A63007A6300CE
:1041A0007A63007A63007A63007A63007A63007A44
:1041B00063002E00007C63007E63007A63007A63F4
:1041C000007A63007A63007A63007A63007A63009E
:1041D0007A63007A63007A63007A63007A63007A14
:1041E0006300524100524100824100B2410032005E
:1041F000007A63007A63007A63007A63007A63006E
:104200007A63007A63007A63007A63007A63007AE3
:1042100063007A63007A63007A63007A6300320095
:10422000007A63004600007A63007A63007A6300D4
:104230007A63007A63007A63007A63007A63007AB3
:1042400063007A63007A63007A63007A6300320065
:10425000007A63008263007A63007A63007A630005
:104260007A63007A63007A63007A63007A63007A83
:1042700063007A63007A63007A63007A6300EE4138
:1042800000EE41001E42004E42002E00007A630004
:104290007A63007A63007A63007A63007A63007A53
:1042A00063007A63007A63007A63007A63007A635A
:1042B000007A63007A63007A63002E00003E0000FB
:1042C0007A63007A63007A63007A63007A63007A23
:1042D00063007A63007A63007A63007A63007A632A
:1042E000007A63007A63007A63002E000080630026
:1042F0007A63007A63007A63007A63007A63007AF3
:1043000063007A63007A63007A63007A63007A63F9
:10431000007A63007A63007A63008A42008A42006E
:10432000BA4200EA42003600007A63007A63007AFB
:1043300063007A63007A63007A63007A63007A63C9
:10434000007A63007A63007A63007A63007A63001C
:104350007A63007A63002643002643002643002642
:104360004300010204081020408040800102040143
:1043700002040820100001010101010101010202F3
:1043800002020200000000000000286E756C6C291B
:10439000000025630000D9CFE5FFE1CFD9FF00C0C1
:1043A000E5FF01C0E5FF02C0E5FF03C0E5FF04C073
:1043B000E5FF05C0E5FF06C0E5FF07C0E5FF08C053
:1043C000E5FF09C0E5FF0AC0E5FF020EDBCF00F004
:1043D000030EDBCF01F0040EDBCF02F0050EDBCFC6
:1043E00003F0060EDBCF04F0E56AE56AE56AE56AEC
:1043F0000350E56E0250E56E0150E56E0050E56E2B
:1044000023EC28F0056E080EE126055006E02D0E7F
:10441000E56EB3EC30F0E652037E056A066A076A81
:104420003F0E086E096A0450095C1BE2410EE56EFE
:10443000200EE56EE56AE56A0850E56E0750E56E08
:104440000650E56E0550E56EB4EC1BF0056EF3CF3B
:1044500006F0F4CF07F0E9CF08F0080EE126092AAC
:10446000E2D70850E56E0750E56E0650E56E055040
:10447000E56E0350E56E0250E56E0150E56E0050AA
:10448000E56E1EEC18F0006EF3CF01F0F4CF02F0F1
:10449000E9CF03F0080EE1260350E56E0250E56E09
:1044A0000150E56E0050E56ED2EC2DF0056EF3CFB5
:1044B00006F0040EE1260650E56E0550E56E05ECAB
:1044C00030F0076EF3CF08F0F4CF09F0E9CF0AF02F
:1044D000E652E6520A50E56E0950E56E0850E56E68
:1044E0000750E56E0350E56E0250E56E0150E56E33
:1044F0000050E56EBCEC23F0006EF3CF01F0F4CF7A
:1045000002F0E9CF03F0080EE1260A0EE56E065030
:10451000E56E0550E56E53EC26F0030EE1260450DF
:1045200005E02E0EE56EB3EC30F0E65204C005F067
:1045300004060550D8B45CD00350E56E0250E56E19
:104540000150E56E0050E56E410EE56E200EE56E01
:10455000000EE56AE56AEAEC19F0006EF3CF01F0AF
:10456000F4CF02F0E9CF03F0080EE1260350E56E28
:104570000250E56E0150E56E0050E56ED2EC2DF074
:10458000056E040EE12605C006F00A0EE56EE56A2A
:104590000650E56E53EC26F0030EE126E56A055061
:1045A000E56E92EC2FF0056EF3CF06F0F4CF07F036
:1045B000E9CF08F0E652E6520850E56E0750E56E86
:1045C0000650E56E0550E56E0350E56E0250E56E4F
:1045D0000150E56E0050E56EBCEC23F0006EF3CFA9
:1045E00001F0F4CF02F0E9CF03F0080EE1269ED7E8
:1045F000E4CF0AF0E4CF09F0E4CF08F0E4CF07F00D
:10460000E4CF06F0E4CF05F0E4CF04F0E4CF03F00C
:10461000E4CF02F0E4CF01F0E4CF00F0E4CFD9FF23
:104620001200D9CFE5FFE1CFD9FF00C0E5FF01C0FF
:10463000E5FF02C0E5FF03C0E5FF04C0E5FF05C0DC
:10464000E5FF06C0E5FF07C0E5FF08C0E5FF09C0BC
:10465000E5FF0AC0E5FF0BC0E5FF020EDBCF00F06F
:10466000030EDBCF01F0040EDBCF02F0050EDBCF33
:1046700003F0005001100210031005E1E96AF46A2A
:10468000F36AE86A5ED0960E046E056A035008E08D
:10469000D8900332023201320032044A052AF6D79A
:1046A00004C006F005C007F002BE12D0035010E1AE
:1046B00000500026013602360336FF0E042605227E
:1046C00002BE02D00350F4E004C006F005C007F0BB
:1046D0000050046E0150056E7F0E0214086E096AC8
:1046E0000450FF0A08E10550FF0A05E108507F0A5F
:1046F00002E1095001E006D0006A016A026A036A19
:10470000064A072A029EE86A073006300B6E0A6ADC
:104710000A32086A0850001201120A5002120B50A5
:104720000312005002017D6F01507E6F02507F6FB7
:104730000350806F80C2E9FF7FC2F4FF7EC2F3FFA7
:104740007D51E4CF0BF0E4CF0AF0E4CF09F0E4CFE1
:1047500008F0E4CF07F0E4CF06F0E4CF05F0E4CFB3
:1047600004F0E4CF03F0E4CF02F0E4CF01F0E4CFB3
:1047700000F0E4CFD9FF1200D9CFE5FFE1CFD9FF98
:1047800000C0E5FF01C0E5FF02C0E5FF03C0E5FF93
:1047900004C0E5FF05C0E5FF06C0E5FF07C0E5FF73
:1047A000020EDBCF00F0030EDBCF01F0040EDBCFF7
:1047B00002F0050EDBCF03F0060EDBCF04F0070E90
:1047C000DBCF05F0080EDBCF06F0090EDBCF07F0DC
:1047D00000500201756F0150766F0250776F0350E1
:1047E000786F04500201796F05507A6F06507B6F25
:1047F00007507C6F79517A117B117C1109E178C2E5
:10480000E9FF77C2F4FF76C2F3FF020175514BD086
:104810000201755176117711781111E179C200F01A
:104820007AC201F07BC202F07CC203F0037E03C0B7
:10483000E9FF02C0F4FF01C0F3FF005034D00201D1
:104840007951006E7A51016E7B51026E7C51036E7C
:10485000037E0050796F01507A6F02507B6F0350D6
:104860007C6FE56E7B51E56E7A51E56E7951E56EB0
:1048700002017851E56E7751E56E7651E56E75511E
:10488000E56E1EEC18F0006EF3CF01F0F4CF02F0ED
:10489000E9CF03F0080EE12603C0E9FF02C0F4FFF0
:1048A00001C0F3FF0050E4CF07F0E4CF06F0E4CFFF
:1048B00005F0E4CF04F0E4CF03F0E4CF02F0E4CF5E
:1048C00001F0E4CF00F0E4CFD9FF1200D9CFE5FF2B
:1048D000E1CFD9FF00C0E5FF01C0E5FF02C0E5FF61
:1048E00003C0E5FF04C0E5FF05C0E5FF06C0E5FF26
:1048F00007C0E5FF08C0E5FF020EDBCF00F0030EA6
:10490000DBCF4DF2040EDBCF4EF2050EDBCF4FF2C4
:10491000060EDBCF01F0070EDBCF02F0080EDBCF77
:1049200003F0090EDBCF04F00A0EDBCF05F00B0E0F
:10493000DBCF06F00C0EDBCF07F00D0EDBCF08F05F
:1049400001500201446F0250456F0350466F0450FE
:10495000476F0550486F0650496F07504A6F08501F
:104960004B6FE56A02014D51E56EAFEC2AF0E6525D
:10497000E652E56A02014F51E56EAFEC2AF0E652CD
:10498000E65200501BE00201966B006A440E0024C0
:10499000016E026A020E022201C0E9FF02C0EAFFB4
:1049A000EFCF01F0E56A0150E56EAFEC2AF0E65278
:1049B000E652002A040E005CE9E31BD0100E02014F
:1049C000966F006A440E0024016E026A020E0222F3
:1049D00001C0E9FF02C0EAFFEFCF01F0E56A015034
:1049E000E56EAFEC2AF0E652E652002A080E005CB3
:1049F000E9E3E4CF08F0E4CF07F0E4CF06F0E4CF3A
:104A000005F0E4CF04F0E4CF03F0E4CF02F0E4CF0C
:104A100001F0E4CF00F0E4CFD9FF1200D9CFE5FFD9
:104A2000E1CFD9FF00C0E5FF01C0E5FF020EDBCFFB
:104A300000F0030EDBCF01F0020E005C02E3020186
:104A4000968700C097F20201956B015005E0005077
:104A5000010A02E102019685E56A0F0EE56E57EC48
:104A60002FF0E652E652E56A02014D51E56E24EC64
:104A70002BF0E652E652E56A02014F51E56E24EC56
:104A80002BF0E652E652020196B92AD0030EE56EEB
:104A90009BEC2EF0E652E56A050EE56E57EC2FF022
:104AA000E652E652030EE56E9BEC2EF0E652E56A06
:104AB000960EE56E6CEC30F0E652E652030EE56EB3
:104AC0009BEC2EF0E652E56A960EE56E6CEC30F04B
:104AD000E652E652020EE56E9BEC2EF0E65224D032
:104AE000200E02019611E56EC9EC30F0E652110E6F
:104AF000E56E940EE56E6CEC30F0E652E652200E58
:104B000002019611E56EC9EC30F0E652E56A960EA8
:104B1000E56E6CEC30F0E652E652200E0201961182
:104B2000E56EC9EC30F0E652200E02019611E56EFA
:104B3000C9EC30F0E652040E0201986F92EC31F0AD
:104B400045EC31F0020E0201996F060EE56EC9ECDC
:104B500030F0E652E4CF01F0E4CF00F0E4CFD9FF2B
:104B60001200D9CFE5FFE1CFD9FF00C0E5FF01C0BA
:104B7000E5FF02C0E5FF03C0E5FF04C0E5FF020E4C
:104B8000DBCF00F0620E0024016E026A430E0222A7
:104B9000036A000E032201C0F6FF02C0F7FF03C044
:104BA000F8FF0900F5CF01F08CC2E9FF8DC2F3FFD9
:104BB00002018E5129EC00F0026E015002160250E3
:104BC00033E1760E0024026E036A430E0322046A68
:104BD000000E042202C0F6FF03C0F7FF04C0F8FF76
:104BE0000900F5CF02F0036A800E02260F0E0322A1
:104BF000035002018D6F02508C6F800E8E6F8CC23D
:104C0000E9FF8DC2F3FF8E5129EC00F0026E0150D6
:104C1000021202C0E5FF8CC2E9FF8DC2F3FF020160
:104C20008E5131EC00F032D0026A036A760E002613
:104C3000430E0222000E032200C0F6FF02C0F7FF5F
:104C400003C0F8FF0900F5CF00F0026A800E0026CD
:104C50000F0E0222025002018D6F00508C6F800EE9
:104C60008E6F8CC2E9FF8DC2F3FF8E5129EC00F0EC
:104C7000006E0150FF08001600C0E5FF8CC2E9FF7E
:104C80008DC2F3FF02018E5131EC00F0E4CF04F04D
:104C9000E4CF03F0E4CF02F0E4CF01F0E4CF00F082
:104CA000E4CFD9FF1200D9CFE5FFE1CFD9FF00C093
:104CB000E5FF01C0E5FF02C0E5FF03C0E5FF04C05A
:104CC000E5FF05C0E5FF06C0E5FF07C0E5FF08C03A
:104CD000E5FF09C0E5FF020EDBCF00F0030EDBCFDE
:104CE00001F0040EDBCF02F00050011006E1300E9F
:104CF000E56EB3EC30F0E6525CD0036A046A005013
:104D000001102FE003C005F004C006F0034A042A96
:104D1000000E0526020E062202C007F0086AE56AA8
:104D20000750E56E0150E56E0050E56E99EC2BF0F2
:104D3000096E040EE12605C0E9FF06C0EAFF09C0BE
:104D4000EFFF0850E56E0750E56E0150E56E00502C
:104D5000E56EF6EC2BF0006EF3CF01F0040EE126C9
:104D6000CED703C000F004C001F00050011021E0D4
:104D70000004026E036A000E0226020E032202C025
:104D8000E9FF03C0EAFFEFCF02F00A0E025C05E282
:104D90000250036E300E032603D0370E0224036E3A
:104DA0000350E56EB3EC30F0E652FF0E0026012210
:104DB000DCD7E4CF09F0E4CF08F0E4CF07F0E4CF8C
:104DC00006F0E4CF05F0E4CF04F0E4CF03F0E4CF45
:104DD00002F0E4CF01F0E4CF00F0E4CFD9FF1200FD
:104DE000D9CFE5FFE1CFD9FF00C0E5FF01C0E5FF66
:104DF00002C0E5FF03C0E5FF04C0E5FF05C0E5FF15
:104E000006C0E5FF07C0E5FF08C0E5FF09C0E5FFF4
:104E10000AC0E5FF020EDBCF00F0030EDBCF01F08E
:104E2000040EDBCF02F0050EDBCF03F0060EDBCF66
:104E300004F0070EDBCF05F0080EDBCF06F0090EFD
:104E4000DBCF07F0086A045005100610071005E1D3
:104E5000E968F468F368E86847D0096A0750800B8E
:104E6000E8440A6E0A501BE1045004260536063653
:104E700007360750035C08E10650025C05E1055067
:104E8000015C02E10450005C06E2D8900732063271
:104E90000532043204D0092A09C008F0DFD70750D0
:104EA000035C08E10650025C05E10550015C02E18B
:104EB0000450005C08E30450005E0550015A06509F
:104EC000025A0750035AD89007320632053204328C
:104ED00008C009F008060950E2E103C0E9FF02C07A
:104EE000F4FF01C0F3FF0050E4CF0AF0E4CF09F073
:104EF000E4CF08F0E4CF07F0E4CF06F0E4CF05F00C
:104F0000E4CF04F0E4CF03F0E4CF02F0E4CF01F00B
:104F1000E4CF00F0E4CFD9FF1200D9CFE5FFE1CF15
:104F2000D9FF00C0E5FF01C0E5FF02C0E5FF03C0F7
:104F3000E5FF04C0E5FF05C0E5FF06C0E5FF07C0CB
:104F4000E5FF08C0E5FF09C0E5FF0AC0E5FF0BC0AB
:104F5000E5FF0CC0E5FF0DC0E5FF020EDBCF00F062
:104F6000030EDBCF01F0040EDBCF02F0050EDBCF2A
:104F700003F0060EDBCF04F0070EDBCF05F0080EC2
:104F8000DBCF06F0090EDBCF07F00A0EDBCF08F00F
:104F90000B0EDBCF09F006C00AF00B6A07C00CF05D
:104FA0000D6A0C500A260D500B2208C00CF00C5054
:104FB0000A260D500B2209C00CF00C500A260D5089
:104FC0000B220A5005E10B5003E10A6A0A2A01D0BC
:104FD0000A6A0950E56E0850E56E0750E56E065006
:104FE000E56E0550E56E0450E56E0350E56E025027
:104FF000E56E0150E56EE5680050E56E0A50E56E1D
:1050000066EC24F00C0EE126E4CF0DF0E4CF0CF0BA
:10501000E4CF0BF0E4CF0AF0E4CF09F0E4CF08F0DE
:10502000E4CF07F0E4CF06F0E4CF05F0E4CF04F0DE
:10503000E4CF03F0E4CF02F0E4CF01F0E4CF00F0DE
:10504000E4CFD9FF1200D9CFE5FFE1CFD9FF00C0EF
:10505000E5FF01C0E5FF02C0E5FF03C0E5FF04C0B6
:10506000E5FF05C0E5FF06C0E5FF07C0E5FF020E4E
:10507000DBCF00F0030EDBCF01F0040EDBCF02F03C
:10508000050EDBCF03F0060EDBCF04F0070EDBCFFF
:1050900005F0080EDBCF06F0090EDBCF07F000505D
:1050A0000201596F01505A6F02505B6F03505C6FE1
:1050B000045002015D6F05505E6F06505F6F075030
:1050C000606FD88002015CAFD8901FE3D8800201E6
:1050D00060AFD8901AE36051800FF36E02015C510B
:1050E000800FF35C0DE15B5102015F5D09E102019C
:1050F0005A5102015E5D04E10201595102015D5DF8
:1051000002E2010E1CD0E86A1AD002015C51800F45
:10511000F36E02016051800FF35C0DE15F510201FB
:105120005B5D09E102015E5102015A5D04E1020189
:105130005D510201595D02E2010E01D0E86AE4CF3F
:1051400007F0E4CF06F0E4CF05F0E4CF04F0E4CFBD
:1051500003F0E4CF02F0E4CF01F0E4CF00F0E4CFBD
:10516000D9FF1200D9CFE5FFE1CFD9FF00C0E5FF9D
:1051700001C0E5FF02C0E5FF03C0E5FF04C0E5FF95
:1051800005C0E5FF06C0E5FF07C0E5FF08C0E5FF75
:1051900009C0E5FF0AC0E5FF0BC0E5FF0CC0E5FF55
:1051A0000DC0E5FF020EDBCF00F0030EDBCF01F0F8
:1051B000040EDBCF02F0050EDBCF03F0060EDBCFD3
:1051C00004F0070EDBCF05F0080EDBCF06F0090E6A
:1051D000DBCF07F0086A096A0A6A0B6A200E0C6EB8
:1051E0000350800BE8440D6E005000260136023655
:1051F00003360850082609360A360B360D50D8A457
:10520000088007500B5C08E106500A5C05E1055078
:10521000095C02E10450085C09E30450085E055093
:10522000095A06500A5A07500B5A00800C2ED8D73C
:1052300003C0E9FF02C0F4FF01C0F3FF0050E4CF58
:105240000DF0E4CF0CF0E4CF0BF0E4CF0AF0E4CFA4
:1052500009F0E4CF08F0E4CF07F0E4CF06F0E4CFA4
:1052600005F0E4CF04F0E4CF03F0E4CF02F0E4CFA4
:1052700001F0E4CF00F0E4CFD9FF1200D9CFE5FF71
:10528000E1CFD9FF00C0E5FF01C0E5FF02C0E5FFA7
:1052900003C0E5FF04C0E5FF05C0E5FF06C0E5FF6C
:1052A000020EDBCF00F0030EDBCF01F0040EDBCFEC
:1052B00002F0050EDBCF03F000500110021033E0C6
:1052C00000C0E9FF01C0F3FF02502DEC00F0046EB6
:1052D000F3CF05F0F4CF06F003C0E5FF04C0E9FF0B
:1052E00005C0F3FF065031EC00F000C0E9FF01C03B
:1052F000F3FF02502DEC00F0046EF3CF05F0F4CF75
:1053000006F0042A02E3054A062A04C0E5FF05C0A8
:10531000F4FF06C0F6FF00C0E9FF01C0F3FF025032
:1053200035EC00F016D00350E56EF2CFE5FFF29EAB
:105330000500500EFD6E530EFE6E000EFF6EE4BEB5
:10534000F28E8BC2FBFF8AC2FAFF02018951F96E0D
:10535000E652E4CF06F0E4CF05F0E4CF04F0E4CF6A
:1053600003F0E4CF02F0E4CF01F0E4CF00F0E4CFAB
:10537000D9FF1200D9CFE5FFE1CFD9FF00C0E5FF8B
:1053800001C0E5FF02C0E5FF03C0E5FF04C0E5FF83
:1053900005C0E5FF06C0E5FF07C0E5FF020EDBCF55
:1053A00000F0030EDBCF01F0040EDBCF02F0050EA0
:1053B000DBCF03F0D88003AED8902AE3031C076E3E
:1053C000021C066E011C056E001C046E042A04E11A
:1053D000052A02E1064A072A0750E56E0650E56EE7
:1053E0000550E56E0450E56E11EC23F0046EF3CF2A
:1053F00005F0F4CF06F0E9CF07F0040EE126077EB2
:1054000007C0E9FF06C0F4FF05C0F3FF04501AD03F
:105410000350E56E0250E56E0150E56E0050E56EFA
:1054200011EC23F0006EF3CF01F0F4CF02F0E9CFDE
:1054300003F0040EE12603C0E9FF02C0F4FF01C03F
:10544000F3FF0050E4CF07F0E4CF06F0E4CF05F01F
:10545000E4CF04F0E4CF03F0E4CF02F0E4CF01F0B6
:10546000E4CF00F0E4CFD9FF1200D9CFE5FFE1CFC0
:10547000D9FF00C0E5FF01C0E5FF02C0E5FF03C0A2
:10548000E5FF04C0E5FF05C0E5FF020EDBCF00F03D
:10549000030EDBCF01F0040EDBCF02F0050EDBCFF5
:1054A00003F000500201716F0150726F0250736F70
:1054B0000350746F715172117311741106E07451BD
:1054C000800BE844006E005005E0E96AF46AF36A74
:1054D000E86A36D0020171517351026E7451036E45
:1054E00002340334006E016A6A0E0026FF0E0122A8
:1054F0007151026E7251036E7351046E7451049EA9
:10550000056A048E011E006CD8B4012A005011E017
:1055100009E6E86CD8900532043203320232010FFA
:10552000FAE307D0D8900236033604360536010F69
:10553000FAE305C0E9FF04C0F4FF03C0F3FF025023
:10554000E4CF05F0E4CF04F0E4CF03F0E4CF02F0C1
:10555000E4CF01F0E4CF00F0E4CFD9FF1200D9CFBF
:10556000E5FFE1CFD9FF00C0E5FF01C0E5FF02C0C4
:10557000E5FF03C0E5FF04C0E5FF020EDBCF00F04E
:10558000030EDBCF01F0620E0024026E036A430EAD
:105590000322046A000E042202C0F6FF03C0F7FFD4
:1055A00004C0F8FF0900F5CF02F0036A046A760E22
:1055B0000026430E0322000E042200C0F6FF03C0A3
:1055C000F7FF04C0F8FF0900F5CF00F0036A920E60
:1055D00000260F0E0322800E046E015014E000C05E
:1055E000E9FF03C0F3FF045029EC00F0016E025004
:1055F000011201C0E5FF00C0E9FF03C0F3FF045042
:1056000031EC00F014D000C0E9FF03C0F3FF0450F8
:1056100029EC00F0016E0250FF08011601C0E5FF01
:1056200000C0E9FF03C0F3FF045031EC00F0E4CF09
:1056300004F0E4CF03F0E4CF02F0E4CF01F0E4CFD4
:1056400000F0E4CFD9FF1200D9CFE5FFE1CFD9FFB9
:1056500000C0E5FF01C0E5FF02C0E5FF03C0E5FFB4
:1056600004C0E5FF020EDBCF00F0030EDBCF01F03C
:10567000620E0024026E036A430E0322046A000EC7
:10568000042202C0F6FF03C0F7FF04C0F8FF0900C0
:10569000F5CF02F0036A046A760E0026430E032259
:1056A000000E042200C0F6FF03C0F7FF04C0F8FF9D
:1056B0000900F5CF00F0036A800E00260F0E0322CA
:1056C000800E046E015014E000C0E9FF03C0F3FF38
:1056D000045029EC00F0016E0250011201C0E5FFF8
:1056E00000C0E9FF03C0F3FF045031EC00F014D018
:1056F00000C0E9FF03C0F3FF045029EC00F0016E85
:105700000250FF08011601C0E5FF00C0E9FF03C019
:10571000F3FF045031EC00F0E4CF04F0E4CF03F0E9
:10572000E4CF02F0E4CF01F0E4CF00F0E4CFD9FF02
:105730001200D9CFE5FFE1CFD9FF00C0E5FF01C0DE
:10574000E5FF02C0E5FF03C0E5FF04C0E5FF05C0BB
:10575000E5FF06C0E5FF020EDBCF00F0030EDBCF56
:1057600001F0040EDBCF02F0050EDBCF03F0046A7C
:10577000056A0350800BE844066E065011E10250A2
:10578000022603360350015C02E10250005C04E291
:10579000D8900332023204D0052A05C004F0E9D7BC
:1057A0000350015C02E10250005C04E30250005E21
:1057B0000350015AD8900332023204C005F00406A7
:1057C0000550EEE101C0F3FF0050E4CF06F0E4CF56
:1057D00005F0E4CF04F0E4CF03F0E4CF02F0E4CF2F
:1057E00001F0E4CF00F0E4CFD9FF1200D9CFE5FFFC
:1057F000E1CFD9FF00C0E5FF01C0E5FF02C0E5FF32
:1058000003C0E5FF04C0E5FF05C0E5FF06C0E5FFF6
:1058100007C0E5FF020EDBCF00F0030EDBCF01F087
:10582000040EDBCF02F0050EDBCF03F0046A056A3D
:10583000100E066E0150800BE844076E00500026E3
:1058400001360450042605360750D8A404800350BE
:10585000055C02E10250045C05E30250045E035063
:10586000055A0080062EE6D701C0F3FF0050E4CFB2
:1058700007F0E4CF06F0E4CF05F0E4CF04F0E4CF86
:1058800003F0E4CF02F0E4CF01F0E4CF00F0E4CF86
:10589000D9FF1200D9CFE5FFE1CFD9FF00C0E5FF66
:1058A00001C0E5FF02C0E5FF03C0E5FF04C0E5FF5E
:1058B00005C0E5FF020EDBCF8FF2030EDBCF90F2C7
:1058C000040EDBCF91F2050EDBCF00F0060EDBCF2E
:1058D00001F0070EDBCF02F0080EDBCF03F0090E5C
:1058E000DBCF04F00A0EDBCF05F00550E56E045067
:1058F000E56E0350E56E0250E56E0150E56E005016
:10590000E56E800EE56E020EE56E8F0EE56E33ECF1
:1059100010F0006E090EE1260050E4CF05F0E4CF50
:1059200004F0E4CF03F0E4CF02F0E4CF01F0E4CFE1
:1059300000F0E4CFD9FF1200D9CFE5FFE1CFD9FFC6
:1059400000C0E5FF01C0E5FF02C0E5FF03C0E5FFC1
:10595000020EDBCF00F0760E0024016E026A430EC9
:105960000222036A000E032201C0F6FF02C0F7FF05
:1059700003C0F8FF0900F5CF01F0026A800E01268E
:105980000F0E0222800E01C0E9FF02C0F3FF29ECD6
:1059900000F0016E026A036A620E0026430E0222C4
:1059A000000E032200C0F6FF02C0F7FF03C0F8FF9D
:1059B0000900F5CF00F000500116015002E1E86A3D
:1059C00001D0010EE4CF03F0E4CF02F0E4CF01F008
:1059D000E4CF00F0E4CFD9FF1200D9CFE5FFE1CF4B
:1059E000D9FF00C0E5FF01C0E5FF02C0E5FF03C02D
:1059F000E5FF04C0E5FF05C0E5FF020EDBCF89F23D
:105A0000030EDBCF8AF2040EDBCF8BF2050EDBCF69
:105A100000F0060EDBCF01F0070EDBCF02F0080E20
:105A2000DBCF03F0090EDBCF04F00A0EDBCF05F06D
:105A30000550E56E0450E56E0350E56E0250E56ECC
:105A40000150E56E0050E56E000EE56AE56AE56A14
:105A500033EC10F0006E090EE1260050E4CF05F0A3
:105A6000E4CF04F0E4CF03F0E4CF02F0E4CF01F0A0
:105A7000E4CF00F0E4CFD9FF1200460EF66E630EBD
:105A8000F76E000EF86E0900F550056E0900F5502E
:105A9000066E055002E106503BE00900F550006E2D
:105AA0000900F550016E0900F550026E0900090069
:105AB000F550E96E0900F550EA6E09000900090089
:105AC000F550036E0900F550046E09000900F6CF89
:105AD00007F0F7CF08F0F8CF09F000C0F6FF01C0DB
:105AE000F7FF02C0F8FF035002E1045007E009008D
:105AF000F550EE6E0306F8E20406F9D707C0F6FF8C
:105B000008C0F7FF09C0F8FF0506C4E20606C5D7BE
:105B10001200D9CFE5FFE1CFD9FF00C0E5FF01C0FA
:105B2000E5FF02C0E5FF03C0E5FF04C0E5FF050E89
:105B3000D924006E000EDA20016E800E026E030E74
:105B40000026000E01220222020ED924036E000E4E
:105B5000DA20046E0250E56E0150E56E0050E56EED
:105B6000070EDBCFE5FF060EDBCFE5FF050EDBCF33
:105B7000E5FF800EE56E0450E56E0350E56E33ECF4
:105B800010F0006E090EE1260050E4CF04F0E4CFDF
:105B900003F0E4CF02F0E4CF01F0E4CF00F0E4CF73
:105BA000D9FF1200D9CFE5FFE1CFD9FF00C0E5FF53
:105BB00001C0E5FF02C0E5FF03C0E5FF020EDBCF39
:105BC00000F0030EDBCF01F0040EDBCF02F0050E78
:105BD000DBCF03F00350E56E0250E56E0150E56E39
:105BE0000050E56E35EC2AF0006EF3CF01F0F4CFF3
:105BF00002F0E9CF03F0040EE126000E035C08E199
:105C0000000E025C05E1FF0E015C02E1FF0E005C8C
:105C100003E3F368E86803D001C0F3FF0050E4CF6A
:105C200003F0E4CF02F0E4CF01F0E4CF00F0E4CFE2
:105C3000D9FF1200D9CFE5FFE1CFD9FF00C0E5FFC2
:105C400001C0E5FF02C0E5FF03C0E5FF04C0E5FFBA
:105C500005C0E5FF020EDBCF00F0030EDBCF01F045
:105C6000040EDBCF02F0036A03500024046EE86ADE
:105C70000120056EE86A022004C0E9FF05C0F3FFB9
:105C800029EC00F0046E045007E00450E56EB3EC1C
:105C900030F0E652032AE8D7E4CF05F0E4CF04F071
:105CA000E4CF03F0E4CF02F0E4CF01F0E4CF00F062
:105CB000E4CFD9FF1200D9CFE5FFE1CFD9FF00C073
:105CC000E5FF01C0E5FF02C0E5FF03C0E5FF020EEE
:105CD000DBCF00F0016A440E0124026E036A020E5B
:105CE000032202C0E9FF03C0EAFFEFCF02F000C0C9
:105CF00003F0015005E0E86CD8900332010FFDE39A
:105D0000010E03160350E56E0250E56E24EC2BF0F5
:105D1000E652E652012A080E015CDDE3DEEC30F0CB
:105D2000E4CF03F0E4CF02F0E4CF01F0E4CF00F0E1
:105D3000E4CFD9FF1200D9CFE5FFE1CFD9FF00C0F2
:105D4000E5FF01C0E5FF02C0E5FF03C0E5FF020E6D
:105D5000DBCF00F0016A440E0124026E036A020EDA
:105D6000032202C0E9FF03C0EAFFEFCF02F000C048
:105D700003F0015005E0E86CD8900332010FFDE319
:105D8000010E03160350E56E0250E56E24EC2BF075
:105D9000E652E652012A040E015CDDE3DEEC30F04F
:105DA000E4CF03F0E4CF02F0E4CF01F0E4CF00F061
:105DB000E4CFD9FF1200D9CFE5FFE1CFD9FF00C072
:105DC000E5FF01C0E5FF02C0E5FF020EDBCF00F0FA
:105DD000030EDBCF01F00201556B400E566F140E1F
:105DE000576F540E586F02019751010A07E1140EC4
:105DF0000201566F280E576F3C0E586F026A550EFF
:105E00000126020E022201C0E9FF02C0EAFFEFCF25
:105E100001F001500026008E0050E56EC9EC30F014
:105E2000E652E4CF02F0E4CF01F0E4CF00F0E4CF9B
:105E3000D9FF120000C0E5FF01C0E5FF020150518B
:105E40006D0A02E101EC31F002015051730A02E1E6
:105E500077EC31F002015051800F050F05E353EC50
:105E600031F0610E0201506F50C200F0016A020170
:105E700050BF01680150E56E0050E56E000EE56E02
:105E8000430EE56E920EE56ECCEC2FF0050EE1268A
:105E9000010EE56EF40EE56E57EC2FF0E652E65279
:105EA0000201502BE4CF01F0E4CF00F01200D9CF73
:105EB000E5FFE1CFD9FF00C0E5FF01C0E5FF02C06B
:105EC000E5FF03C0E5FF04C0E5FF05C0E5FF020EE6
:105ED000DBCF00F0030EDBCF01F0026A036A015052
:105EE000035C02E10050025C0EE2010E37EC00F0B0
:105EF000590E046E0450056E0504046E0450FAE158
:105F0000024A032AECD7E4CF05F0E4CF04F0E4CF53
:105F100003F0E4CF02F0E4CF01F0E4CF00F0E4CFEF
:105F2000D9FF1200D9CFE5FFE1CFD9FF00C0E5FFCF
:105F300001C0E5FF02C0E5FF03C0E5FF020EDBCFB5
:105F400000F0030EDBCF01F0E86A01BEFF0E026E27
:105F5000E56E0250E56E0150E56E0050E56EBAEC5C
:105F600029F0006EF3CF01F0F4CF02F0E9CF03F097
:105F7000040EE12603C0E9FF02C0F4FF01C0F3FFF5
:105F80000050E4CF03F0E4CF02F0E4CF01F0E4CF1F
:105F900000F0E4CFD9FF1200D9CFE5FFE1CFD9FF60
:105FA00000C0E5FF01C0E5FF02C0E5FF020ED924F5
:105FB000006E000EDA20016E800E026E030E0026C7
:105FC000000E012202220250E56E0150E56E0050E3
:105FD000E56E040EDBCFE5FF030EDBCFE5FF020E1F
:105FE000DBCFE5FF000EE56E610EE56E660EE56E39
:105FF000EDEC2CF0090EE126E4CF02F0E4CF01F045
:10600000E4CF00F0E4CFD9FF1200D9CFE5FFE1CF14
:10601000D9FF00C0E5FF01C0E5FF02C0E5FF03C0F6
:10602000E5FF020EDBCF00F0030EDBCF01F0E56AE7
:10603000E56A0150E56E0050E56E11EC23F0006E4C
:10604000F3CF01F0F4CF02F0E9CF03F0040EE12624
:1060500003C0E9FF02C0F4FF01C0F3FF0050E4CF2A
:1060600003F0E4CF02F0E4CF01F0E4CF00F0E4CF9E
:10607000D9FF1200D9CFE5FFE1CFD9FF00C0E5FF7E
:1060800001C0E5FF020EDBCF00F0030EDBCF01F015
:106090000150E56E02014D51E56E24EC2BF0E65205
:1060A000E652020196A906D00050E56E5BEC2EF098
:1060B000E6520BD000380F0BE56E9BEC2EF0E6524B
:1060C0000050E56E9BEC2EF0E652E4CF01F0E4CFF9
:1060D00000F0E4CFD9FF1200D9CFE5FFE1CFD9FF1F
:1060E00000C0E5FF01C0E5FF02C0E5FF03C0E5FF1A
:1060F000020EDBCF00F0030EDBCF01F0026A036A71
:106100000150035C02E10050025C03E2024A032AF0
:10611000F7D7E4CF03F0E4CF02F0E4CF01F0E4CF0F
:1061200000F0E4CFD9FF1200E56AE56AE56AE56AA6
:10613000050EE56E040EE56E030EE56E020EE56ECD
:10614000010EE56E000EE56A8DEC27F00A0EE126E1
:10615000020EE56E100EE56E0EEC25F0E652E652EC
:1061600089EC31F01200D9CFE5FFE1CFD9FF00C0B3
:10617000E5FF020EDBCF00F0010EE56E0050E56E8C
:106180003AEC30F0E652E652E4CF00F0E4CFD9FF2B
:106190001200D9CFE5FFE1CFD9FF00C0E5FF020E25
:1061A000DBCF00F0E56A0050E56E3AEC30F0E652E5
:1061B000E652E4CF00F0E4CFD9FF1200010EE56E05
:1061C00002014F51E56E24EC2BF0E652E652E56AEF
:1061D00002014F51E56E24EC2BF0E652E65212001C
:1061E00000C0E5FF02019951006EFE0E0014996F88
:1061F000040E9911E56EC9EC30F0E652E4CF00F0E0
:10620000120000C0E5FF02019951006EFD0E00145E
:10621000996F040E9911E56EC9EC30F0E652E4CFA7
:1062200000F0120000C0E5FF02019851006EFE0E62
:106230000014986F080E9811E56EC9EC30F0E65224
:10624000E4CF00F0120000C0E5FF02019851006E9B
:10625000FD0E0014986F080E9811E56EC9EC30F031
:10626000E652E4CF00F0120000C0E5FF02019851B1
:10627000006EFB0E0014986F080E9811E56EC9ECC5
:1062800030F0E652E4CF00F01200010EE56EC9ECEA
:1062900030F0E652070EE56ED00EE56E6CEC30F095
:1062A000E652E6521200020EE56EC9EC30F0E652FC
:1062B000070EE56ED00EE56E6CEC30F0E652E6525D
:1062C000120011EEFFF021EEFFF0F86AA68EA69CF8
:1062D0003DEC2DF06DEC31F0FFD7B6EC31F09BECDE
:1062E00031F094EC30F01AEC2FF0FDD712000201DF
:1062F0009983040E9911E56EC9EC30F0E652120054
:1063000002019881080E9811E56EC9EC30F0E65252
:10631000120002019883080E9811E56EC9EC30F066
:10632000E652120002019885080E9811E56EC9EC3C
:1063300030F0E6521200D9CFE5FFE1CFD9FF0000DF
:10634000E4CFD9FF120001001A2000004C02000027
:10635000050000001C0EE56EC9EC30F0E65212009C
:10636000180EE56EC9EC30F0E65212000F0EC16E49
:10637000070EB46E120061EF31F01200120012002D
:0463800012001200F5
:00000001FF
